{
  "contractName": "Controlled",
  "abi": [
    {
      "constant": true,
      "inputs": [],
      "name": "controller",
      "outputs": [
        {
          "name": "",
          "type": "address"
        }
      ],
      "payable": false,
      "stateMutability": "view",
      "type": "function"
    },
    {
      "inputs": [],
      "payable": false,
      "stateMutability": "nonpayable",
      "type": "constructor"
    },
    {
      "constant": false,
      "inputs": [
        {
          "name": "newController",
          "type": "address"
        }
      ],
      "name": "transferControl",
      "outputs": [],
      "payable": false,
      "stateMutability": "nonpayable",
      "type": "function"
    }
  ],
  "bytecode": "0x608060405234801561001057600080fd5b50336000806101000a81548173ffffffffffffffffffffffffffffffffffffffff021916908373ffffffffffffffffffffffffffffffffffffffff160217905550610211806100606000396000f30060806040526004361061004c576000357c0100000000000000000000000000000000000000000000000000000000900463ffffffff1680636d16fa4114610051578063f77c479114610094575b600080fd5b34801561005d57600080fd5b50610092600480360381019080803573ffffffffffffffffffffffffffffffffffffffff1690602001909291905050506100eb565b005b3480156100a057600080fd5b506100a96101c0565b604051808273ffffffffffffffffffffffffffffffffffffffff1673ffffffffffffffffffffffffffffffffffffffff16815260200191505060405180910390f35b6000809054906101000a900473ffffffffffffffffffffffffffffffffffffffff1673ffffffffffffffffffffffffffffffffffffffff163373ffffffffffffffffffffffffffffffffffffffff1614151561014657600080fd5b600073ffffffffffffffffffffffffffffffffffffffff168173ffffffffffffffffffffffffffffffffffffffff161415156101bd57806000806101000a81548173ffffffffffffffffffffffffffffffffffffffff021916908373ffffffffffffffffffffffffffffffffffffffff1602179055505b50565b6000809054906101000a900473ffffffffffffffffffffffffffffffffffffffff16815600a165627a7a72305820256b34a2363fd1e866f89787faa5170ccf07d4119eff2c10bd81c50e887596b60029",
  "source": "pragma solidity ^0.4.24;\n/**\n * @title Controlled\n * @dev The Controlled contract has an controller address, and provides basic authorization control\n * functions, this simplifies the implementation of \"user permissions\".\n */\ncontract Controlled\n{\n  address public controller;\n\n\n  /**\n   * @dev The Ownable constructor sets the original `owner` of the contract to the sender account.\n   */\n  function Controlled() public\n  {\n    controller = msg.sender;\n  }\n\n  /**\n   * @dev Throws if called by any account other than the owner.\n   */\n  modifier onlyController()\n  {\n    require(msg.sender == controller);\n    _;\n  }\n\n  /**\n   * @dev Allows the current owner to transfer control of the contract to a newOwner.\n   * @param newController The address to transfer ownership to.\n   */\n  function transferControl(address newController) public onlyController\n  {\n    if (newController != address(0))\n    {\n      controller = newController;\n    }\n  }\n}",
  "sourcePath": "/Users/davidvanisacker/Programming/Ethereum/Proofsuite/amp-dex/contracts/utils/Controlled.sol",
  "compiler": {
    "name": "solc",
    "version": "0.4.24+commit.e67f0147.Emscripten.clang"
  },
  "schemaVersion": "2.0.1",
  "updatedAt": "2018-11-16T13:11:19.269Z"
}