{
  "contractName": "Exchange",
  "abi": [
    {
      "constant": false,
      "inputs": [
        {
          "name": "newOwner",
          "type": "address"
        }
      ],
      "name": "setOwner",
      "outputs": [],
      "payable": false,
      "stateMutability": "nonpayable",
      "type": "function"
    },
    {
      "constant": true,
      "inputs": [
        {
          "name": "",
          "type": "address"
        }
      ],
      "name": "operators",
      "outputs": [
        {
          "name": "",
          "type": "bool"
        }
      ],
      "payable": false,
      "stateMutability": "view",
      "type": "function"
    },
    {
      "constant": true,
      "inputs": [
        {
          "name": "",
          "type": "bytes32"
        }
      ],
      "name": "filled",
      "outputs": [
        {
          "name": "",
          "type": "uint256"
        }
      ],
      "payable": false,
      "stateMutability": "view",
      "type": "function"
    },
    {
      "constant": true,
      "inputs": [],
      "name": "wethToken",
      "outputs": [
        {
          "name": "",
          "type": "address"
        }
      ],
      "payable": false,
      "stateMutability": "view",
      "type": "function"
    },
    {
      "constant": true,
      "inputs": [],
      "name": "feeAccount",
      "outputs": [
        {
          "name": "",
          "type": "address"
        }
      ],
      "payable": false,
      "stateMutability": "view",
      "type": "function"
    },
    {
      "constant": true,
      "inputs": [],
      "name": "owner",
      "outputs": [
        {
          "name": "",
          "type": "address"
        }
      ],
      "payable": false,
      "stateMutability": "view",
      "type": "function"
    },
    {
      "constant": true,
      "inputs": [
        {
          "name": "",
          "type": "bytes32"
        }
      ],
      "name": "traded",
      "outputs": [
        {
          "name": "",
          "type": "bool"
        }
      ],
      "payable": false,
      "stateMutability": "view",
      "type": "function"
    },
    {
      "constant": true,
      "inputs": [],
      "name": "VERSION",
      "outputs": [
        {
          "name": "",
          "type": "string"
        }
      ],
      "payable": false,
      "stateMutability": "view",
      "type": "function"
    },
    {
      "inputs": [
        {
          "name": "_wethToken",
          "type": "address"
        },
        {
          "name": "_feeAccount",
          "type": "address"
        }
      ],
      "payable": false,
      "stateMutability": "nonpayable",
      "type": "constructor"
    },
    {
      "anonymous": false,
      "inputs": [
        {
          "indexed": false,
          "name": "oldWethToken",
          "type": "address"
        },
        {
          "indexed": false,
          "name": "newWethToken",
          "type": "address"
        }
      ],
      "name": "LogWethTokenUpdate",
      "type": "event"
    },
    {
      "anonymous": false,
      "inputs": [
        {
          "indexed": false,
          "name": "oldFeeAccount",
          "type": "address"
        },
        {
          "indexed": false,
          "name": "newFeeAccount",
          "type": "address"
        }
      ],
      "name": "LogFeeAccountUpdate",
      "type": "event"
    },
    {
      "anonymous": false,
      "inputs": [
        {
          "indexed": false,
          "name": "operator",
          "type": "address"
        },
        {
          "indexed": false,
          "name": "isOperator",
          "type": "bool"
        }
      ],
      "name": "LogOperatorUpdate",
      "type": "event"
    },
    {
      "anonymous": false,
      "inputs": [
        {
          "indexed": true,
          "name": "taker",
          "type": "address"
        },
        {
          "indexed": false,
          "name": "tokenSell",
          "type": "address"
        },
        {
          "indexed": false,
          "name": "tokenBuy",
          "type": "address"
        },
        {
          "indexed": false,
          "name": "orderHashes",
          "type": "bytes32[]"
        },
        {
          "indexed": false,
          "name": "tradeHashes",
          "type": "bytes32[]"
        },
        {
          "indexed": false,
          "name": "filledAmounts",
          "type": "uint256[]"
        },
        {
          "indexed": true,
          "name": "tokenPairHash",
          "type": "bytes32"
        }
      ],
      "name": "LogBatchTrades",
      "type": "event"
    },
    {
      "anonymous": false,
      "inputs": [
        {
          "indexed": true,
          "name": "maker",
          "type": "address"
        },
        {
          "indexed": true,
          "name": "taker",
          "type": "address"
        },
        {
          "indexed": false,
          "name": "tokenSell",
          "type": "address"
        },
        {
          "indexed": false,
          "name": "tokenBuy",
          "type": "address"
        },
        {
          "indexed": false,
          "name": "filledAmountSell",
          "type": "uint256"
        },
        {
          "indexed": false,
          "name": "filledAmountBuy",
          "type": "uint256"
        },
        {
          "indexed": false,
          "name": "paidFeeMake",
          "type": "uint256"
        },
        {
          "indexed": false,
          "name": "paidFeeTake",
          "type": "uint256"
        },
        {
          "indexed": false,
          "name": "orderHash",
          "type": "bytes32"
        },
        {
          "indexed": false,
          "name": "tradeHash",
          "type": "bytes32"
        },
        {
          "indexed": true,
          "name": "tokenPairHash",
          "type": "bytes32"
        }
      ],
      "name": "LogTrade",
      "type": "event"
    },
    {
      "anonymous": false,
      "inputs": [
        {
          "indexed": false,
          "name": "errorId",
          "type": "uint8"
        },
        {
          "indexed": false,
          "name": "orderHash",
          "type": "bytes32"
        },
        {
          "indexed": false,
          "name": "tradeHash",
          "type": "bytes32"
        }
      ],
      "name": "LogError",
      "type": "event"
    },
    {
      "anonymous": false,
      "inputs": [
        {
          "indexed": false,
          "name": "orderHash",
          "type": "bytes32"
        },
        {
          "indexed": false,
          "name": "tokenBuy",
          "type": "address"
        },
        {
          "indexed": false,
          "name": "amountBuy",
          "type": "uint256"
        },
        {
          "indexed": false,
          "name": "tokenSell",
          "type": "address"
        },
        {
          "indexed": false,
          "name": "amountSell",
          "type": "uint256"
        },
        {
          "indexed": false,
          "name": "expires",
          "type": "uint256"
        },
        {
          "indexed": false,
          "name": "nonce",
          "type": "uint256"
        },
        {
          "indexed": true,
          "name": "maker",
          "type": "address"
        },
        {
          "indexed": true,
          "name": "tokenPairHash",
          "type": "bytes32"
        }
      ],
      "name": "LogCancelOrder",
      "type": "event"
    },
    {
      "anonymous": false,
      "inputs": [
        {
          "indexed": false,
          "name": "orderHash",
          "type": "bytes32"
        },
        {
          "indexed": false,
          "name": "amount",
          "type": "uint256"
        },
        {
          "indexed": false,
          "name": "tradeNonce",
          "type": "uint256"
        },
        {
          "indexed": true,
          "name": "taker",
          "type": "address"
        }
      ],
      "name": "LogCancelTrade",
      "type": "event"
    },
    {
      "anonymous": false,
      "inputs": [
        {
          "indexed": true,
          "name": "previousOwner",
          "type": "address"
        },
        {
          "indexed": true,
          "name": "newOwner",
          "type": "address"
        }
      ],
      "name": "SetOwner",
      "type": "event"
    },
    {
      "constant": false,
      "inputs": [
        {
          "name": "_wethToken",
          "type": "address"
        }
      ],
      "name": "setWethToken",
      "outputs": [
        {
          "name": "",
          "type": "bool"
        }
      ],
      "payable": false,
      "stateMutability": "nonpayable",
      "type": "function"
    },
    {
      "constant": false,
      "inputs": [
        {
          "name": "_feeAccount",
          "type": "address"
        }
      ],
      "name": "setFeeAccount",
      "outputs": [
        {
          "name": "",
          "type": "bool"
        }
      ],
      "payable": false,
      "stateMutability": "nonpayable",
      "type": "function"
    },
    {
      "constant": false,
      "inputs": [
        {
          "name": "_operator",
          "type": "address"
        },
        {
          "name": "_isOperator",
          "type": "bool"
        }
      ],
      "name": "setOperator",
      "outputs": [
        {
          "name": "",
          "type": "bool"
        }
      ],
      "payable": false,
      "stateMutability": "nonpayable",
      "type": "function"
    },
    {
      "constant": false,
      "inputs": [
        {
          "name": "orderValues",
          "type": "uint256[8][]"
        },
        {
          "name": "orderAddresses",
          "type": "address[4][]"
        },
        {
          "name": "v",
          "type": "uint8[2][]"
        },
        {
          "name": "rs",
          "type": "bytes32[4][]"
        }
      ],
      "name": "executeBatchTrades",
      "outputs": [
        {
          "name": "",
          "type": "bool"
        }
      ],
      "payable": false,
      "stateMutability": "nonpayable",
      "type": "function"
    },
    {
      "constant": false,
      "inputs": [
        {
          "name": "orderValues",
          "type": "uint256[8]"
        },
        {
          "name": "orderAddresses",
          "type": "address[4]"
        },
        {
          "name": "v",
          "type": "uint8[2]"
        },
        {
          "name": "rs",
          "type": "bytes32[4]"
        }
      ],
      "name": "executeTrade",
      "outputs": [
        {
          "name": "",
          "type": "bytes32"
        },
        {
          "name": "",
          "type": "bytes32"
        },
        {
          "name": "",
          "type": "uint256"
        }
      ],
      "payable": false,
      "stateMutability": "nonpayable",
      "type": "function"
    },
    {
      "constant": false,
      "inputs": [
        {
          "name": "orderValues",
          "type": "uint256[6][]"
        },
        {
          "name": "orderAddresses",
          "type": "address[3][]"
        },
        {
          "name": "v",
          "type": "uint8[]"
        },
        {
          "name": "r",
          "type": "bytes32[]"
        },
        {
          "name": "s",
          "type": "bytes32[]"
        }
      ],
      "name": "batchCancelOrders",
      "outputs": [],
      "payable": false,
      "stateMutability": "nonpayable",
      "type": "function"
    },
    {
      "constant": false,
      "inputs": [
        {
          "name": "orderValues",
          "type": "uint256[6]"
        },
        {
          "name": "orderAddresses",
          "type": "address[3]"
        },
        {
          "name": "v",
          "type": "uint8"
        },
        {
          "name": "r",
          "type": "bytes32"
        },
        {
          "name": "s",
          "type": "bytes32"
        }
      ],
      "name": "cancelOrder",
      "outputs": [
        {
          "name": "",
          "type": "bool"
        }
      ],
      "payable": false,
      "stateMutability": "nonpayable",
      "type": "function"
    },
    {
      "constant": false,
      "inputs": [
        {
          "name": "orderHash",
          "type": "bytes32[]"
        },
        {
          "name": "amount",
          "type": "uint256[]"
        },
        {
          "name": "tradeNonce",
          "type": "uint256[]"
        },
        {
          "name": "taker",
          "type": "address[]"
        },
        {
          "name": "v",
          "type": "uint8[]"
        },
        {
          "name": "r",
          "type": "bytes32[]"
        },
        {
          "name": "s",
          "type": "bytes32[]"
        }
      ],
      "name": "batchCancelTrades",
      "outputs": [],
      "payable": false,
      "stateMutability": "nonpayable",
      "type": "function"
    },
    {
      "constant": false,
      "inputs": [
        {
          "name": "orderHash",
          "type": "bytes32"
        },
        {
          "name": "amount",
          "type": "uint256"
        },
        {
          "name": "tradeNonce",
          "type": "uint256"
        },
        {
          "name": "taker",
          "type": "address"
        },
        {
          "name": "v",
          "type": "uint8"
        },
        {
          "name": "r",
          "type": "bytes32"
        },
        {
          "name": "s",
          "type": "bytes32"
        }
      ],
      "name": "cancelTrade",
      "outputs": [
        {
          "name": "",
          "type": "bool"
        }
      ],
      "payable": false,
      "stateMutability": "nonpayable",
      "type": "function"
    },
    {
      "constant": true,
      "inputs": [
        {
          "name": "signer",
          "type": "address"
        },
        {
          "name": "hash",
          "type": "bytes32"
        },
        {
          "name": "v",
          "type": "uint8"
        },
        {
          "name": "r",
          "type": "bytes32"
        },
        {
          "name": "s",
          "type": "bytes32"
        }
      ],
      "name": "isValidSignature",
      "outputs": [
        {
          "name": "",
          "type": "bool"
        }
      ],
      "payable": false,
      "stateMutability": "pure",
      "type": "function"
    },
    {
      "constant": true,
      "inputs": [
        {
          "name": "numerator",
          "type": "uint256"
        },
        {
          "name": "denominator",
          "type": "uint256"
        },
        {
          "name": "target",
          "type": "uint256"
        }
      ],
      "name": "isRoundingError",
      "outputs": [
        {
          "name": "",
          "type": "bool"
        }
      ],
      "payable": false,
      "stateMutability": "pure",
      "type": "function"
    },
    {
      "constant": true,
      "inputs": [
        {
          "name": "numerator",
          "type": "uint256"
        },
        {
          "name": "denominator",
          "type": "uint256"
        },
        {
          "name": "target",
          "type": "uint256"
        }
      ],
      "name": "getPartialAmount",
      "outputs": [
        {
          "name": "",
          "type": "uint256"
        }
      ],
      "payable": false,
      "stateMutability": "pure",
      "type": "function"
    }
  ],
  "bytecode": "0x608060405234801561001057600080fd5b506040516040806133188339810180604052810190808051906020019092919080519060200190929190505050336000806101000a81548173ffffffffffffffffffffffffffffffffffffffff021916908373ffffffffffffffffffffffffffffffffffffffff16021790555081600160006101000a81548173ffffffffffffffffffffffffffffffffffffffff021916908373ffffffffffffffffffffffffffffffffffffffff16021790555080600260006101000a81548173ffffffffffffffffffffffffffffffffffffffff021916908373ffffffffffffffffffffffffffffffffffffffff1602179055505050613208806101106000396000f300608060405260043610610112576000357c0100000000000000000000000000000000000000000000000000000000900463ffffffff1680630877f6c11461011757806313af40351461034f57806313e7c9d81461039257806314df96ee146103ed578063154e775a146104465780632207148d1461063e578063288cdc9114610750578063468ddf2e146107955780634b023cf81461083b5780634b57b0be14610896578063558a7297146108ed57806365e17c9d146109545780638163681e146109ab57806386e09c0814610a3d5780638da5cb5b14610a9857806398024a8b14610aef578063d581332314610b44578063d9a72b5214610b8d578063e51ad32d14610c4f578063ffa1ad7414610e39575b600080fd5b34801561012357600080fd5b5061033560048036038101908080359060200190820180359060200190808060200260200160405190810160405280939291908181526020016000905b828210156101a657848483905061010002016008806020026040519081016040528092919082600860200280828437820191505050505081526020019060010190610160565b5050505050919291929080359060200190820180359060200190808060200260200160405190810160405280939291908181526020016000905b828210156102255784848390506080020160048060200260405190810160405280929190826004602002808284378201915050505050815260200190600101906101e0565b5050505050919291929080359060200190820180359060200190808060200260200160405190810160405280939291908181526020016000905b828210156102a457848483905060400201600280602002604051908101604052809291908260026020028082843782019150505050508152602001906001019061025f565b5050505050919291929080359060200190820180359060200190808060200260200160405190810160405280939291908181526020016000905b828210156103235784848390506080020160048060200260405190810160405280929190826004602002808284378201915050505050815260200190600101906102de565b50505050509192919290505050610ec9565b604051808215151515815260200191505060405180910390f35b34801561035b57600080fd5b50610390600480360381019080803573ffffffffffffffffffffffffffffffffffffffff169060200190929190505050611498565b005b34801561039e57600080fd5b506103d3600480360381019080803573ffffffffffffffffffffffffffffffffffffffff1690602001909291905050506115b1565b604051808215151515815260200191505060405180910390f35b3480156103f957600080fd5b5061042c6004803603810190808035906020019092919080359060200190929190803590602001909291905050506115d1565b604051808215151515815260200191505060405180910390f35b34801561045257600080fd5b5061063c60048036038101908080359060200190820180359060200190808060200260200160405190810160405280939291908181526020018383602002808284378201915050505050509192919290803590602001908201803590602001908080602002602001604051908101604052809392919081815260200183836020028082843782019150505050505091929192908035906020019082018035906020019080806020026020016040519081016040528093929190818152602001838360200280828437820191505050505050919291929080359060200190820180359060200190808060200260200160405190810160405280939291908181526020018383602002808284378201915050505050509192919290803590602001908201803590602001908080602002602001604051908101604052809392919081815260200183836020028082843782019150505050505091929192908035906020019082018035906020019080806020026020016040519081016040528093929190818152602001838360200280828437820191505050505050919291929080359060200190820180359060200190808060200260200160405190810160405280939291908181526020018383602002808284378201915050505050509192919290505050611644565b005b34801561064a57600080fd5b5061071c60048036038101908080610100019060088060200260405190810160405280929190826008602002808284378201915050505050919291929080608001906004806020026040519081016040528092919082600460200280828437820191505050505091929192908060400190600280602002604051908101604052809291908260026020028082843782019150505050509192919290806080019060048060200260405190810160405280929190826004602002808284378201915050505050919291929050505061171b565b6040518084600019166000191681526020018360001916600019168152602001828152602001935050505060405180910390f35b34801561075c57600080fd5b5061077f60048036038101908080356000191690602001909291905050506120c9565b6040518082815260200191505060405180910390f35b3480156107a157600080fd5b5061082160048036038101908080356000191690602001909291908035906020019092919080359060200190929190803573ffffffffffffffffffffffffffffffffffffffff169060200190929190803560ff169060200190929190803560001916906020019092919080356000191690602001909291905050506120e1565b604051808215151515815260200191505060405180910390f35b34801561084757600080fd5b5061087c600480360381019080803573ffffffffffffffffffffffffffffffffffffffff16906020019092919050505061225a565b604051808215151515815260200191505060405180910390f35b3480156108a257600080fd5b506108ab6123f6565b604051808273ffffffffffffffffffffffffffffffffffffffff1673ffffffffffffffffffffffffffffffffffffffff16815260200191505060405180910390f35b3480156108f957600080fd5b5061093a600480360381019080803573ffffffffffffffffffffffffffffffffffffffff16906020019092919080351515906020019092919050505061241c565b604051808215151515815260200191505060405180910390f35b34801561096057600080fd5b50610969612585565b604051808273ffffffffffffffffffffffffffffffffffffffff1673ffffffffffffffffffffffffffffffffffffffff16815260200191505060405180910390f35b3480156109b757600080fd5b50610a23600480360381019080803573ffffffffffffffffffffffffffffffffffffffff1690602001909291908035600019169060200190929190803560ff169060200190929190803560001916906020019092919080356000191690602001909291905050506125ab565b604051808215151515815260200191505060405180910390f35b348015610a4957600080fd5b50610a7e600480360381019080803573ffffffffffffffffffffffffffffffffffffffff169060200190929190505050612718565b604051808215151515815260200191505060405180910390f35b348015610aa457600080fd5b50610aad612878565b604051808273ffffffffffffffffffffffffffffffffffffffff1673ffffffffffffffffffffffffffffffffffffffff16815260200191505060405180910390f35b348015610afb57600080fd5b50610b2e60048036038101908080359060200190929190803590602001909291908035906020019092919050505061289d565b6040518082815260200191505060405180910390f35b348015610b5057600080fd5b50610b7360048036038101908080356000191690602001909291905050506128cd565b604051808215151515815260200191505060405180910390f35b348015610b9957600080fd5b50610c356004803603810190808060c001906006806020026040519081016040528092919082600660200280828437820191505050505091929192908060600190600380602002604051908101604052809291908260036020028082843782019150505050509192919290803560ff169060200190929190803560001916906020019092919080356000191690602001909291905050506128ed565b604051808215151515815260200191505060405180910390f35b348015610c5b57600080fd5b50610e3760048036038101908080359060200190820180359060200190808060200260200160405190810160405280939291908181526020016000905b82821015610cdd57848483905060c002016006806020026040519081016040528092919082600660200280828437820191505050505081526020019060010190610c98565b5050505050919291929080359060200190820180359060200190808060200260200160405190810160405280939291908181526020016000905b82821015610d5c578484839050606002016003806020026040519081016040528092919082600360200280828437820191505050505081526020019060010190610d17565b50505050509192919290803590602001908201803590602001908080602002602001604051908101604052809392919081815260200183836020028082843782019150505050505091929192908035906020019082018035906020019080806020026020016040519081016040528093929190818152602001838360200280828437820191505050505050919291929080359060200190820180359060200190808060200260200160405190810160405280939291908181526020018383602002808284378201915050505050509192919290505050612ce7565b005b348015610e4557600080fd5b50610e4e612d8c565b6040518080602001828103825283818151815260200191508051906020019080838360005b83811015610e8e578082015181840152602081019050610e73565b50505050905090810190601f168015610ebb5780820380516001836020036101000a031916815260200191505b509250505060405180910390f35b600060608060606000806000806000809054906101000a900473ffffffffffffffffffffffffffffffffffffffff1673ffffffffffffffffffffffffffffffffffffffff163373ffffffffffffffffffffffffffffffffffffffff161480610f7a5750600360003373ffffffffffffffffffffffffffffffffffffffff1673ffffffffffffffffffffffffffffffffffffffff16815260200190815260200160002060009054906101000a900460ff165b1515610f8557600080fd5b8a51604051908082528060200260200182016040528015610fb55781602001602082028038833980820191505090505b5096508a51604051908082528060200260200182016040528015610fe85781602001602082028038833980820191505090505b5095508a5160405190808252806020026020018201604052801561101b5781602001602082028038833980820191505090505b509450600093505b8a51841015611124576110948c8581518110151561103d57fe5b906020019060200201518c8681518110151561105557fe5b906020019060200201518c8781518110151561106d57fe5b906020019060200201518c8881518110151561108557fe5b9060200190602002015161171b565b92509250925060008114156110ac5760009750611489565b8287858151811015156110bb57fe5b9060200190602002019060001916908160001916815250508186858151811015156110e257fe5b90602001906020020190600019169081600019168152505080858581518110151561110957fe5b90602001906020020181815250508380600101945050611023565b8a600081518110151561113357fe5b90602001906020020151600160048110151561114b57fe5b60200201518b600081518110151561115f57fe5b90602001906020020151600260048110151561117757fe5b6020020151604051602001808373ffffffffffffffffffffffffffffffffffffffff1673ffffffffffffffffffffffffffffffffffffffff166c010000000000000000000000000281526014018273ffffffffffffffffffffffffffffffffffffffff1673ffffffffffffffffffffffffffffffffffffffff166c01000000000000000000000000028152601401925050506040516020818303038152906040526040518082805190602001908083835b60208310151561124d5780518252602082019150602081019050602083039250611228565b6001836020036101000a0380198251168184511680821785525050505050509050019150506040518091039020600019168b600081518110151561128d57fe5b9060200190602002015160026004811015156112a557fe5b602002015173ffffffffffffffffffffffffffffffffffffffff167f94bbd7e15e68655b645dc3781ae12285dee432ad5c825161d78d6f69c20c19358d60008151811015156112f057fe5b90602001906020020151600160048110151561130857fe5b60200201518e600081518110151561131c57fe5b90602001906020020151600060048110151561133457fe5b60200201518b8b8b604051808673ffffffffffffffffffffffffffffffffffffffff1673ffffffffffffffffffffffffffffffffffffffff1681526020018573ffffffffffffffffffffffffffffffffffffffff1673ffffffffffffffffffffffffffffffffffffffff168152602001806020018060200180602001848103845287818151815260200191508051906020019060200280838360005b838110156113eb5780820151818401526020810190506113d0565b50505050905001848103835286818151815260200191508051906020019060200280838360005b8381101561142d578082015181840152602081019050611412565b50505050905001848103825285818151815260200191508051906020019060200280838360005b8381101561146f578082015181840152602081019050611454565b505050509050019850505050505050505060405180910390a35b50505050505050949350505050565b6000809054906101000a900473ffffffffffffffffffffffffffffffffffffffff1673ffffffffffffffffffffffffffffffffffffffff163373ffffffffffffffffffffffffffffffffffffffff161415156114f357600080fd5b8073ffffffffffffffffffffffffffffffffffffffff166000809054906101000a900473ffffffffffffffffffffffffffffffffffffffff1673ffffffffffffffffffffffffffffffffffffffff167fcbf985117192c8f614a58aaf97226bb80a754772f5f6edf06f87c675f2e6c66360405160405180910390a3806000806101000a81548173ffffffffffffffffffffffffffffffffffffffff021916908373ffffffffffffffffffffffffffffffffffffffff16021790555050565b60036020528060005260406000206000915054906101000a900460ff1681565b6000806000848015156115e057fe5b868509915060008214156115f7576000925061163b565b61163161160d8588612dc590919063ffffffff16565b611623620f424085612dc590919063ffffffff16565b612df890919063ffffffff16565b90506103e8811192505b50509392505050565b60008090505b875181101561171157611703888281518110151561166457fe5b90602001906020020151888381518110151561167c57fe5b90602001906020020151888481518110151561169457fe5b9060200190602002015188858151811015156116ac57fe5b9060200190602002015188868151811015156116c457fe5b9060200190602002015188878151811015156116dc57fe5b9060200190602002015188888151811015156116f457fe5b906020019060200201516120e1565b50808060010191505061164a565b5050505050505050565b600080600061172861310b565b600061173261319a565b6000806000809054906101000a900473ffffffffffffffffffffffffffffffffffffffff1673ffffffffffffffffffffffffffffffffffffffff163373ffffffffffffffffffffffffffffffffffffffff1614806117d95750600360003373ffffffffffffffffffffffffffffffffffffffff1673ffffffffffffffffffffffffffffffffffffffff16815260200190815260200160002060009054906101000a900460ff165b15156117e457600080fd5b610120604051908101604052808d600060088110151561180057fe5b602002015181526020018d600160088110151561181957fe5b602002015181526020018d600260088110151561183257fe5b602002015181526020018d600360088110151561184b57fe5b602002015181526020018d600460088110151561186457fe5b602002015181526020018d600560088110151561187d57fe5b602002015181526020018c600060048110151561189657fe5b602002015173ffffffffffffffffffffffffffffffffffffffff1681526020018c60016004811015156118c557fe5b602002015173ffffffffffffffffffffffffffffffffffffffff1681526020018c60026004811015156118f457fe5b602002015173ffffffffffffffffffffffffffffffffffffffff16815250945061191d85612e13565b9350608060405190810160405280856000191681526020018d600660088110151561194457fe5b602002015181526020018d600760088110151561195d57fe5b602002015181526020018c600360048110151561197657fe5b602002015173ffffffffffffffffffffffffffffffffffffffff16815250925061199f83612ff7565b91506119ec856101000151858c60006002811015156119ba57fe5b60200201518c60006004811015156119ce57fe5b60200201518d60016004811015156119e257fe5b60200201516125ab565b1515611a6d577f14301341d034ec3c62a1eabc804a79abf3b8c16e6245e82ec572346aa452fabb60016006811115611a2057fe5b8584604051808460ff1660ff16815260200183600019166000191681526020018260001916600019168152602001935050505060405180910390a1838260008090509750975097506120ba565b611ab78360600151838c6001600281101515611a8557fe5b60200201518c6002600481101515611a9957fe5b60200201518d6003600481101515611aad57fe5b60200201516125ab565b1515611b38577f14301341d034ec3c62a1eabc804a79abf3b8c16e6245e82ec572346aa452fabb60026006811115611aeb57fe5b8584604051808460ff1660ff16815260200183600019166000191681526020018260001916600019168152602001935050505060405180910390a1838260008090509750975097506120ba565b4385604001511015611bbf577f14301341d034ec3c62a1eabc804a79abf3b8c16e6245e82ec572346aa452fabb60036006811115611b7257fe5b8584604051808460ff1660ff16815260200183600019166000191681526020018260001916600019168152602001935050505060405180910390a1838260008090509750975097506120ba565b60056000836000191660001916815260200190815260200160002060009054906101000a900460ff1615611c68577f14301341d034ec3c62a1eabc804a79abf3b8c16e6245e82ec572346aa452fabb60046006811115611c1b57fe5b8584604051808460ff1660ff16815260200183600019166000191681526020018260001916600019168152602001935050505060405180910390a1838260008090509750975097506120ba565b8460000151611c9f8460200151600460008860001916600019168152602001908152602001600020546130ed90919063ffffffff16565b1115611d20577f14301341d034ec3c62a1eabc804a79abf3b8c16e6245e82ec572346aa452fabb60056006811115611cd357fe5b8584604051808460ff1660ff16815260200183600019166000191681526020018260001916600019168152602001935050505060405180910390a1838260008090509750975097506120ba565b611d378360200151866000015187602001516115d1565b15611db6577f14301341d034ec3c62a1eabc804a79abf3b8c16e6245e82ec572346aa452fabb600680811115611d6957fe5b8584604051808460ff1660ff16815260200183600019166000191681526020018260001916600019168152602001935050505060405180910390a1838260008090509750975097506120ba565b600160056000846000191660001916815260200190815260200160002060006101000a81548160ff021916908315150217905550611e0183602001518660000151876020015161289d565b9050611e358360200151600460008760001916600019168152602001908152602001600020546130ed90919063ffffffff16565b600460008660001916600019168152602001908152602001600020819055508460e0015173ffffffffffffffffffffffffffffffffffffffff166323b872dd8661010001518560600151846040518463ffffffff167c0100000000000000000000000000000000000000000000000000000000028152600401808473ffffffffffffffffffffffffffffffffffffffff1673ffffffffffffffffffffffffffffffffffffffff1681526020018373ffffffffffffffffffffffffffffffffffffffff1673ffffffffffffffffffffffffffffffffffffffff1681526020018281526020019350505050602060405180830381600087803b158015611f3857600080fd5b505af1158015611f4c573d6000803e3d6000fd5b505050506040513d6020811015611f6257600080fd5b81019080805190602001909291905050501515611f7e57600080fd5b8460c0015173ffffffffffffffffffffffffffffffffffffffff166323b872dd846060015187610100015186602001516040518463ffffffff167c0100000000000000000000000000000000000000000000000000000000028152600401808473ffffffffffffffffffffffffffffffffffffffff1673ffffffffffffffffffffffffffffffffffffffff1681526020018373ffffffffffffffffffffffffffffffffffffffff1673ffffffffffffffffffffffffffffffffffffffff1681526020018281526020019350505050602060405180830381600087803b15801561206657600080fd5b505af115801561207a573d6000803e3d6000fd5b505050506040513d602081101561209057600080fd5b810190808051906020019092919050505015156120ac57600080fd5b838284602001519750975097505b50505050509450945094915050565b60046020528060005260406000206000915090505481565b60006120eb61319a565b60006080604051908101604052808b6000191681526020018a81526020018981526020018873ffffffffffffffffffffffffffffffffffffffff16815250915061213482612ff7565b905061214333828888886125ab565b15156121ae577f14301341d034ec3c62a1eabc804a79abf3b8c16e6245e82ec572346aa452fabb6000600681111561217757fe5b82604051808360ff1660ff16815260200160200182600019166000191681526020019250505060405180910390a16000925061224d565b600160056000836000191660001916815260200190815260200160002060006101000a81548160ff0219169083151502179055508673ffffffffffffffffffffffffffffffffffffffff167f1debd637af55cac936fd656ab3fb0391eb4eb29cb178bf44577ef6cecc10ae258b8b8b604051808460001916600019168152602001838152602001828152602001935050505060405180910390a2600192505b5050979650505050505050565b60008060009054906101000a900473ffffffffffffffffffffffffffffffffffffffff1673ffffffffffffffffffffffffffffffffffffffff163373ffffffffffffffffffffffffffffffffffffffff161415156122b757600080fd5b600073ffffffffffffffffffffffffffffffffffffffff168273ffffffffffffffffffffffffffffffffffffffff16141515156122f357600080fd5b7ff822f5a19627202340985855aeffadb385833332f2f700b3e6287d28547778a9600260009054906101000a900473ffffffffffffffffffffffffffffffffffffffff1683604051808373ffffffffffffffffffffffffffffffffffffffff1673ffffffffffffffffffffffffffffffffffffffff1681526020018273ffffffffffffffffffffffffffffffffffffffff1673ffffffffffffffffffffffffffffffffffffffff1681526020019250505060405180910390a181600260006101000a81548173ffffffffffffffffffffffffffffffffffffffff021916908373ffffffffffffffffffffffffffffffffffffffff16021790555060019050919050565b600160009054906101000a900473ffffffffffffffffffffffffffffffffffffffff1681565b60008060009054906101000a900473ffffffffffffffffffffffffffffffffffffffff1673ffffffffffffffffffffffffffffffffffffffff163373ffffffffffffffffffffffffffffffffffffffff1614151561247957600080fd5b600073ffffffffffffffffffffffffffffffffffffffff168373ffffffffffffffffffffffffffffffffffffffff16141515156124b557600080fd5b7f4af650e9ee9ac50b37ec2cd3ddac7e1c69955ffc871bc3e812563775f3bc0e7d8383604051808373ffffffffffffffffffffffffffffffffffffffff1673ffffffffffffffffffffffffffffffffffffffff168152602001821515151581526020019250505060405180910390a181600360008573ffffffffffffffffffffffffffffffffffffffff1673ffffffffffffffffffffffffffffffffffffffff16815260200190815260200160002060006101000a81548160ff0219169083151502179055506001905092915050565b600260009054906101000a900473ffffffffffffffffffffffffffffffffffffffff1681565b600060018560405160200180807f19457468657265756d205369676e6564204d6573736167653a0a333200000000815250601c0182600019166000191681526020019150506040516020818303038152906040526040518082805190602001908083835b602083101515612634578051825260208201915060208101905060208303925061260f565b6001836020036101000a0380198251168184511680821785525050505050509050019150506040518091039020858585604051600081526020016040526040518085600019166000191681526020018460ff1660ff1681526020018360001916600019168152602001826000191660001916815260200194505050505060206040516020810390808403906000865af11580156126d5573d6000803e3d6000fd5b5050506020604051035173ffffffffffffffffffffffffffffffffffffffff168673ffffffffffffffffffffffffffffffffffffffff1614905095945050505050565b60008060009054906101000a900473ffffffffffffffffffffffffffffffffffffffff1673ffffffffffffffffffffffffffffffffffffffff163373ffffffffffffffffffffffffffffffffffffffff1614151561277557600080fd5b7fb8be72b4c168c2f7d3ea469d9f48ccbc62416784a4f6a69ca93ff13f4f36545b600160009054906101000a900473ffffffffffffffffffffffffffffffffffffffff1683604051808373ffffffffffffffffffffffffffffffffffffffff1673ffffffffffffffffffffffffffffffffffffffff1681526020018273ffffffffffffffffffffffffffffffffffffffff1673ffffffffffffffffffffffffffffffffffffffff1681526020019250505060405180910390a181600160006101000a81548173ffffffffffffffffffffffffffffffffffffffff021916908373ffffffffffffffffffffffffffffffffffffffff16021790555060019050919050565b6000809054906101000a900473ffffffffffffffffffffffffffffffffffffffff1681565b60006128c4836128b68487612dc590919063ffffffff16565b612df890919063ffffffff16565b90509392505050565b60056020528060005260406000206000915054906101000a900460ff1681565b60006128f761310b565b60006101206040519081016040528089600060068110151561291557fe5b6020020151815260200189600160068110151561292e57fe5b6020020151815260200189600260068110151561294757fe5b6020020151815260200189600360068110151561296057fe5b6020020151815260200189600460068110151561297957fe5b6020020151815260200189600560068110151561299257fe5b602002015181526020018860006003811015156129ab57fe5b602002015173ffffffffffffffffffffffffffffffffffffffff1681526020018860016003811015156129da57fe5b602002015173ffffffffffffffffffffffffffffffffffffffff168152602001886002600381101515612a0957fe5b602002015173ffffffffffffffffffffffffffffffffffffffff168152509150612a3282612e13565b9050612a4133828888886125ab565b1515612aac577f14301341d034ec3c62a1eabc804a79abf3b8c16e6245e82ec572346aa452fabb60006006811115612a7557fe5b82604051808360ff1660ff16815260200182600019166000191681526020016020019250505060405180910390a160009250612cdc565b8160000151600460008360001916600019168152602001908152602001600020819055508160e001518260c00151604051602001808373ffffffffffffffffffffffffffffffffffffffff1673ffffffffffffffffffffffffffffffffffffffff166c010000000000000000000000000281526014018273ffffffffffffffffffffffffffffffffffffffff1673ffffffffffffffffffffffffffffffffffffffff166c01000000000000000000000000028152601401925050506040516020818303038152906040526040518082805190602001908083835b602083101515612bab5780518252602082019150602081019050602083039250612b86565b6001836020036101000a03801982511681845116808217855250505050505090500191505060405180910390206000191682610100015173ffffffffffffffffffffffffffffffffffffffff167fbfa78175e8dfd3bfda20dd3ae584843e6ec42822f51f553fc12f5d9f908fdb16838560c0015186600001518760e00151886020015189604001518a606001516040518088600019166000191681526020018773ffffffffffffffffffffffffffffffffffffffff1673ffffffffffffffffffffffffffffffffffffffff1681526020018681526020018573ffffffffffffffffffffffffffffffffffffffff1673ffffffffffffffffffffffffffffffffffffffff16815260200184815260200183815260200182815260200197505050505050505060405180910390a3600192505b505095945050505050565b60008090505b8451811015612d8457612d768682815181101515612d0757fe5b906020019060200201518683815181101515612d1f57fe5b906020019060200201518684815181101515612d3757fe5b906020019060200201518685815181101515612d4f57fe5b906020019060200201518686815181101515612d6757fe5b906020019060200201516128ed565b508080600101915050612ced565b505050505050565b6040805190810160405280600581526020017f312e302e3000000000000000000000000000000000000000000000000000000081525081565b60008082840290506000841480612de65750828482811515612de357fe5b04145b1515612dee57fe5b8091505092915050565b6000808284811515612e0657fe5b0490508091505092915050565b6000308261010001518360e001518460c001518560200151866000015187608001518860a0015189604001518a60600151604051602001808b73ffffffffffffffffffffffffffffffffffffffff1673ffffffffffffffffffffffffffffffffffffffff166c010000000000000000000000000281526014018a73ffffffffffffffffffffffffffffffffffffffff1673ffffffffffffffffffffffffffffffffffffffff166c010000000000000000000000000281526014018973ffffffffffffffffffffffffffffffffffffffff1673ffffffffffffffffffffffffffffffffffffffff166c010000000000000000000000000281526014018873ffffffffffffffffffffffffffffffffffffffff1673ffffffffffffffffffffffffffffffffffffffff166c010000000000000000000000000281526014018781526020018681526020018581526020018481526020018381526020018281526020019a50505050505050505050506040516020818303038152906040526040518082805190602001908083835b602083101515612fc35780518252602082019150602081019050602083039250612f9e565b6001836020036101000a03801982511681845116808217855250505050505090500191505060405180910390209050919050565b600081600001518260600151836020015184604001516040516020018085600019166000191681526020018473ffffffffffffffffffffffffffffffffffffffff1673ffffffffffffffffffffffffffffffffffffffff166c010000000000000000000000000281526014018381526020018281526020019450505050506040516020818303038152906040526040518082805190602001908083835b6020831015156130b95780518252602082019150602081019050602083039250613094565b6001836020036101000a03801982511681845116808217855250505050505090500191505060405180910390209050919050565b600080828401905083811015151561310157fe5b8091505092915050565b61012060405190810160405280600081526020016000815260200160008152602001600081526020016000815260200160008152602001600073ffffffffffffffffffffffffffffffffffffffff168152602001600073ffffffffffffffffffffffffffffffffffffffff168152602001600073ffffffffffffffffffffffffffffffffffffffff1681525090565b608060405190810160405280600080191681526020016000815260200160008152602001600073ffffffffffffffffffffffffffffffffffffffff16815250905600a165627a7a723058202213eca344166326be409aae182f08f5427b904e90bff4deaab95be96a6a3bce0029",
  "source": "pragma solidity 0.4.24;\n\nimport './utils/SafeMath.sol';\nimport './utils/Owned.sol';\nimport './interfaces/ERC20.sol';\n\ncontract Exchange is Owned {\n    using SafeMath for uint256;\n\n    enum Errors {\n        SIGNATURE_INVALID,                      // Signature is invalid\n        MAKER_SIGNATURE_INVALID,                // Maker signature is invalid\n        TAKER_SIGNATURE_INVALID,                // Taker signature is invalid\n        ORDER_EXPIRED,                          // Order has already expired\n        TRADE_ALREADY_COMPLETED_OR_CANCELLED,   // Trade has already been completed or it has been cancelled by taker\n        TRADE_AMOUNT_TOO_BIG,                   // Trade buyToken amount bigger than the remianing amountBuy\n        ROUNDING_ERROR_TOO_LARGE                // Rounding error too large\n    }\n\n    string constant public VERSION = \"1.0.0\";\n\n    address public wethToken;\n    address public feeAccount;\n    mapping(address => bool) public operators;\n    mapping(bytes32 => uint) public filled;       // Mappings of orderHash => amount of amountBuy filled.\n    mapping(bytes32 => bool) public traded;       // Mappings of tradeHash => bool value representing whether the trade is completed(true) or incomplete(false).\n\n    event LogWethTokenUpdate(address oldWethToken, address newWethToken);\n    event LogFeeAccountUpdate(address oldFeeAccount, address newFeeAccount);\n    event LogOperatorUpdate(address operator, bool isOperator);\n\n    event LogBatchTrades(\n      address indexed taker,\n      address tokenSell,\n      address tokenBuy,\n      bytes32[] orderHashes,\n      bytes32[] tradeHashes,\n      uint256[] filledAmounts,\n      bytes32 indexed tokenPairHash\n    );\n\n    event LogTrade(\n        address indexed maker,\n        address indexed taker,\n        address tokenSell,\n        address tokenBuy,\n        uint256 filledAmountSell,\n        uint256 filledAmountBuy,\n        uint paidFeeMake,\n        uint paidFeeTake,\n        bytes32 orderHash,\n        bytes32 tradeHash,\n        bytes32 indexed tokenPairHash // keccak256(makerToken, takerToken), allows subscribing to a token pair\n    );\n\n    event LogError(\n        uint8 errorId,\n        bytes32 orderHash,\n        bytes32 tradeHash\n    );\n\n    event LogCancelOrder(\n        bytes32 orderHash,\n        address tokenBuy,\n        uint256 amountBuy,\n        address tokenSell,\n        uint256 amountSell,\n        uint256 expires,\n        uint256 nonce,\n        address indexed maker,\n        bytes32 indexed tokenPairHash // keccak256(makerToken, takerToken), allows subscribing to a token pair\n    );\n\n    event LogCancelTrade(\n        bytes32 orderHash,\n        uint256 amount,\n        uint256 tradeNonce,\n        address indexed taker\n    );\n\n    struct Order {\n        uint256 amountBuy;  // The amount of buy tokens asked in the order\n        uint256 amountSell; // The amount of sell tokens asked in the order\n        uint256 expires;    // The block length after which the order will be considered expired\n        uint256 nonce;      // A maker wise unique incrementing integer value assigned to the order\n        uint256 feeMake;    // It is the maker fee\n        uint256 feeTake;    // It is the taker fee\n        address tokenBuy;   // Ethereum address of the buy token\n        address tokenSell;  // Ethereum address of the sell token\n        address maker;      // Ethereum address of the order maker\n    }\n\n    struct Trade {\n        bytes32 orderHash;  // Keccak-256 hash of the order to which the trade is linked\n        uint256 amount;     // The amount of buy tokens asked in the order\n        uint256 tradeNonce; // A taker wise unique incrementing integer value assigned to the trade\n        address taker;      // Ethereum address of the trade taker\n    }\n\n    modifier onlyOperator {\n        require(msg.sender == owner || operators[msg.sender]);\n        _;\n    }\n\n    constructor(address _wethToken, address _feeAccount) public {\n        wethToken = _wethToken;\n        feeAccount = _feeAccount;\n    }\n\n    /// @dev Sets the address of WETH token.\n    /// @param _wethToken An address to set as WETH token address.\n    /// @return Success on setting WETH token address.\n    function setWethToken(address _wethToken) public onlyOwner returns (bool) {\n        emit LogWethTokenUpdate(wethToken,_wethToken);\n        wethToken = _wethToken;\n        return true;\n    }\n\n    /// @dev Sets the address of fees account.\n    /// @param _feeAccount An address to set as fees account.\n    /// @return Success on setting fees account.\n    function setFeeAccount(address _feeAccount) public onlyOwner returns (bool) {\n        require(_feeAccount != address(0));\n        emit LogFeeAccountUpdate(feeAccount,_feeAccount);\n        feeAccount = _feeAccount;\n        return true;\n    }\n\n    /// @dev Sets or unset's an operator.\n    /// @param _operator The address of operator to set.\n    /// @param _isOperator Bool value indicating whether the address is operator or not.\n    /// @return Success on setting an operator.\n    function setOperator(address _operator, bool _isOperator) public onlyOwner returns (bool) {\n        require(_operator != address(0));\n        emit LogOperatorUpdate(_operator,_isOperator);\n        operators[_operator] = _isOperator;\n        return true;\n    }\n\n    function executeBatchTrades(\n      uint256[8][] orderValues,\n      address[4][] orderAddresses,\n      uint8[2][] memory v,\n      bytes32[4][] memory rs\n    ) public onlyOperator returns (bool)\n    {\n      bytes32[] memory orderHashes = new bytes32[](orderAddresses.length);\n      bytes32[] memory tradeHashes = new bytes32[](orderAddresses.length);\n      uint256[] memory filledAmounts = new uint256[](orderAddresses.length);\n\n      for (uint i = 0; i < orderAddresses.length; i++) {\n        var (orderHash, tradeHash, filledAmount) = executeTrade(\n          orderValues[i],\n          orderAddresses[i],\n          v[i],\n          rs[i]\n        );\n\n        if (filledAmount == 0) {\n          return false;\n        }\n\n        orderHashes[i] = orderHash;\n        tradeHashes[i] = tradeHash;\n        filledAmounts[i] = filledAmount;\n      }\n\n      emit LogBatchTrades(\n        orderAddresses[0][2], //maker\n        orderAddresses[0][1], //tokenSell\n        orderAddresses[0][0], //tokenBuy\n        orderHashes,\n        tradeHashes,\n        filledAmounts,\n        keccak256(abi.encodePacked(orderAddresses[0][1], orderAddresses[0][2]))\n      );\n    }\n\n    /*\n    * Core exchange functions\n    */\n\n\n    /// @dev Executes a trade between maker & taker.\n    /// @param orderValues Array of order's amountBuy, amountSell, expires, nonce, feeMake & feeTake values.\n    /// @param orderAddresses Array of order's tokenBuy, tokenSell, maker & taker addresses.\n    /// @param v Array of maker's & taker's ECDSA signature parameter v for order & trade.\n    ///         v[0] is v parameter of the maker's signature\n    ///         v[1] is v parameter of the taker's signature\n    /// @param rs Array of maker's & taker's ECDSA signature parameter r & s for order & trade.\n    ///         rs[0] is r parameter of the maker's signature\n    ///         rs[1] is s parameter of the maker's signature\n    ///         rs[2] is r parameter of the taker's signature\n    ///         rs[3] is s parameter of the taker's signature\n    /// @return Success or failure of trade execution.\n    function executeTrade(\n        uint256[8] orderValues,\n        address[4] orderAddresses,\n        uint8[2] memory v,\n        bytes32[4] memory rs\n    ) public onlyOperator returns (bytes32, bytes32, uint256)\n    {\n        Order memory order = Order({\n            amountBuy : orderValues[0],\n            amountSell : orderValues[1],\n            expires : orderValues[2],\n            nonce : orderValues[3],\n            feeMake : orderValues[4],\n            feeTake : orderValues[5],\n            tokenBuy : orderAddresses[0],\n            tokenSell : orderAddresses[1],\n            maker : orderAddresses[2]\n        });\n\n        bytes32 orderHash = getOrderHash(order);\n\n        Trade memory trade = Trade({\n            orderHash : orderHash,\n            amount : orderValues[6],\n            tradeNonce : orderValues[7],\n            taker : orderAddresses[3]\n        });\n\n        bytes32 tradeHash = getTradeHash(trade);\n\n        if (!isValidSignature(order.maker, orderHash, v[0], rs[0], rs[1])) {\n            emit LogError(uint8(Errors.MAKER_SIGNATURE_INVALID), orderHash, tradeHash);\n            return (orderHash, tradeHash, 0);\n        }\n\n        if (!isValidSignature(trade.taker, tradeHash, v[1], rs[2], rs[3])) {\n            emit LogError(uint8(Errors.TAKER_SIGNATURE_INVALID), orderHash, tradeHash);\n            return (orderHash, tradeHash, 0);\n        }\n\n        if (order.expires < block.number) {\n            emit LogError(uint8(Errors.ORDER_EXPIRED), orderHash, tradeHash);\n            return (orderHash, tradeHash, 0);\n        }\n\n        if (traded[tradeHash]) {\n            emit LogError(uint8(Errors.TRADE_ALREADY_COMPLETED_OR_CANCELLED), orderHash, tradeHash);\n            return (orderHash, tradeHash, 0);\n        }\n\n        if (filled[orderHash].add(trade.amount) > order.amountBuy) {\n            emit LogError(uint8(Errors.TRADE_AMOUNT_TOO_BIG), orderHash, tradeHash);\n            return (orderHash, tradeHash, 0);\n        }\n\n        if (isRoundingError(trade.amount, order.amountBuy, order.amountSell)) {\n            emit LogError(uint8(Errors.ROUNDING_ERROR_TOO_LARGE), orderHash, tradeHash);\n            return (orderHash, tradeHash, 0);\n        }\n\n        traded[tradeHash] = true;\n        uint filledAmountSell = getPartialAmount(trade.amount, order.amountBuy, order.amountSell);\n\n        filled[orderHash] = filled[orderHash].add(trade.amount);\n\n        require(ERC20(order.tokenSell).transferFrom(order.maker, trade.taker, filledAmountSell));\n        require(ERC20(order.tokenBuy).transferFrom(trade.taker, order.maker, trade.amount));\n\n        // if (order.feeMake > 0) {\n        //   require(ERC20(wethToken).transferFrom(order.maker, feeAccount, feeMake));\n        // }\n\n        // if (order.feeTake > 0) {\n        //   require(ERC20(wethToken).transferFrom(trade.taker, feeAccount, feeTake));\n        // }\n\n        // uint paidFeeMake = getPartialAmount(trade.amount, order.amountBuy, order.feeMake);\n            // require(ERC20(wethToken).transferFrom(order.maker, feeAccount, paidFeeMake));\n        // }\n        // if (order.feeTake > 0) {\n        //     uint paidFeeTake = getPartialAmount(trade.amount, order.amountBuy, order.feeTake);\n        //     require(ERC20(wethToken).transferFrom(trade.taker, feeAccount, paidFeeTake));\n        // }\n\n        // emit LogTrade(\n        //     order.maker,\n        //     trade.taker,\n        //     order.tokenSell,\n        //     order.tokenBuy,\n        //     filledAmountSell,\n        //     trade.amount,\n        //     paidFeeMake,\n        //     paidFeeTake,\n        //     orderHash,\n        //     tradeHash,\n        //     keccak256(abi.encodePacked(order.tokenSell, order.tokenBuy)));\n\n        return (orderHash, tradeHash, trade.amount);\n    }\n\n\n\n\n    function batchCancelOrders(\n      uint256[6][] orderValues,\n      address[3][] orderAddresses,\n      uint8[] v,\n      bytes32[] r,\n      bytes32[] s\n    ) public\n    {\n      for (uint i = 0; i < orderAddresses.length; i++) {\n        cancelOrder(\n          orderValues[i],\n          orderAddresses[i],\n          v[i],\n          r[i],\n          s[i]\n        );\n      }\n    }\n\n    /// @dev Cancels the input order.\n    /// @param orderValues Array of order's amountBuy, amountSell, expires, nonce, feeMake & feeTake values.\n    /// @param orderAddresses Array of order's tokenBuy, tokenSell & maker addresses.\n    /// @param v ECDSA signature parameter v.\n    /// @param r ECDSA signature parameters r.\n    /// @param s ECDSA signature parameters s.\n    /// @return Success or failure of order cancellation.\n    function cancelOrder(\n        uint256[6] orderValues,\n        address[3] orderAddresses,\n        uint8 v,\n        bytes32 r,\n        bytes32 s\n    ) public returns (bool)\n    {\n        Order memory order = Order({\n            amountBuy : orderValues[0],\n            amountSell : orderValues[1],\n            expires : orderValues[2],\n            nonce : orderValues[3],\n            feeMake : orderValues[4],\n            feeTake : orderValues[5],\n            tokenBuy : orderAddresses[0],\n            tokenSell : orderAddresses[1],\n            maker : orderAddresses[2]\n            });\n\n        bytes32 orderHash = getOrderHash(order);\n\n        if (!isValidSignature(msg.sender, orderHash, v, r, s)) {\n            emit LogError(uint8(Errors.SIGNATURE_INVALID), orderHash, \"\");\n            return false;\n        }\n        filled[orderHash] = order.amountBuy;\n\n        emit LogCancelOrder(\n            orderHash,\n            order.tokenBuy,\n            order.amountBuy,\n            order.tokenSell,\n            order.amountSell,\n            order.expires,\n            order.nonce,\n            order.maker,\n            keccak256(abi.encodePacked(order.tokenSell, order.tokenBuy)));\n        return true;\n    }\n\n\n    function batchCancelTrades(\n      bytes32[] orderHash,\n      uint256[] amount,\n      uint256[] tradeNonce,\n      address[] taker,\n      uint8[] v,\n      bytes32[] r,\n      bytes32[] s\n    ) public\n    {\n      for (uint i = 0; i < orderHash.length; i++) {\n        cancelTrade(\n          orderHash[i],\n          amount[i],\n          tradeNonce[i],\n          taker[i],\n          v[i],\n          r[i],\n          s[i]\n        );\n      }\n    }\n\n\n\n\n    /// @dev Cancels the input trade.\n    /// @param orderHash Keccak-256 hash of order.\n    /// @param amount Desired amount of takerToken that was to be filled in trade.\n    /// @param taker Address of the taker.\n    /// @param tradeNonce Trade nonce that was used in the trade.\n    /// @param v ECDSA signature parameter v.\n    /// @param r ECDSA signature parameters r.\n    /// @param s ECDSA signature parameters s.\n    /// @return Success or failure of trade cancellation.\n    function cancelTrade(\n        bytes32 orderHash,\n        uint256 amount,\n        uint256 tradeNonce,\n        address taker,\n        uint8 v,\n        bytes32 r,\n        bytes32 s)\n    public\n    returns (bool)\n    {\n        Trade memory trade = Trade({\n            orderHash : orderHash,\n            amount : amount,\n            tradeNonce : tradeNonce,\n            taker : taker\n            });\n\n        bytes32 tradeHash = getTradeHash(trade);\n\n        if (!isValidSignature(msg.sender, tradeHash, v, r, s)) {\n            emit LogError(uint8(Errors.SIGNATURE_INVALID), \"\", tradeHash);\n            return false;\n        }\n        traded[tradeHash] = true;\n\n        emit LogCancelTrade(orderHash, amount, tradeNonce, taker);\n        return true;\n    }\n\n    /*\n    * Pure public functions\n    */\n\n    /// @dev Verifies that a signature is valid.\n    /// @param signer address of signer.\n    /// @param hash Signed Keccak-256 hash.\n    /// @param v ECDSA signature parameter v.\n    /// @param r ECDSA signature parameters r.\n    /// @param s ECDSA signature parameters s.\n    /// @return Validity of order signature.\n    function isValidSignature(\n        address signer,\n        bytes32 hash,\n        uint8 v,\n        bytes32 r,\n        bytes32 s)\n    public\n    pure\n    returns (bool)\n    {\n        return signer == ecrecover(\n            keccak256(abi.encodePacked(\"\\x19Ethereum Signed Message:\\n32\", hash)),\n            v,\n            r,\n            s\n        );\n    }\n\n    /// @dev Checks if rounding error > 0.1%.\n    /// @param numerator Numerator.\n    /// @param denominator Denominator.\n    /// @param target Value to multiply with numerator/denominator.\n    /// @return Rounding error is present.\n    function isRoundingError(uint numerator, uint denominator, uint target)\n    public\n    pure\n    returns (bool)\n    {\n        uint remainder = mulmod(target, numerator, denominator);\n        if (remainder == 0) return false;\n        // No rounding error.\n\n        uint errPercentageTimes1000000 = (remainder.mul(1000000)).div(numerator.mul(target));\n        return errPercentageTimes1000000 > 1000;\n    }\n\n    /// @dev Calculates partial value given a numerator and denominator.\n    /// @param numerator Numerator.\n    /// @param denominator Denominator.\n    /// @param target Value to calculate partial of.\n    /// @return Partial value of target.\n    function getPartialAmount(uint numerator, uint denominator, uint target)\n    public\n    pure\n    returns (uint)\n    {\n        return (numerator.mul(target)).div(denominator);\n    }\n\n\n    /*\n    *   Internal functions\n    */\n\n\n    /// @dev Calculates Keccak-256 hash of order.\n    /// @param order Order that will be hased.\n    /// @return Keccak-256 hash of order.\n    function getOrderHash(Order order)\n    internal\n    view\n    returns (bytes32)\n    {\n        return keccak256(abi.encodePacked(\n                address(this),\n                order.maker,\n                order.tokenSell,\n                order.tokenBuy,\n                order.amountSell,\n                order.amountBuy,\n                order.feeMake,\n                order.feeTake,\n                order.expires,\n                order.nonce\n            ));\n    }\n\n    /// @dev Calculates Keccak-256 hash of trade.\n    /// @param trade Trade that will be hashed.\n    /// @return Keccak-256 hash of trade.\n    function getTradeHash(Trade trade)\n    internal\n    pure\n    returns (bytes32)\n    {\n        return keccak256(abi.encodePacked(\n                trade.orderHash,\n                trade.taker,\n                trade.amount,\n                trade.tradeNonce\n            ));\n    }\n\n}",
  "sourcePath": "/Users/davidvanisacker/Programming/Ethereum/Proofsuite/amp-dex/contracts/Exchange.sol",
  "compiler": {
    "name": "solc",
    "version": "0.4.24+commit.e67f0147.Emscripten.clang"
  },
  "schemaVersion": "2.0.1",
  "updatedAt": "2018-11-03T12:44:43.309Z"
}