{
  "contractName": "Exchange",
  "abi": [
    {
      "constant": true,
      "inputs": [],
      "name": "rewardAccount",
      "outputs": [
        {
          "name": "",
          "type": "address"
        }
      ],
      "payable": false,
      "stateMutability": "view",
      "type": "function"
    },
    {
      "constant": false,
      "inputs": [
        {
          "name": "newOwner",
          "type": "address"
        }
      ],
      "name": "setOwner",
      "outputs": [],
      "payable": false,
      "stateMutability": "nonpayable",
      "type": "function"
    },
    {
      "constant": true,
      "inputs": [
        {
          "name": "",
          "type": "address"
        }
      ],
      "name": "operators",
      "outputs": [
        {
          "name": "",
          "type": "bool"
        }
      ],
      "payable": false,
      "stateMutability": "view",
      "type": "function"
    },
    {
      "constant": true,
      "inputs": [
        {
          "name": "",
          "type": "bytes32"
        }
      ],
      "name": "filled",
      "outputs": [
        {
          "name": "",
          "type": "uint256"
        }
      ],
      "payable": false,
      "stateMutability": "view",
      "type": "function"
    },
    {
      "constant": true,
      "inputs": [
        {
          "name": "",
          "type": "bytes32"
        }
      ],
      "name": "pairs",
      "outputs": [
        {
          "name": "pairID",
          "type": "bytes32"
        },
        {
          "name": "baseToken",
          "type": "address"
        },
        {
          "name": "quoteToken",
          "type": "address"
        },
        {
          "name": "pairMultiplier",
          "type": "uint256"
        }
      ],
      "payable": false,
      "stateMutability": "view",
      "type": "function"
    },
    {
      "constant": true,
      "inputs": [],
      "name": "owner",
      "outputs": [
        {
          "name": "",
          "type": "address"
        }
      ],
      "payable": false,
      "stateMutability": "view",
      "type": "function"
    },
    {
      "constant": true,
      "inputs": [
        {
          "name": "",
          "type": "bytes32"
        }
      ],
      "name": "traded",
      "outputs": [
        {
          "name": "",
          "type": "bool"
        }
      ],
      "payable": false,
      "stateMutability": "view",
      "type": "function"
    },
    {
      "constant": true,
      "inputs": [],
      "name": "VERSION",
      "outputs": [
        {
          "name": "",
          "type": "string"
        }
      ],
      "payable": false,
      "stateMutability": "view",
      "type": "function"
    },
    {
      "inputs": [
        {
          "name": "_rewardAccount",
          "type": "address"
        }
      ],
      "payable": false,
      "stateMutability": "nonpayable",
      "type": "constructor"
    },
    {
      "anonymous": false,
      "inputs": [
        {
          "indexed": false,
          "name": "oldRewardAccount",
          "type": "address"
        },
        {
          "indexed": false,
          "name": "newRewardAccount",
          "type": "address"
        }
      ],
      "name": "LogRewardAccountUpdate",
      "type": "event"
    },
    {
      "anonymous": false,
      "inputs": [
        {
          "indexed": false,
          "name": "operator",
          "type": "address"
        },
        {
          "indexed": false,
          "name": "isOperator",
          "type": "bool"
        }
      ],
      "name": "LogOperatorUpdate",
      "type": "event"
    },
    {
      "anonymous": false,
      "inputs": [
        {
          "indexed": false,
          "name": "makerOrderHashes",
          "type": "bytes32[]"
        },
        {
          "indexed": false,
          "name": "takerOrderHashes",
          "type": "bytes32[]"
        },
        {
          "indexed": true,
          "name": "tokenPairHash",
          "type": "bytes32"
        }
      ],
      "name": "LogBatchTrades",
      "type": "event"
    },
    {
      "anonymous": false,
      "inputs": [
        {
          "indexed": true,
          "name": "maker",
          "type": "address"
        },
        {
          "indexed": true,
          "name": "taker",
          "type": "address"
        },
        {
          "indexed": false,
          "name": "tokenSell",
          "type": "address"
        },
        {
          "indexed": false,
          "name": "tokenBuy",
          "type": "address"
        },
        {
          "indexed": false,
          "name": "filledAmountSell",
          "type": "uint256"
        },
        {
          "indexed": false,
          "name": "filledAmountBuy",
          "type": "uint256"
        },
        {
          "indexed": false,
          "name": "paidFeeMake",
          "type": "uint256"
        },
        {
          "indexed": false,
          "name": "paidFeeTake",
          "type": "uint256"
        },
        {
          "indexed": false,
          "name": "orderHash",
          "type": "bytes32"
        },
        {
          "indexed": false,
          "name": "tradeHash",
          "type": "bytes32"
        },
        {
          "indexed": true,
          "name": "tokenPairHash",
          "type": "bytes32"
        }
      ],
      "name": "LogTrade",
      "type": "event"
    },
    {
      "anonymous": false,
      "inputs": [
        {
          "indexed": false,
          "name": "errorId",
          "type": "uint8"
        },
        {
          "indexed": false,
          "name": "makerOrderHash",
          "type": "bytes32"
        },
        {
          "indexed": false,
          "name": "takerOrderHash",
          "type": "bytes32"
        }
      ],
      "name": "LogError",
      "type": "event"
    },
    {
      "anonymous": false,
      "inputs": [
        {
          "indexed": false,
          "name": "orderHash",
          "type": "bytes32"
        },
        {
          "indexed": false,
          "name": "userAddress",
          "type": "address"
        },
        {
          "indexed": false,
          "name": "baseToken",
          "type": "address"
        },
        {
          "indexed": false,
          "name": "quoteToken",
          "type": "address"
        },
        {
          "indexed": false,
          "name": "amount",
          "type": "uint256"
        },
        {
          "indexed": false,
          "name": "pricepoint",
          "type": "uint256"
        },
        {
          "indexed": false,
          "name": "side",
          "type": "uint256"
        }
      ],
      "name": "LogCancelOrder",
      "type": "event"
    },
    {
      "anonymous": false,
      "inputs": [
        {
          "indexed": true,
          "name": "previousOwner",
          "type": "address"
        },
        {
          "indexed": true,
          "name": "newOwner",
          "type": "address"
        }
      ],
      "name": "SetOwner",
      "type": "event"
    },
    {
      "constant": false,
      "inputs": [
        {
          "name": "_rewardAccount",
          "type": "address"
        }
      ],
      "name": "setRewardAccount",
      "outputs": [
        {
          "name": "",
          "type": "bool"
        }
      ],
      "payable": false,
      "stateMutability": "nonpayable",
      "type": "function"
    },
    {
      "constant": false,
      "inputs": [
        {
          "name": "_operator",
          "type": "address"
        },
        {
          "name": "_isOperator",
          "type": "bool"
        }
      ],
      "name": "setOperator",
      "outputs": [
        {
          "name": "",
          "type": "bool"
        }
      ],
      "payable": false,
      "stateMutability": "nonpayable",
      "type": "function"
    },
    {
      "constant": false,
      "inputs": [
        {
          "name": "orderValues",
          "type": "uint256[10][]"
        },
        {
          "name": "orderAddresses",
          "type": "address[4][]"
        },
        {
          "name": "amounts",
          "type": "uint256[]"
        },
        {
          "name": "v",
          "type": "uint8[2][]"
        },
        {
          "name": "rs",
          "type": "bytes32[4][]"
        }
      ],
      "name": "executeBatchTrades",
      "outputs": [
        {
          "name": "",
          "type": "bool"
        }
      ],
      "payable": false,
      "stateMutability": "nonpayable",
      "type": "function"
    },
    {
      "constant": false,
      "inputs": [
        {
          "name": "orderValues",
          "type": "uint256[10]"
        },
        {
          "name": "orderAddresses",
          "type": "address[4]"
        },
        {
          "name": "amount",
          "type": "uint256"
        },
        {
          "name": "v",
          "type": "uint8[2]"
        },
        {
          "name": "rs",
          "type": "bytes32[4]"
        }
      ],
      "name": "executeSingleTrade",
      "outputs": [
        {
          "name": "",
          "type": "bool"
        }
      ],
      "payable": false,
      "stateMutability": "nonpayable",
      "type": "function"
    },
    {
      "constant": false,
      "inputs": [
        {
          "name": "orderValues",
          "type": "uint256[10]"
        },
        {
          "name": "orderAddresses",
          "type": "address[4]"
        },
        {
          "name": "v",
          "type": "uint8[2]"
        },
        {
          "name": "rs",
          "type": "bytes32[4]"
        }
      ],
      "name": "validateSignatures",
      "outputs": [
        {
          "name": "",
          "type": "bool"
        }
      ],
      "payable": false,
      "stateMutability": "nonpayable",
      "type": "function"
    },
    {
      "constant": false,
      "inputs": [
        {
          "name": "orderValues",
          "type": "uint256[10]"
        },
        {
          "name": "orderAddresses",
          "type": "address[4]"
        },
        {
          "name": "amount",
          "type": "uint256"
        }
      ],
      "name": "executeTrade",
      "outputs": [
        {
          "name": "",
          "type": "bytes32"
        },
        {
          "name": "",
          "type": "bytes32"
        },
        {
          "name": "",
          "type": "bool"
        }
      ],
      "payable": false,
      "stateMutability": "nonpayable",
      "type": "function"
    },
    {
      "constant": false,
      "inputs": [
        {
          "name": "orderValues",
          "type": "uint256[6][]"
        },
        {
          "name": "orderAddresses",
          "type": "address[3][]"
        },
        {
          "name": "v",
          "type": "uint8[]"
        },
        {
          "name": "r",
          "type": "bytes32[]"
        },
        {
          "name": "s",
          "type": "bytes32[]"
        }
      ],
      "name": "batchCancelOrders",
      "outputs": [],
      "payable": false,
      "stateMutability": "nonpayable",
      "type": "function"
    },
    {
      "constant": false,
      "inputs": [
        {
          "name": "orderValues",
          "type": "uint256[6]"
        },
        {
          "name": "orderAddresses",
          "type": "address[3]"
        },
        {
          "name": "v",
          "type": "uint8"
        },
        {
          "name": "r",
          "type": "bytes32"
        },
        {
          "name": "s",
          "type": "bytes32"
        }
      ],
      "name": "cancelOrder",
      "outputs": [
        {
          "name": "",
          "type": "bool"
        }
      ],
      "payable": false,
      "stateMutability": "nonpayable",
      "type": "function"
    },
    {
      "constant": true,
      "inputs": [
        {
          "name": "signer",
          "type": "address"
        },
        {
          "name": "hash",
          "type": "bytes32"
        },
        {
          "name": "v",
          "type": "uint8"
        },
        {
          "name": "r",
          "type": "bytes32"
        },
        {
          "name": "s",
          "type": "bytes32"
        }
      ],
      "name": "isValidSignature",
      "outputs": [
        {
          "name": "",
          "type": "bool"
        }
      ],
      "payable": false,
      "stateMutability": "pure",
      "type": "function"
    },
    {
      "constant": true,
      "inputs": [
        {
          "name": "numerator",
          "type": "uint256"
        },
        {
          "name": "denominator",
          "type": "uint256"
        },
        {
          "name": "target",
          "type": "uint256"
        }
      ],
      "name": "isRoundingError",
      "outputs": [
        {
          "name": "",
          "type": "bool"
        }
      ],
      "payable": false,
      "stateMutability": "pure",
      "type": "function"
    },
    {
      "constant": true,
      "inputs": [
        {
          "name": "numerator",
          "type": "uint256"
        },
        {
          "name": "denominator",
          "type": "uint256"
        },
        {
          "name": "target",
          "type": "uint256"
        }
      ],
      "name": "getPartialAmount",
      "outputs": [
        {
          "name": "",
          "type": "uint256"
        }
      ],
      "payable": false,
      "stateMutability": "pure",
      "type": "function"
    },
    {
      "constant": false,
      "inputs": [
        {
          "name": "orderAddresses",
          "type": "address[4]"
        },
        {
          "name": "makerOrderHashes",
          "type": "bytes32[]"
        },
        {
          "name": "takerOrderHashes",
          "type": "bytes32[]"
        }
      ],
      "name": "emitLog",
      "outputs": [],
      "payable": false,
      "stateMutability": "nonpayable",
      "type": "function"
    }
  ],
  "bytecode": "0x608060405234801561001057600080fd5b50604051602080613ab783398101806040528101908080519060200190929190505050336000806101000a81548173ffffffffffffffffffffffffffffffffffffffff021916908373ffffffffffffffffffffffffffffffffffffffff16021790555080600160006101000a81548173ffffffffffffffffffffffffffffffffffffffff021916908373ffffffffffffffffffffffffffffffffffffffff160217905550506139f3806100c46000396000f300608060405260043610610112576000357c0100000000000000000000000000000000000000000000000000000000900463ffffffff1680630e7082031461011757806310ac00d81461016e57806313af40351461027057806313e7c9d8146102b357806314df96ee1461030e5780631778baf414610367578063288cdc911461045f5780632aead84d146104a45780635171267f14610566578063558a7297146107e1578063673e0481146108485780638163681e146109025780638da5cb5b1461099457806393c1ae09146109eb57806398024a8b14610ac3578063a42f88b514610b18578063d581332314610b73578063d9a72b5214610bbc578063e51ad32d14610c7e578063ffa1ad7414610e68575b600080fd5b34801561012357600080fd5b5061012c610ef8565b604051808273ffffffffffffffffffffffffffffffffffffffff1673ffffffffffffffffffffffffffffffffffffffff16815260200191505060405180910390f35b34801561017a57600080fd5b50610256600480360381019080806101400190600a806020026040519081016040528092919082600a602002808284378201915050505050919291929080608001906004806020026040519081016040528092919082600460200280828437820191505050505091929192908035906020019092919080604001906002806020026040519081016040528092919082600260200280828437820191505050505091929192908060800190600480602002604051908101604052809291908260046020028082843782019150505050509192919290505050610f1e565b604051808215151515815260200191505060405180910390f35b34801561027c57600080fd5b506102b1600480360381019080803573ffffffffffffffffffffffffffffffffffffffff169060200190929190505050611013565b005b3480156102bf57600080fd5b506102f4600480360381019080803573ffffffffffffffffffffffffffffffffffffffff16906020019092919050505061112c565b604051808215151515815260200191505060405180910390f35b34801561031a57600080fd5b5061034d60048036038101908080359060200190929190803590602001909291908035906020019092919050505061114c565b604051808215151515815260200191505060405180910390f35b34801561037357600080fd5b50610445600480360381019080806101400190600a806020026040519081016040528092919082600a60200280828437820191505050505091929192908060800190600480602002604051908101604052809291908260046020028082843782019150505050509192919290806040019060028060200260405190810160405280929190826002602002808284378201915050505050919291929080608001906004806020026040519081016040528092919082600460200280828437820191505050505091929192905050506111bf565b604051808215151515815260200191505060405180910390f35b34801561046b57600080fd5b5061048e60048036038101908080356000191690602001909291905050506115df565b6040518082815260200191505060405180910390f35b3480156104b057600080fd5b5061052e600480360381019080806101400190600a806020026040519081016040528092919082600a60200280828437820191505050505091929192908060800190600480602002604051908101604052809291908260046020028082843782019150505050509192919290803590602001909291905050506115f7565b604051808460001916600019168152602001836000191660001916815260200182151515158152602001935050505060405180910390f35b34801561057257600080fd5b506107c760048036038101908080359060200190820180359060200190808060200260200160405190810160405280939291908181526020016000905b828210156105f55784848390506101400201600a806020026040519081016040528092919082600a602002808284378201915050505050815260200190600101906105af565b5050505050919291929080359060200190820180359060200190808060200260200160405190810160405280939291908181526020016000905b8282101561067457848483905060800201600480602002604051908101604052809291908260046020028082843782019150505050508152602001906001019061062f565b505050505091929192908035906020019082018035906020019080806020026020016040519081016040528093929190818152602001838360200280828437820191505050505050919291929080359060200190820180359060200190808060200260200160405190810160405280939291908181526020016000905b828210156107365784848390506040020160028060200260405190810160405280929190826002602002808284378201915050505050815260200190600101906106f1565b5050505050919291929080359060200190820180359060200190808060200260200160405190810160405280939291908181526020016000905b828210156107b5578484839050608002016004806020026040519081016040528092919082600460200280828437820191505050505081526020019060010190610770565b50505050509192919290505050612545565b604051808215151515815260200191505060405180910390f35b3480156107ed57600080fd5b5061082e600480360381019080803573ffffffffffffffffffffffffffffffffffffffff169060200190929190803515159060200190929190505050612817565b604051808215151515815260200191505060405180910390f35b34801561085457600080fd5b506108776004803603810190808035600019169060200190929190505050612980565b6040518085600019166000191681526020018473ffffffffffffffffffffffffffffffffffffffff1673ffffffffffffffffffffffffffffffffffffffff1681526020018373ffffffffffffffffffffffffffffffffffffffff1673ffffffffffffffffffffffffffffffffffffffff16815260200182815260200194505050505060405180910390f35b34801561090e57600080fd5b5061097a600480360381019080803573ffffffffffffffffffffffffffffffffffffffff1690602001909291908035600019169060200190929190803560ff169060200190929190803560001916906020019092919080356000191690602001909291905050506129f0565b604051808215151515815260200191505060405180910390f35b3480156109a057600080fd5b506109a9612b5d565b604051808273ffffffffffffffffffffffffffffffffffffffff1673ffffffffffffffffffffffffffffffffffffffff16815260200191505060405180910390f35b3480156109f757600080fd5b50610ac160048036038101908080608001906004806020026040519081016040528092919082600460200280828437820191505050505091929192908035906020019082018035906020019080806020026020016040519081016040528093929190818152602001838360200280828437820191505050505050919291929080359060200190820180359060200190808060200260200160405190810160405280939291908181526020018383602002808284378201915050505050509192919290505050612b82565b005b348015610acf57600080fd5b50610b02600480360381019080803590602001909291908035906020019092919080359060200190929190505050612d72565b6040518082815260200191505060405180910390f35b348015610b2457600080fd5b50610b59600480360381019080803573ffffffffffffffffffffffffffffffffffffffff169060200190929190505050612da2565b604051808215151515815260200191505060405180910390f35b348015610b7f57600080fd5b50610ba26004803603810190808035600019169060200190929190505050612f3e565b604051808215151515815260200191505060405180910390f35b348015610bc857600080fd5b50610c646004803603810190808060c001906006806020026040519081016040528092919082600660200280828437820191505050505091929192908060600190600380602002604051908101604052809291908260036020028082843782019150505050509192919290803560ff16906020019092919080356000191690602001909291908035600019169060200190929190505050612f5e565b604051808215151515815260200191505060405180910390f35b348015610c8a57600080fd5b50610e6660048036038101908080359060200190820180359060200190808060200260200160405190810160405280939291908181526020016000905b82821015610d0c57848483905060c002016006806020026040519081016040528092919082600660200280828437820191505050505081526020019060010190610cc7565b5050505050919291929080359060200190820180359060200190808060200260200160405190810160405280939291908181526020016000905b82821015610d8b578484839050606002016003806020026040519081016040528092919082600360200280828437820191505050505081526020019060010190610d46565b5050505050919291929080359060200190820180359060200190808060200260200160405190810160405280939291908181526020018383602002808284378201915050505050509192919290803590602001908201803590602001908080602002602001604051908101604052809392919081815260200183836020028082843782019150505050505091929192908035906020019082018035906020019080806020026020016040519081016040528093929190818152602001838360200280828437820191505050505050919291929050505061325c565b005b348015610e7457600080fd5b50610e7d613301565b6040518080602001828103825283818151815260200191508051906020019080838360005b83811015610ebd578082015181840152602081019050610ea2565b50505050905090810190601f168015610eea5780820380516001836020036101000a031916815260200191505b509250505060405180910390f35b600160009054906101000a900473ffffffffffffffffffffffffffffffffffffffff1681565b6000806000809054906101000a900473ffffffffffffffffffffffffffffffffffffffff1673ffffffffffffffffffffffffffffffffffffffff163373ffffffffffffffffffffffffffffffffffffffff161480610fc55750600260003373ffffffffffffffffffffffffffffffffffffffff1673ffffffffffffffffffffffffffffffffffffffff16815260200190815260200160002060009054906101000a900460ff165b1515610fd057600080fd5b610fdc878786866111bf565b9050801515610fee5760009150611009565b610ff98787876115f7565b50505061100787878761333a565b505b5095945050505050565b6000809054906101000a900473ffffffffffffffffffffffffffffffffffffffff1673ffffffffffffffffffffffffffffffffffffffff163373ffffffffffffffffffffffffffffffffffffffff1614151561106e57600080fd5b8073ffffffffffffffffffffffffffffffffffffffff166000809054906101000a900473ffffffffffffffffffffffffffffffffffffffff1673ffffffffffffffffffffffffffffffffffffffff167fcbf985117192c8f614a58aaf97226bb80a754772f5f6edf06f87c675f2e6c66360405160405180910390a3806000806101000a81548173ffffffffffffffffffffffffffffffffffffffff021916908373ffffffffffffffffffffffffffffffffffffffff16021790555050565b60026020528060005260406000206000915054906101000a900460ff1681565b60008060008480151561115b57fe5b8685099150600082141561117257600092506111b6565b6111ac61118885886134f390919063ffffffff16565b61119e620f4240856134f390919063ffffffff16565b61352690919063ffffffff16565b90506103e8811192505b50509392505050565b60006111c9613938565b6111d1613938565b600080610120604051908101604052808960006004811015156111f057fe5b602002015173ffffffffffffffffffffffffffffffffffffffff16815260200189600260048110151561121f57fe5b602002015173ffffffffffffffffffffffffffffffffffffffff16815260200189600360048110151561124e57fe5b602002015173ffffffffffffffffffffffffffffffffffffffff1681526020018a6000600a8110151561127d57fe5b602002015181526020018a6001600a8110151561129657fe5b602002015181526020018a6002600a811015156112af57fe5b602002015181526020018a6003600a811015156112c857fe5b602002015181526020018a6008600a811015156112e157fe5b602002015181526020018a6009600a811015156112fa57fe5b602002015181525093506101206040519081016040528089600160048110151561132057fe5b602002015173ffffffffffffffffffffffffffffffffffffffff16815260200189600260048110151561134f57fe5b602002015173ffffffffffffffffffffffffffffffffffffffff16815260200189600360048110151561137e57fe5b602002015173ffffffffffffffffffffffffffffffffffffffff1681526020018a6004600a811015156113ad57fe5b602002015181526020018a6005600a811015156113c657fe5b602002015181526020018a6006600a811015156113df57fe5b602002015181526020018a6007600a811015156113f857fe5b602002015181526020018a6009600a8110151561141157fe5b602002015181526020018a6008600a8110151561142a57fe5b6020020151815250925061143d84613541565b915061144883613541565b905061149484600001518389600060028110151561146257fe5b602002015189600060048110151561147657fe5b60200201518a600160048110151561148a57fe5b60200201516129f0565b151561150c577f14301341d034ec3c62a1eabc804a79abf3b8c16e6245e82ec572346aa452fabb600160088111156114c857fe5b8383604051808460ff1660ff16815260200183600019166000191681526020018260001916600019168152602001935050505060405180910390a1600094506115d3565b61155683600001518289600160028110151561152457fe5b602002015189600260048110151561153857fe5b60200201518a600360048110151561154c57fe5b60200201516129f0565b15156115ce577f14301341d034ec3c62a1eabc804a79abf3b8c16e6245e82ec572346aa452fabb6002600881111561158a57fe5b8383604051808460ff1660ff16815260200183600019166000191681526020018260001916600019168152602001935050505060405180910390a1600094506115d3565b600194505b50505050949350505050565b60036020528060005260406000206000915090505481565b6000806000611604613938565b61160c613938565b6000806000806000806000809054906101000a900473ffffffffffffffffffffffffffffffffffffffff1673ffffffffffffffffffffffffffffffffffffffff163373ffffffffffffffffffffffffffffffffffffffff1614806116b95750600260003373ffffffffffffffffffffffffffffffffffffffff1673ffffffffffffffffffffffffffffffffffffffff16815260200190815260200160002060009054906101000a900460ff165b15156116c457600080fd5b610120604051908101604052808e60006004811015156116e057fe5b602002015173ffffffffffffffffffffffffffffffffffffffff1681526020018e600260048110151561170f57fe5b602002015173ffffffffffffffffffffffffffffffffffffffff1681526020018e600360048110151561173e57fe5b602002015173ffffffffffffffffffffffffffffffffffffffff1681526020018f6000600a8110151561176d57fe5b602002015181526020018f6001600a8110151561178657fe5b602002015181526020018f6002600a8110151561179f57fe5b602002015181526020018f6003600a811015156117b857fe5b602002015181526020018f6008600a811015156117d157fe5b602002015181526020018f6009600a811015156117ea57fe5b60200201518152509750610120604051908101604052808e600160048110151561181057fe5b602002015173ffffffffffffffffffffffffffffffffffffffff1681526020018e600260048110151561183f57fe5b602002015173ffffffffffffffffffffffffffffffffffffffff1681526020018e600360048110151561186e57fe5b602002015173ffffffffffffffffffffffffffffffffffffffff1681526020018f6004600a8110151561189d57fe5b602002015181526020018f6005600a811015156118b657fe5b602002015181526020018f6006600a811015156118cf57fe5b602002015181526020018f6007600a811015156118e857fe5b602002015181526020018f6009600a8110151561190157fe5b602002015181526020018f6008600a8110151561191a57fe5b6020020151815250965061192d88613541565b955061193887613541565b9450876060015161196d8d600360008a600019166000191681526020019081526020016000205461372590919063ffffffff16565b11156119eb577f14301341d034ec3c62a1eabc804a79abf3b8c16e6245e82ec572346aa452fabb600760088111156119a157fe5b8787604051808460ff1660ff16815260200183600019166000191681526020018260001916600019168152602001935050505060405180910390a1858560009a509a509a50612534565b8660600151611a1e8d6003600089600019166000191681526020019081526020016000205461372590919063ffffffff16565b1115611a9c577f14301341d034ec3c62a1eabc804a79abf3b8c16e6245e82ec572346aa452fabb60076008811115611a5257fe5b8787604051808460ff1660ff16815260200183600019166000191681526020018260001916600019168152602001935050505060405180910390a1858560009a509a509a50612534565b8760a001518760a001511415611b24577f14301341d034ec3c62a1eabc804a79abf3b8c16e6245e82ec572346aa452fabb60036008811115611ada57fe5b8787604051808460ff1660ff16815260200183600019166000191681526020018260001916600019168152602001935050505060405180910390a1858560009a509a509a50612534565b60008860a001511415611bba57866080015188608001511015611bb9577f14301341d034ec3c62a1eabc804a79abf3b8c16e6245e82ec572346aa452fabb60046008811115611b6f57fe5b8787604051808460ff1660ff16815260200183600019166000191681526020018260001916600019168152602001935050505060405180910390a1858560009a509a509a50612534565b5b60018860a001511415611c5057876080015187608001511015611c4f577f14301341d034ec3c62a1eabc804a79abf3b8c16e6245e82ec572346aa452fabb60046008811115611c0557fe5b8787604051808460ff1660ff16815260200183600019166000191681526020018260001916600019168152602001935050505060405180910390a1858560009a509a509a50612534565b5b611c7e8c6003600088600019166000191681526020019081526020016000205461372590919063ffffffff16565b60036000876000191660001916815260200190815260200160002081905550611ccb8c6003600089600019166000191681526020019081526020016000205461372590919063ffffffff16565b60036000886000191660001916815260200190815260200160002081905550876020015173ffffffffffffffffffffffffffffffffffffffff1663313ce5676040518163ffffffff167c0100000000000000000000000000000000000000000000000000000000028152600401602060405180830381600087803b158015611d5257600080fd5b505af1158015611d66573d6000803e3d6000fd5b505050506040513d6020811015611d7c57600080fd5b810190808051906020019092919050505060ff16600a0a670de0b6b3a76400000293508b9250611dcb84611dbd8a608001518f6134f390919063ffffffff16565b61352690919063ffffffff16565b9150611de08c89606001518a60e00151612d72565b905060008860a00151141561218d57876040015173ffffffffffffffffffffffffffffffffffffffff166323b872dd89600001518960000151856040518463ffffffff167c0100000000000000000000000000000000000000000000000000000000028152600401808473ffffffffffffffffffffffffffffffffffffffff1673ffffffffffffffffffffffffffffffffffffffff1681526020018373ffffffffffffffffffffffffffffffffffffffff1673ffffffffffffffffffffffffffffffffffffffff1681526020018281526020019350505050602060405180830381600087803b158015611ed257600080fd5b505af1158015611ee6573d6000803e3d6000fd5b505050506040513d6020811015611efc57600080fd5b81019080805190602001909291905050501515611f1857600080fd5b876040015173ffffffffffffffffffffffffffffffffffffffff166323b872dd8960000151600160009054906101000a900473ffffffffffffffffffffffffffffffffffffffff16846040518463ffffffff167c0100000000000000000000000000000000000000000000000000000000028152600401808473ffffffffffffffffffffffffffffffffffffffff1673ffffffffffffffffffffffffffffffffffffffff1681526020018373ffffffffffffffffffffffffffffffffffffffff1673ffffffffffffffffffffffffffffffffffffffff1681526020018281526020019350505050602060405180830381600087803b15801561201957600080fd5b505af115801561202d573d6000803e3d6000fd5b505050506040513d602081101561204357600080fd5b8101908080519060200190929190505050151561205f57600080fd5b866020015173ffffffffffffffffffffffffffffffffffffffff166323b872dd88600001518a60000151866040518463ffffffff167c0100000000000000000000000000000000000000000000000000000000028152600401808473ffffffffffffffffffffffffffffffffffffffff1673ffffffffffffffffffffffffffffffffffffffff1681526020018373ffffffffffffffffffffffffffffffffffffffff1673ffffffffffffffffffffffffffffffffffffffff1681526020018281526020019350505050602060405180830381600087803b15801561214257600080fd5b505af1158015612156573d6000803e3d6000fd5b505050506040513d602081101561216c57600080fd5b8101908080519060200190929190505050151561218857600080fd5b612529565b876020015173ffffffffffffffffffffffffffffffffffffffff166323b872dd89600001518960000151866040518463ffffffff167c0100000000000000000000000000000000000000000000000000000000028152600401808473ffffffffffffffffffffffffffffffffffffffff1673ffffffffffffffffffffffffffffffffffffffff1681526020018373ffffffffffffffffffffffffffffffffffffffff1673ffffffffffffffffffffffffffffffffffffffff1681526020018281526020019350505050602060405180830381600087803b15801561227057600080fd5b505af1158015612284573d6000803e3d6000fd5b505050506040513d602081101561229a57600080fd5b810190808051906020019092919050505015156122b657600080fd5b866040015173ffffffffffffffffffffffffffffffffffffffff166323b872dd8860000151600160009054906101000a900473ffffffffffffffffffffffffffffffffffffffff16846040518463ffffffff167c0100000000000000000000000000000000000000000000000000000000028152600401808473ffffffffffffffffffffffffffffffffffffffff1673ffffffffffffffffffffffffffffffffffffffff1681526020018373ffffffffffffffffffffffffffffffffffffffff1673ffffffffffffffffffffffffffffffffffffffff1681526020018281526020019350505050602060405180830381600087803b1580156123b757600080fd5b505af11580156123cb573d6000803e3d6000fd5b505050506040513d60208110156123e157600080fd5b810190808051906020019092919050505015156123fd57600080fd5b866040015173ffffffffffffffffffffffffffffffffffffffff166323b872dd88600001518a600001518486036040518463ffffffff167c0100000000000000000000000000000000000000000000000000000000028152600401808473ffffffffffffffffffffffffffffffffffffffff1673ffffffffffffffffffffffffffffffffffffffff1681526020018373ffffffffffffffffffffffffffffffffffffffff1673ffffffffffffffffffffffffffffffffffffffff1681526020018281526020019350505050602060405180830381600087803b1580156124e257600080fd5b505af11580156124f6573d6000803e3d6000fd5b505050506040513d602081101561250c57600080fd5b8101908080519060200190929190505050151561252857600080fd5b5b858560019a509a509a505b505050505050505093509350939050565b600060608060008060008060008060009054906101000a900473ffffffffffffffffffffffffffffffffffffffff1673ffffffffffffffffffffffffffffffffffffffff163373ffffffffffffffffffffffffffffffffffffffff1614806125f65750600260003373ffffffffffffffffffffffffffffffffffffffff1673ffffffffffffffffffffffffffffffffffffffff16815260200190815260200160002060009054906101000a900460ff165b151561260157600080fd5b8b516040519080825280602002602001820160405280156126315781602001602082028038833980820191505090505b5096508b516040519080825280602002602001820160405280156126645781602001602082028038833980820191505090505b509550600094505b8b518510156127a7576126dd8d8681518110151561268657fe5b906020019060200201518d8781518110151561269e57fe5b906020019060200201518c888151811015156126b657fe5b906020019060200201518c898151811015156126ce57fe5b906020019060200201516111bf565b93508315156126ef5760009750612807565b61273f8d8681518110151561270057fe5b906020019060200201518d8781518110151561271857fe5b906020019060200201518d8881518110151561273057fe5b906020019060200201516115f7565b925092509250801561279a5782878681518110151561275a57fe5b90602001906020020190600019169081600019168152505081868681518110151561278157fe5b9060200190602002019060001916908160001916815250505b848060010195505061266c565b6127e28d60008151811015156127b957fe5b906020019060200201518d60008151811015156127d257fe5b906020019060200201518d613743565b506128068c60008151811015156127f557fe5b906020019060200201518888612b82565b5b5050505050505095945050505050565b60008060009054906101000a900473ffffffffffffffffffffffffffffffffffffffff1673ffffffffffffffffffffffffffffffffffffffff163373ffffffffffffffffffffffffffffffffffffffff1614151561287457600080fd5b600073ffffffffffffffffffffffffffffffffffffffff168373ffffffffffffffffffffffffffffffffffffffff16141515156128b057600080fd5b7f4af650e9ee9ac50b37ec2cd3ddac7e1c69955ffc871bc3e812563775f3bc0e7d8383604051808373ffffffffffffffffffffffffffffffffffffffff1673ffffffffffffffffffffffffffffffffffffffff168152602001821515151581526020019250505060405180910390a181600260008573ffffffffffffffffffffffffffffffffffffffff1673ffffffffffffffffffffffffffffffffffffffff16815260200190815260200160002060006101000a81548160ff0219169083151502179055506001905092915050565b60056020528060005260406000206000915090508060000154908060010160009054906101000a900473ffffffffffffffffffffffffffffffffffffffff16908060020160009054906101000a900473ffffffffffffffffffffffffffffffffffffffff16908060030154905084565b600060018560405160200180807f19457468657265756d205369676e6564204d6573736167653a0a333200000000815250601c0182600019166000191681526020019150506040516020818303038152906040526040518082805190602001908083835b602083101515612a795780518252602082019150602081019050602083039250612a54565b6001836020036101000a0380198251168184511680821785525050505050509050019150506040518091039020858585604051600081526020016040526040518085600019166000191681526020018460ff1660ff1681526020018360001916600019168152602001826000191660001916815260200194505050505060206040516020810390808403906000865af1158015612b1a573d6000803e3d6000fd5b5050506020604051035173ffffffffffffffffffffffffffffffffffffffff168673ffffffffffffffffffffffffffffffffffffffff1614905095945050505050565b6000809054906101000a900473ffffffffffffffffffffffffffffffffffffffff1681565b826001600481101515612b9157fe5b6020020151836002600481101515612ba557fe5b6020020151604051602001808373ffffffffffffffffffffffffffffffffffffffff1673ffffffffffffffffffffffffffffffffffffffff166c010000000000000000000000000281526014018273ffffffffffffffffffffffffffffffffffffffff1673ffffffffffffffffffffffffffffffffffffffff166c01000000000000000000000000028152601401925050506040516020818303038152906040526040518082805190602001908083835b602083101515612c7b5780518252602082019150602081019050602083039250612c56565b6001836020036101000a0380198251168184511680821785525050505050509050019150506040518091039020600019167fde8acabe30c9bd25d65bb9db28bf46f51dc7500a07b1671f121f1144fbf446fc8383604051808060200180602001838103835285818151815260200191508051906020019060200280838360005b83811015612d16578082015181840152602081019050612cfb565b50505050905001838103825284818151815260200191508051906020019060200280838360005b83811015612d58578082015181840152602081019050612d3d565b5050505090500194505050505060405180910390a2505050565b6000612d9983612d8b84876134f390919063ffffffff16565b61352690919063ffffffff16565b90509392505050565b60008060009054906101000a900473ffffffffffffffffffffffffffffffffffffffff1673ffffffffffffffffffffffffffffffffffffffff163373ffffffffffffffffffffffffffffffffffffffff16141515612dff57600080fd5b600073ffffffffffffffffffffffffffffffffffffffff168273ffffffffffffffffffffffffffffffffffffffff1614151515612e3b57600080fd5b7f18d40614e4a77383f4b7337227bdad137b4f3f9b002ef63afd3ddaa142a15f63600160009054906101000a900473ffffffffffffffffffffffffffffffffffffffff1683604051808373ffffffffffffffffffffffffffffffffffffffff1673ffffffffffffffffffffffffffffffffffffffff1681526020018273ffffffffffffffffffffffffffffffffffffffff1673ffffffffffffffffffffffffffffffffffffffff1681526020019250505060405180910390a181600160006101000a81548173ffffffffffffffffffffffffffffffffffffffff021916908373ffffffffffffffffffffffffffffffffffffffff16021790555060019050919050565b60046020528060005260406000206000915054906101000a900460ff1681565b6000612f68613938565b600061012060405190810160405280886000600381101515612f8657fe5b602002015173ffffffffffffffffffffffffffffffffffffffff168152602001886001600381101515612fb557fe5b602002015173ffffffffffffffffffffffffffffffffffffffff168152602001886002600381101515612fe457fe5b602002015173ffffffffffffffffffffffffffffffffffffffff16815260200189600060068110151561301357fe5b6020020151815260200189600160068110151561302c57fe5b6020020151815260200189600260068110151561304557fe5b6020020151815260200189600360068110151561305e57fe5b6020020151815260200189600560068110151561307757fe5b6020020151815260200189600460068110151561309057fe5b602002015181525091506130a382613541565b90506130b233828888886129f0565b151561311d577f14301341d034ec3c62a1eabc804a79abf3b8c16e6245e82ec572346aa452fabb600060088111156130e657fe5b82604051808360ff1660ff16815260200182600019166000191681526020016020019250505060405180910390a160009250613251565b8160600151600360008360001916600019168152602001908152602001600020819055507fb00984fe824f4973f31e8a414157f54cb4ee29bc2100149ba22a094d0bfd551881836000015184602001518560400151866060015187608001518860a001516040518088600019166000191681526020018773ffffffffffffffffffffffffffffffffffffffff1673ffffffffffffffffffffffffffffffffffffffff1681526020018673ffffffffffffffffffffffffffffffffffffffff1673ffffffffffffffffffffffffffffffffffffffff1681526020018573ffffffffffffffffffffffffffffffffffffffff1673ffffffffffffffffffffffffffffffffffffffff16815260200184815260200183815260200182815260200197505050505050505060405180910390a1600192505b505095945050505050565b60008090505b84518110156132f9576132eb868281518110151561327c57fe5b90602001906020020151868381518110151561329457fe5b9060200190602002015186848151811015156132ac57fe5b9060200190602002015186858151811015156132c457fe5b9060200190602002015186868151811015156132dc57fe5b90602001906020020151612f5e565b508080600101915050613262565b505050505050565b6040805190810160405280600581526020017f312e302e3000000000000000000000000000000000000000000000000000000081525081565b600080600080600080886004600a8110151561335257fe5b60200201519450886008600a8110151561336857fe5b6020020151935087600160048110151561337e57fe5b6020020151925087600360048110151561339457fe5b602002015191506133a6878686612d72565b90508173ffffffffffffffffffffffffffffffffffffffff166323b872dd84600160009054906101000a900473ffffffffffffffffffffffffffffffffffffffff16846040518463ffffffff167c0100000000000000000000000000000000000000000000000000000000028152600401808473ffffffffffffffffffffffffffffffffffffffff1673ffffffffffffffffffffffffffffffffffffffff1681526020018373ffffffffffffffffffffffffffffffffffffffff1673ffffffffffffffffffffffffffffffffffffffff1681526020018281526020019350505050602060405180830381600087803b1580156134a157600080fd5b505af11580156134b5573d6000803e3d6000fd5b505050506040513d60208110156134cb57600080fd5b810190808051906020019092919050505015156134e757600080fd5b50505050509392505050565b60008082840290506000841480613514575082848281151561351157fe5b04145b151561351c57fe5b8091505092915050565b600080828481151561353457fe5b0490508091505092915050565b600030826000015183602001518460400151856060015186608001518760a001518860c001518960e001518a6101000151604051602001808b73ffffffffffffffffffffffffffffffffffffffff1673ffffffffffffffffffffffffffffffffffffffff166c010000000000000000000000000281526014018a73ffffffffffffffffffffffffffffffffffffffff1673ffffffffffffffffffffffffffffffffffffffff166c010000000000000000000000000281526014018973ffffffffffffffffffffffffffffffffffffffff1673ffffffffffffffffffffffffffffffffffffffff166c010000000000000000000000000281526014018873ffffffffffffffffffffffffffffffffffffffff1673ffffffffffffffffffffffffffffffffffffffff166c010000000000000000000000000281526014018781526020018681526020018581526020018481526020018381526020018281526020019a50505050505050505050506040516020818303038152906040526040518082805190602001908083835b6020831015156136f157805182526020820191506020810190506020830392506136cc565b6001836020036101000a03801982511681845116808217855250505050505090500191505060405180910390209050919050565b600080828401905083811015151561373957fe5b8091505092915050565b6000806000806000806000808a6004600a8110151561375e57fe5b602002015196508a6008600a8110151561377457fe5b6020020151955089600160048110151561378a57fe5b602002015194508960036004811015156137a057fe5b60200201519350600091505b88518210156137de5788828151811015156137c357fe5b906020019060200201518301925081806001019250506137ac565b6137e9838888612d72565b90508373ffffffffffffffffffffffffffffffffffffffff166323b872dd86600160009054906101000a900473ffffffffffffffffffffffffffffffffffffffff16846040518463ffffffff167c0100000000000000000000000000000000000000000000000000000000028152600401808473ffffffffffffffffffffffffffffffffffffffff1673ffffffffffffffffffffffffffffffffffffffff1681526020018373ffffffffffffffffffffffffffffffffffffffff1673ffffffffffffffffffffffffffffffffffffffff1681526020018281526020019350505050602060405180830381600087803b1580156138e457600080fd5b505af11580156138f8573d6000803e3d6000fd5b505050506040513d602081101561390e57600080fd5b8101908080519060200190929190505050151561392a57600080fd5b505050505050509392505050565b61012060405190810160405280600073ffffffffffffffffffffffffffffffffffffffff168152602001600073ffffffffffffffffffffffffffffffffffffffff168152602001600073ffffffffffffffffffffffffffffffffffffffff16815260200160008152602001600081526020016000815260200160008152602001600081526020016000815250905600a165627a7a72305820d6050b4f717f18ec2f80e3f08d4e7393df7d732a52d1cb63c11cee7060292a780029",
  "source": "pragma solidity 0.4.24;\n\nimport './utils/SafeMath.sol';\nimport './utils/Owned.sol';\nimport './interfaces/ERC20.sol';\n\ncontract Exchange is Owned {\n    using SafeMath for uint256;\n\n    enum Errors {\n        SIGNATURE_INVALID,                      // Signature is invalid\n        MAKER_SIGNATURE_INVALID,                // Maker signature is invalid\n        TAKER_SIGNATURE_INVALID,                // Taker signature is invalid\n        SIDES_INVALID,\n        PRICE_INVALID,\n        ORDER_EXPIRED,                          // Order has already expired\n        TRADE_ALREADY_COMPLETED_OR_CANCELLED,   // Trade has already been completed or it has been cancelled by taker\n        TRADE_AMOUNT_TOO_BIG,                   // Trade buyToken amount bigger than the remianing amountBuy\n        ROUNDING_ERROR_TOO_LARGE                // Rounding error too large\n    }\n\n    string constant public VERSION = \"1.0.0\";\n    address public rewardAccount;\n    mapping(address => bool) public operators;\n    mapping(bytes32 => uint) public filled;       // Mappings of orderHash => amount of amountBuy filled.\n    mapping(bytes32 => bool) public traded;       // Mappings of tradeHash => bool value representing whether the trade is completed(true) or incomplete(false).\n    mapping(bytes32 => Pair) public pairs;\n\n    event LogRewardAccountUpdate(address oldRewardAccount, address newRewardAccount);\n    event LogOperatorUpdate(address operator, bool isOperator);\n\n    event LogBatchTrades(\n      bytes32[] makerOrderHashes,\n      bytes32[] takerOrderHashes,\n      bytes32 indexed tokenPairHash\n    );\n\n    event LogTrade(\n        address indexed maker,\n        address indexed taker,\n        address tokenSell,\n        address tokenBuy,\n        uint256 filledAmountSell,\n        uint256 filledAmountBuy,\n        uint paidFeeMake,\n        uint paidFeeTake,\n        bytes32 orderHash,\n        bytes32 tradeHash,\n        bytes32 indexed tokenPairHash // keccak256(makerToken, takerToken), allows subscribing to a token pair\n    );\n\n    event LogError(\n        uint8 errorId,\n        bytes32 makerOrderHash,\n        bytes32 takerOrderHash\n    );\n\n    event LogCancelOrder(\n        bytes32 orderHash,\n        address userAddress,\n        address baseToken,\n        address quoteToken,\n        uint256 amount,\n        uint256 pricepoint,\n        uint256 side\n    );\n\n    struct Pair {\n      bytes32 pairID;\n      address baseToken;\n      address quoteToken;\n      uint256 pairMultiplier;\n    }\n\n    struct Order {\n      address userAddress;\n      address baseToken;\n      address quoteToken;\n      uint256 amount;\n      uint256 pricepoint;\n      uint256 side;\n      uint256 salt;\n      uint256 feeMake;\n      uint256 feeTake;\n    }\n\n    struct Trade {\n        bytes32 orderHash;  // Keccak-256 hash of the order to which the trade is linked\n        uint256 amount;     // The amount of buy tokens asked in the order\n        uint256 tradeNonce; // A taker wise unique incrementing integer value assigned to the trade\n        address taker;      // Ethereum address of the trade taker\n    }\n\n    modifier onlyOperator {\n        require(msg.sender == owner || operators[msg.sender]);\n        _;\n    }\n\n    constructor(address _rewardAccount) public {\n        rewardAccount = _rewardAccount;\n    }\n\n    /// @dev Sets the address of fees account.\n    /// @param _rewardAccount An address to set as fees account.\n    /// @return Success on setting fees account.\n    function setRewardAccount(address _rewardAccount) public onlyOwner returns (bool) {\n        require(_rewardAccount != address(0));\n        emit LogRewardAccountUpdate(rewardAccount,_rewardAccount);\n        rewardAccount = _rewardAccount;\n        return true;\n    }\n\n    /// @dev Sets or unset's an operator.\n    /// @param _operator The address of operator to set.\n    /// @param _isOperator Bool value indicating whether the address is operator or not.\n    /// @return Success on setting an operator.\n    function setOperator(address _operator, bool _isOperator) public onlyOwner returns (bool) {\n        require(_operator != address(0));\n        emit LogOperatorUpdate(_operator,_isOperator);\n        operators[_operator] = _isOperator;\n        return true;\n    }\n\n    function executeBatchTrades(\n      uint256[10][] orderValues,\n      address[4][] orderAddresses,\n      uint256[] amounts,\n      uint8[2][] memory v,\n      bytes32[4][] memory rs\n    ) public onlyOperator returns (bool)\n    {\n      bytes32[] memory makerOrderHashes = new bytes32[](orderAddresses.length);\n      bytes32[] memory takerOrderHashes = new bytes32[](orderAddresses.length);\n\n      for (uint i = 0; i < orderAddresses.length; i++) {\n        bool valid = validateSignatures(\n          orderValues[i],\n          orderAddresses[i],\n          v[i],\n          rs[i]\n        );\n\n        if (!valid) return false;\n\n        var (makerOrderHash, takerOrderHash, traded) = executeTrade(\n          orderValues[i],\n          orderAddresses[i],\n          amounts[i]\n        );\n\n        if (traded) {\n          makerOrderHashes[i] = makerOrderHash;\n          takerOrderHashes[i] = takerOrderHash;\n        }\n      }\n\n      payTakerFees(\n        orderValues[0], //takerOrder.amount\n        orderAddresses[0], //takerOrder.feeTake\n        amounts\n      );\n\n      emitLog(\n        orderAddresses[0],\n        makerOrderHashes,\n        takerOrderHashes\n      );\n    }\n\n\n\n    function executeSingleTrade(\n      uint256[10] orderValues,\n      address[4] orderAddresses,\n      uint256 amount,\n      uint8[2] memory v,\n      bytes32[4] memory rs\n    ) public onlyOperator returns (bool)\n    {\n      bool valid = validateSignatures(\n        orderValues,\n        orderAddresses,\n        v,\n        rs\n      );\n\n      if (!valid) return false;\n\n      executeTrade(\n        orderValues,\n        orderAddresses,\n        amount\n      );\n\n      paySingleTradeTakerFees(\n        orderValues, //takerOrder.amount\n        orderAddresses, //takerOrder.userAddress\n        amount\n      );\n    }\n\n    function validateSignatures(\n      uint256[10] orderValues,\n      address[4] orderAddresses,\n      uint8[2] memory v,\n      bytes32[4] memory rs\n    ) public returns (bool)\n    {\n        Order memory makerOrder = Order({\n          userAddress: orderAddresses[0],\n          baseToken: orderAddresses[2],\n          quoteToken: orderAddresses[3],\n          amount: orderValues[0],\n          pricepoint: orderValues[1],\n          side: orderValues[2],\n          salt: orderValues[3],\n          feeMake: orderValues[8],\n          feeTake: orderValues[9]\n        });\n\n        Order memory takerOrder = Order({\n          userAddress: orderAddresses[1],\n          baseToken: orderAddresses[2],\n          quoteToken: orderAddresses[3],\n          amount: orderValues[4],\n          pricepoint: orderValues[5],\n          side: orderValues[6],\n          salt: orderValues[7],\n          feeTake: orderValues[8],\n          feeMake: orderValues[9]\n        });\n\n        bytes32 makerOrderHash = getOrderHash(makerOrder);\n        bytes32 takerOrderHash = getOrderHash(takerOrder);\n\n        if (!isValidSignature(makerOrder.userAddress, makerOrderHash, v[0], rs[0], rs[1])) {\n            emit LogError(uint8(Errors.MAKER_SIGNATURE_INVALID), makerOrderHash, takerOrderHash);\n            return false;\n        }\n\n        if (!isValidSignature(takerOrder.userAddress, takerOrderHash, v[1], rs[2], rs[3])) {\n            emit LogError(uint8(Errors.TAKER_SIGNATURE_INVALID), makerOrderHash, takerOrderHash);\n            return false;\n        }\n\n        return true;\n    }\n\n    /*\n    * Core exchange functions\n    */\n    function executeTrade(\n        uint256[10] orderValues,\n        address[4] orderAddresses,\n        uint256 amount\n    ) public onlyOperator returns (bytes32, bytes32, bool)\n    {\n        Order memory makerOrder = Order({\n          userAddress: orderAddresses[0],\n          baseToken: orderAddresses[2],\n          quoteToken: orderAddresses[3],\n          amount: orderValues[0],\n          pricepoint: orderValues[1],\n          side: orderValues[2],\n          salt: orderValues[3],\n          feeMake: orderValues[8],\n          feeTake: orderValues[9]\n        });\n\n        Order memory takerOrder = Order({\n          userAddress: orderAddresses[1],\n          baseToken: orderAddresses[2],\n          quoteToken: orderAddresses[3],\n          amount: orderValues[4],\n          pricepoint: orderValues[5],\n          side: orderValues[6],\n          salt: orderValues[7],\n          feeTake: orderValues[8],\n          feeMake: orderValues[9]\n        });\n\n        bytes32 makerOrderHash = getOrderHash(makerOrder);\n        bytes32 takerOrderHash = getOrderHash(takerOrder);\n\n        if ((filled[makerOrderHash].add(amount)) > makerOrder.amount) {\n          emit LogError(uint8(Errors.TRADE_AMOUNT_TOO_BIG), makerOrderHash, takerOrderHash);\n          return (makerOrderHash, takerOrderHash, false);\n        }\n\n        if ((filled[takerOrderHash].add(amount)) > takerOrder.amount) {\n          emit LogError(uint8(Errors.TRADE_AMOUNT_TOO_BIG), makerOrderHash, takerOrderHash);\n          return (makerOrderHash, takerOrderHash, false);\n        }\n\n        //TODO force side = 0 or 1\n        if (takerOrder.side == makerOrder.side) {\n          emit LogError(uint8(Errors.SIDES_INVALID), makerOrderHash, takerOrderHash);\n          return (makerOrderHash, takerOrderHash, false);\n        }\n\n        if (makerOrder.side == 0) { //makerOrder is a buy\n          if (makerOrder.pricepoint < takerOrder.pricepoint) { //buy price < sell price\n            emit LogError(uint8(Errors.PRICE_INVALID), makerOrderHash, takerOrderHash);\n            return (makerOrderHash, takerOrderHash, false);\n          }\n        }\n\n        if (makerOrder.side == 1) { //takerOrder is a buy\n          if (takerOrder.pricepoint < makerOrder.pricepoint) {\n            emit LogError(uint8(Errors.PRICE_INVALID), makerOrderHash, takerOrderHash);\n            return (makerOrderHash, takerOrderHash, false);\n          }\n        }\n\n        filled[takerOrderHash] = (filled[takerOrderHash].add(amount));\n        filled[makerOrderHash] = (filled[makerOrderHash].add(amount));\n\n        uint256 pairMultiplier = (10 ** 18) * (10 ** uint256(ERC20(makerOrder.baseToken).decimals()));\n        uint256 baseTokenAmount = amount;\n        uint256 quoteTokenAmount = (amount.mul(makerOrder.pricepoint)).div(pairMultiplier);\n        uint256 fee = getPartialAmount(amount, makerOrder.amount, makerOrder.feeMake);\n\n        if (makerOrder.side == 0) {\n          require(ERC20(makerOrder.quoteToken).transferFrom(makerOrder.userAddress, takerOrder.userAddress, quoteTokenAmount));\n          require(ERC20(makerOrder.quoteToken).transferFrom(makerOrder.userAddress, rewardAccount, fee));\n          require(ERC20(takerOrder.baseToken).transferFrom(takerOrder.userAddress, makerOrder.userAddress, baseTokenAmount));\n        } else {\n          require(ERC20(makerOrder.baseToken).transferFrom(makerOrder.userAddress, takerOrder.userAddress, baseTokenAmount));\n          require(ERC20(takerOrder.quoteToken).transferFrom(takerOrder.userAddress, rewardAccount, fee));\n          require(ERC20(takerOrder.quoteToken).transferFrom(takerOrder.userAddress, makerOrder.userAddress, quoteTokenAmount - fee));\n        }\n\n      return (makerOrderHash, takerOrderHash, true);\n    }\n\n\n    function paySingleTradeTakerFees(\n      uint256[10] orderValues,\n      address[4] orderAddresses,\n      uint256 amount\n    ) internal returns (bool)\n    {\n      uint256 takerOrderAmount = orderValues[4];\n      uint256 feeTake = orderValues[8];\n      address userAddress = orderAddresses[1];\n      address quoteToken = orderAddresses[3];\n\n\n      uint256 fee = getPartialAmount(amount, takerOrderAmount, feeTake);\n      require(ERC20(quoteToken).transferFrom(userAddress, rewardAccount, fee));\n    }\n\n\n    function payTakerFees(\n      uint256[10] orderValues,\n      address[4] orderAddresses,\n      uint256[] amounts\n    ) internal returns (bool)\n    {\n      uint256 takerOrderAmount = orderValues[4];\n      uint256 feeTake = orderValues[8];\n      address userAddress = orderAddresses[1];\n      address quoteToken = orderAddresses[3];\n\n      uint256 totalAmount;\n      for (uint i = 0; i < amounts.length; i++) {\n        totalAmount = totalAmount + amounts[i];\n      }\n\n      uint256 fee = getPartialAmount(totalAmount, takerOrderAmount, feeTake);\n      require(ERC20(quoteToken).transferFrom(userAddress, rewardAccount, fee));\n    }\n\n\n    function batchCancelOrders(\n      uint256[6][] orderValues,\n      address[3][] orderAddresses,\n      uint8[] v,\n      bytes32[] r,\n      bytes32[] s\n    ) public\n    {\n      for (uint i = 0; i < orderAddresses.length; i++) {\n        cancelOrder(\n          orderValues[i],\n          orderAddresses[i],\n          v[i],\n          r[i],\n          s[i]\n        );\n      }\n    }\n\n    /// @dev Cancels the input order.\n    /// @param orderValues Array of order's amountBuy, amountSell, expires, nonce, feeMake & feeTake values.\n    /// @param orderAddresses Array of order's tokenBuy, tokenSell & maker addresses.\n    /// @param v ECDSA signature parameter v.\n    /// @param r ECDSA signature parameters r.\n    /// @param s ECDSA signature parameters s.\n    /// @return Success or failure of order cancellation.\n    function cancelOrder(\n        uint256[6] orderValues,\n        address[3] orderAddresses,\n        uint8 v,\n        bytes32 r,\n        bytes32 s\n    ) public returns (bool)\n    {\n\n      Order memory order = Order({\n        userAddress: orderAddresses[0],\n        baseToken: orderAddresses[1],\n        quoteToken: orderAddresses[2],\n        amount: orderValues[0],\n        pricepoint: orderValues[1],\n        side: orderValues[2],\n        salt: orderValues[3],\n        feeTake: orderValues[4],\n        feeMake: orderValues[5]\n      });\n\n        bytes32 orderHash = getOrderHash(order);\n\n        if (!isValidSignature(msg.sender, orderHash, v, r, s)) {\n            emit LogError(uint8(Errors.SIGNATURE_INVALID), orderHash, \"\");\n            return false;\n        }\n\n        filled[orderHash] = order.amount;\n        emit LogCancelOrder(\n            orderHash,\n            order.userAddress,\n            order.baseToken,\n            order.quoteToken,\n            order.amount,\n            order.pricepoint,\n            order.side\n        );\n\n        return true;\n    }\n\n    /*\n    * Pure public functions\n    */\n\n    /// @dev Verifies that a signature is valid.\n    /// @param signer address of signer.\n    /// @param hash Signed Keccak-256 hash.\n    /// @param v ECDSA signature parameter v.\n    /// @param r ECDSA signature parameters r.\n    /// @param s ECDSA signature parameters s.\n    /// @return Validity of order signature.\n    function isValidSignature(\n        address signer,\n        bytes32 hash,\n        uint8 v,\n        bytes32 r,\n        bytes32 s)\n    public\n    pure\n    returns (bool)\n    {\n        return signer == ecrecover(\n            keccak256(abi.encodePacked(\"\\x19Ethereum Signed Message:\\n32\", hash)),\n            v,\n            r,\n            s\n        );\n    }\n\n    /// @dev Checks if rounding error > 0.1%.\n    /// @param numerator Numerator.\n    /// @param denominator Denominator.\n    /// @param target Value to multiply with numerator/denominator.\n    /// @return Rounding error is present.\n    function isRoundingError(uint numerator, uint denominator, uint target)\n    public\n    pure\n    returns (bool)\n    {\n        uint remainder = mulmod(target, numerator, denominator);\n        if (remainder == 0) return false;\n        // No rounding error.\n\n        uint errPercentageTimes1000000 = (remainder.mul(1000000)).div(numerator.mul(target));\n        return errPercentageTimes1000000 > 1000;\n    }\n\n    /// @dev Calculates partial value given a numerator and denominator.\n    /// @param numerator Numerator.\n    /// @param denominator Denominator.\n    /// @param target Value to calculate partial of.\n    /// @return Partial value of target.\n    function getPartialAmount(uint numerator, uint denominator, uint target)\n    public\n    pure\n    returns (uint)\n    {\n        return (numerator.mul(target)).div(denominator);\n    }\n\n\n    /*\n    *   Internal functions\n    */\n\n    function getPairHash(address _baseToken, address _quoteToken)\n    internal\n    view\n    returns (bytes32)\n    {\n        return keccak256(abi.encodePacked(\n          _baseToken,\n          _quoteToken\n        ));\n    }\n\n\n    /// @dev Calculates Keccak-256 hash of order.\n    /// @param order Order that will be hased.\n    /// @return Keccak-256 hash of order.\n    function getOrderHash(Order order)\n    internal\n    view\n    returns (bytes32)\n    {\n        return keccak256(abi.encodePacked(\n                address(this),\n                order.userAddress,\n                order.baseToken,\n                order.quoteToken,\n                order.amount,\n                order.pricepoint,\n                order.side,\n                order.salt,\n                order.feeMake,\n                order.feeTake\n            ));\n    }\n\n    function emitLog(\n      address[4] orderAddresses,\n      bytes32[] makerOrderHashes,\n      bytes32[] takerOrderHashes\n    ) public {\n\n      emit LogBatchTrades(\n        makerOrderHashes,\n        takerOrderHashes,\n        keccak256(abi.encodePacked(orderAddresses[1], orderAddresses[2]))\n      );\n    }\n\n}\n\n// if (isRoundingError(trade.amount, order.amountBuy, order.amountSell)) {\n//             emit LogError(uint8(Errors.ROUNDING_ERROR_TOO_LARGE), orderHash, tradeHash);\n//             return (orderHash, tradeHash, 0);\n//         }",
  "sourcePath": "/Users/davidvanisacker/Programming/Ethereum/Proofsuite/amp-dex/contracts/Exchange.sol",
  "compiler": {
    "name": "solc",
    "version": "0.4.24+commit.e67f0147.Emscripten.clang"
  },
  "schemaVersion": "2.0.1",
  "updatedAt": "2018-11-28T15:15:40.738Z"
}