{
  "contractName": "Exchange",
  "abi": [
    {
      "constant": true,
      "inputs": [],
      "name": "rewardAccount",
      "outputs": [
        {
          "name": "",
          "type": "address"
        }
      ],
      "payable": false,
      "stateMutability": "view",
      "type": "function"
    },
    {
      "constant": false,
      "inputs": [
        {
          "name": "newOwner",
          "type": "address"
        }
      ],
      "name": "setOwner",
      "outputs": [],
      "payable": false,
      "stateMutability": "nonpayable",
      "type": "function"
    },
    {
      "constant": true,
      "inputs": [
        {
          "name": "",
          "type": "address"
        }
      ],
      "name": "operators",
      "outputs": [
        {
          "name": "",
          "type": "bool"
        }
      ],
      "payable": false,
      "stateMutability": "view",
      "type": "function"
    },
    {
      "constant": true,
      "inputs": [
        {
          "name": "",
          "type": "bytes32"
        }
      ],
      "name": "filled",
      "outputs": [
        {
          "name": "",
          "type": "uint256"
        }
      ],
      "payable": false,
      "stateMutability": "view",
      "type": "function"
    },
    {
      "constant": true,
      "inputs": [],
      "name": "wethToken",
      "outputs": [
        {
          "name": "",
          "type": "address"
        }
      ],
      "payable": false,
      "stateMutability": "view",
      "type": "function"
    },
    {
      "constant": true,
      "inputs": [
        {
          "name": "",
          "type": "bytes32"
        }
      ],
      "name": "pairs",
      "outputs": [
        {
          "name": "pairID",
          "type": "bytes32"
        },
        {
          "name": "baseToken",
          "type": "address"
        },
        {
          "name": "quoteToken",
          "type": "address"
        },
        {
          "name": "pricepointMultiplier",
          "type": "uint256"
        }
      ],
      "payable": false,
      "stateMutability": "view",
      "type": "function"
    },
    {
      "constant": true,
      "inputs": [],
      "name": "owner",
      "outputs": [
        {
          "name": "",
          "type": "address"
        }
      ],
      "payable": false,
      "stateMutability": "view",
      "type": "function"
    },
    {
      "constant": true,
      "inputs": [
        {
          "name": "",
          "type": "bytes32"
        }
      ],
      "name": "traded",
      "outputs": [
        {
          "name": "",
          "type": "bool"
        }
      ],
      "payable": false,
      "stateMutability": "view",
      "type": "function"
    },
    {
      "constant": true,
      "inputs": [],
      "name": "VERSION",
      "outputs": [
        {
          "name": "",
          "type": "string"
        }
      ],
      "payable": false,
      "stateMutability": "view",
      "type": "function"
    },
    {
      "inputs": [
        {
          "name": "_wethToken",
          "type": "address"
        },
        {
          "name": "_rewardAccount",
          "type": "address"
        }
      ],
      "payable": false,
      "stateMutability": "nonpayable",
      "type": "constructor"
    },
    {
      "anonymous": false,
      "inputs": [
        {
          "indexed": false,
          "name": "oldWethToken",
          "type": "address"
        },
        {
          "indexed": false,
          "name": "newWethToken",
          "type": "address"
        }
      ],
      "name": "LogWethTokenUpdate",
      "type": "event"
    },
    {
      "anonymous": false,
      "inputs": [
        {
          "indexed": false,
          "name": "oldRewardAccount",
          "type": "address"
        },
        {
          "indexed": false,
          "name": "newRewardAccount",
          "type": "address"
        }
      ],
      "name": "LogRewardAccountUpdate",
      "type": "event"
    },
    {
      "anonymous": false,
      "inputs": [
        {
          "indexed": false,
          "name": "operator",
          "type": "address"
        },
        {
          "indexed": false,
          "name": "isOperator",
          "type": "bool"
        }
      ],
      "name": "LogOperatorUpdate",
      "type": "event"
    },
    {
      "anonymous": false,
      "inputs": [
        {
          "indexed": false,
          "name": "makerOrderHashes",
          "type": "bytes32[]"
        },
        {
          "indexed": false,
          "name": "takerOrderHashes",
          "type": "bytes32[]"
        },
        {
          "indexed": true,
          "name": "tokenPairHash",
          "type": "bytes32"
        }
      ],
      "name": "LogBatchTrades",
      "type": "event"
    },
    {
      "anonymous": false,
      "inputs": [
        {
          "indexed": true,
          "name": "maker",
          "type": "address"
        },
        {
          "indexed": true,
          "name": "taker",
          "type": "address"
        },
        {
          "indexed": false,
          "name": "tokenSell",
          "type": "address"
        },
        {
          "indexed": false,
          "name": "tokenBuy",
          "type": "address"
        },
        {
          "indexed": false,
          "name": "filledAmountSell",
          "type": "uint256"
        },
        {
          "indexed": false,
          "name": "filledAmountBuy",
          "type": "uint256"
        },
        {
          "indexed": false,
          "name": "paidFeeMake",
          "type": "uint256"
        },
        {
          "indexed": false,
          "name": "paidFeeTake",
          "type": "uint256"
        },
        {
          "indexed": false,
          "name": "orderHash",
          "type": "bytes32"
        },
        {
          "indexed": false,
          "name": "tradeHash",
          "type": "bytes32"
        },
        {
          "indexed": true,
          "name": "tokenPairHash",
          "type": "bytes32"
        }
      ],
      "name": "LogTrade",
      "type": "event"
    },
    {
      "anonymous": false,
      "inputs": [
        {
          "indexed": false,
          "name": "errorId",
          "type": "uint8"
        },
        {
          "indexed": false,
          "name": "makerOrderHash",
          "type": "bytes32"
        },
        {
          "indexed": false,
          "name": "takerOrderHash",
          "type": "bytes32"
        }
      ],
      "name": "LogError",
      "type": "event"
    },
    {
      "anonymous": false,
      "inputs": [
        {
          "indexed": false,
          "name": "orderHash",
          "type": "bytes32"
        },
        {
          "indexed": false,
          "name": "userAddress",
          "type": "address"
        },
        {
          "indexed": false,
          "name": "baseToken",
          "type": "address"
        },
        {
          "indexed": false,
          "name": "quoteToken",
          "type": "address"
        },
        {
          "indexed": false,
          "name": "amount",
          "type": "uint256"
        },
        {
          "indexed": false,
          "name": "pricepoint",
          "type": "uint256"
        },
        {
          "indexed": false,
          "name": "side",
          "type": "uint256"
        }
      ],
      "name": "LogCancelOrder",
      "type": "event"
    },
    {
      "anonymous": false,
      "inputs": [
        {
          "indexed": true,
          "name": "previousOwner",
          "type": "address"
        },
        {
          "indexed": true,
          "name": "newOwner",
          "type": "address"
        }
      ],
      "name": "SetOwner",
      "type": "event"
    },
    {
      "constant": false,
      "inputs": [
        {
          "name": "_baseToken",
          "type": "address"
        },
        {
          "name": "_quoteToken",
          "type": "address"
        },
        {
          "name": "_pricepointMultiplier",
          "type": "uint256"
        }
      ],
      "name": "registerPair",
      "outputs": [
        {
          "name": "",
          "type": "bool"
        }
      ],
      "payable": false,
      "stateMutability": "nonpayable",
      "type": "function"
    },
    {
      "constant": false,
      "inputs": [
        {
          "name": "_wethToken",
          "type": "address"
        }
      ],
      "name": "setWethToken",
      "outputs": [
        {
          "name": "",
          "type": "bool"
        }
      ],
      "payable": false,
      "stateMutability": "nonpayable",
      "type": "function"
    },
    {
      "constant": false,
      "inputs": [
        {
          "name": "_rewardAccount",
          "type": "address"
        }
      ],
      "name": "setFeeAccount",
      "outputs": [
        {
          "name": "",
          "type": "bool"
        }
      ],
      "payable": false,
      "stateMutability": "nonpayable",
      "type": "function"
    },
    {
      "constant": false,
      "inputs": [
        {
          "name": "_operator",
          "type": "address"
        },
        {
          "name": "_isOperator",
          "type": "bool"
        }
      ],
      "name": "setOperator",
      "outputs": [
        {
          "name": "",
          "type": "bool"
        }
      ],
      "payable": false,
      "stateMutability": "nonpayable",
      "type": "function"
    },
    {
      "constant": false,
      "inputs": [
        {
          "name": "orderValues",
          "type": "uint256[10][]"
        },
        {
          "name": "orderAddresses",
          "type": "address[4][]"
        },
        {
          "name": "amounts",
          "type": "uint256[]"
        },
        {
          "name": "v",
          "type": "uint8[2][]"
        },
        {
          "name": "rs",
          "type": "bytes32[4][]"
        }
      ],
      "name": "executeBatchTrades",
      "outputs": [
        {
          "name": "",
          "type": "bool"
        }
      ],
      "payable": false,
      "stateMutability": "nonpayable",
      "type": "function"
    },
    {
      "constant": false,
      "inputs": [
        {
          "name": "orderValues",
          "type": "uint256[10]"
        },
        {
          "name": "orderAddresses",
          "type": "address[4]"
        },
        {
          "name": "amount",
          "type": "uint256"
        },
        {
          "name": "v",
          "type": "uint8[2]"
        },
        {
          "name": "rs",
          "type": "bytes32[4]"
        }
      ],
      "name": "executeSingleTrade",
      "outputs": [
        {
          "name": "",
          "type": "bool"
        }
      ],
      "payable": false,
      "stateMutability": "nonpayable",
      "type": "function"
    },
    {
      "constant": false,
      "inputs": [
        {
          "name": "orderValues",
          "type": "uint256[10]"
        },
        {
          "name": "orderAddresses",
          "type": "address[4]"
        },
        {
          "name": "v",
          "type": "uint8[2]"
        },
        {
          "name": "rs",
          "type": "bytes32[4]"
        }
      ],
      "name": "validateSignatures",
      "outputs": [
        {
          "name": "",
          "type": "bool"
        }
      ],
      "payable": false,
      "stateMutability": "nonpayable",
      "type": "function"
    },
    {
      "constant": false,
      "inputs": [
        {
          "name": "orderValues",
          "type": "uint256[10]"
        },
        {
          "name": "orderAddresses",
          "type": "address[4]"
        },
        {
          "name": "amount",
          "type": "uint256"
        },
        {
          "name": "pricepointMultiplier",
          "type": "uint256"
        }
      ],
      "name": "executeTrade",
      "outputs": [
        {
          "name": "",
          "type": "bytes32"
        },
        {
          "name": "",
          "type": "bytes32"
        },
        {
          "name": "",
          "type": "bool"
        }
      ],
      "payable": false,
      "stateMutability": "nonpayable",
      "type": "function"
    },
    {
      "constant": false,
      "inputs": [
        {
          "name": "orderValues",
          "type": "uint256[6][]"
        },
        {
          "name": "orderAddresses",
          "type": "address[3][]"
        },
        {
          "name": "v",
          "type": "uint8[]"
        },
        {
          "name": "r",
          "type": "bytes32[]"
        },
        {
          "name": "s",
          "type": "bytes32[]"
        }
      ],
      "name": "batchCancelOrders",
      "outputs": [],
      "payable": false,
      "stateMutability": "nonpayable",
      "type": "function"
    },
    {
      "constant": false,
      "inputs": [
        {
          "name": "orderValues",
          "type": "uint256[6]"
        },
        {
          "name": "orderAddresses",
          "type": "address[3]"
        },
        {
          "name": "v",
          "type": "uint8"
        },
        {
          "name": "r",
          "type": "bytes32"
        },
        {
          "name": "s",
          "type": "bytes32"
        }
      ],
      "name": "cancelOrder",
      "outputs": [
        {
          "name": "",
          "type": "bool"
        }
      ],
      "payable": false,
      "stateMutability": "nonpayable",
      "type": "function"
    },
    {
      "constant": true,
      "inputs": [
        {
          "name": "signer",
          "type": "address"
        },
        {
          "name": "hash",
          "type": "bytes32"
        },
        {
          "name": "v",
          "type": "uint8"
        },
        {
          "name": "r",
          "type": "bytes32"
        },
        {
          "name": "s",
          "type": "bytes32"
        }
      ],
      "name": "isValidSignature",
      "outputs": [
        {
          "name": "",
          "type": "bool"
        }
      ],
      "payable": false,
      "stateMutability": "pure",
      "type": "function"
    },
    {
      "constant": true,
      "inputs": [
        {
          "name": "numerator",
          "type": "uint256"
        },
        {
          "name": "denominator",
          "type": "uint256"
        },
        {
          "name": "target",
          "type": "uint256"
        }
      ],
      "name": "isRoundingError",
      "outputs": [
        {
          "name": "",
          "type": "bool"
        }
      ],
      "payable": false,
      "stateMutability": "pure",
      "type": "function"
    },
    {
      "constant": true,
      "inputs": [
        {
          "name": "numerator",
          "type": "uint256"
        },
        {
          "name": "denominator",
          "type": "uint256"
        },
        {
          "name": "target",
          "type": "uint256"
        }
      ],
      "name": "getPartialAmount",
      "outputs": [
        {
          "name": "",
          "type": "uint256"
        }
      ],
      "payable": false,
      "stateMutability": "pure",
      "type": "function"
    },
    {
      "constant": false,
      "inputs": [
        {
          "name": "orderAddresses",
          "type": "address[4]"
        },
        {
          "name": "makerOrderHashes",
          "type": "bytes32[]"
        },
        {
          "name": "takerOrderHashes",
          "type": "bytes32[]"
        }
      ],
      "name": "emitLog",
      "outputs": [],
      "payable": false,
      "stateMutability": "nonpayable",
      "type": "function"
    }
  ],
  "bytecode": "0x608060405234801561001057600080fd5b506040516040806141c78339810180604052810190808051906020019092919080519060200190929190505050336000806101000a81548173ffffffffffffffffffffffffffffffffffffffff021916908373ffffffffffffffffffffffffffffffffffffffff16021790555081600160006101000a81548173ffffffffffffffffffffffffffffffffffffffff021916908373ffffffffffffffffffffffffffffffffffffffff16021790555080600260006101000a81548173ffffffffffffffffffffffffffffffffffffffff021916908373ffffffffffffffffffffffffffffffffffffffff16021790555050506140b7806101106000396000f300608060405260043610610133576000357c0100000000000000000000000000000000000000000000000000000000900463ffffffff1680630e7082031461013857806310ac00d81461018f57806313af40351461029157806313e7c9d8146102d457806314df96ee1461032f5780631778baf414610388578063288cdc91146104805780633c918341146104c55780634b023cf81461054a5780634b57b0be146105a55780635171267f146105fc578063558a729714610877578063673e0481146108de5780638163681e1461099857806386e09c0814610a2a5780638da5cb5b14610a8557806393c1ae0914610adc57806398024a8b14610bb4578063b4cb255314610c09578063d581332314610cd5578063d9a72b5214610d1e578063e51ad32d14610de0578063ffa1ad7414610fca575b600080fd5b34801561014457600080fd5b5061014d61105a565b604051808273ffffffffffffffffffffffffffffffffffffffff1673ffffffffffffffffffffffffffffffffffffffff16815260200191505060405180910390f35b34801561019b57600080fd5b50610277600480360381019080806101400190600a806020026040519081016040528092919082600a602002808284378201915050505050919291929080608001906004806020026040519081016040528092919082600460200280828437820191505050505091929192908035906020019092919080604001906002806020026040519081016040528092919082600260200280828437820191505050505091929192908060800190600480602002604051908101604052809291908260046020028082843782019150505050509192919290505050611080565b604051808215151515815260200191505060405180910390f35b34801561029d57600080fd5b506102d2600480360381019080803573ffffffffffffffffffffffffffffffffffffffff169060200190929190505050611184565b005b3480156102e057600080fd5b50610315600480360381019080803573ffffffffffffffffffffffffffffffffffffffff16906020019092919050505061129d565b604051808215151515815260200191505060405180910390f35b34801561033b57600080fd5b5061036e6004803603810190808035906020019092919080359060200190929190803590602001909291905050506112bd565b604051808215151515815260200191505060405180910390f35b34801561039457600080fd5b50610466600480360381019080806101400190600a806020026040519081016040528092919082600a6020028082843782019150505050509192919290806080019060048060200260405190810160405280929190826004602002808284378201915050505050919291929080604001906002806020026040519081016040528092919082600260200280828437820191505050505091929192908060800190600480602002604051908101604052809291908260046020028082843782019150505050509192919290505050611330565b604051808215151515815260200191505060405180910390f35b34801561048c57600080fd5b506104af6004803603810190808035600019169060200190929190505050611750565b6040518082815260200191505060405180910390f35b3480156104d157600080fd5b50610530600480360381019080803573ffffffffffffffffffffffffffffffffffffffff169060200190929190803573ffffffffffffffffffffffffffffffffffffffff16906020019092919080359060200190929190505050611768565b604051808215151515815260200191505060405180910390f35b34801561055657600080fd5b5061058b600480360381019080803573ffffffffffffffffffffffffffffffffffffffff1690602001909291905050506118f2565b604051808215151515815260200191505060405180910390f35b3480156105b157600080fd5b506105ba611a8e565b604051808273ffffffffffffffffffffffffffffffffffffffff1673ffffffffffffffffffffffffffffffffffffffff16815260200191505060405180910390f35b34801561060857600080fd5b5061085d60048036038101908080359060200190820180359060200190808060200260200160405190810160405280939291908181526020016000905b8282101561068b5784848390506101400201600a806020026040519081016040528092919082600a60200280828437820191505050505081526020019060010190610645565b5050505050919291929080359060200190820180359060200190808060200260200160405190810160405280939291908181526020016000905b8282101561070a5784848390506080020160048060200260405190810160405280929190826004602002808284378201915050505050815260200190600101906106c5565b505050505091929192908035906020019082018035906020019080806020026020016040519081016040528093929190818152602001838360200280828437820191505050505050919291929080359060200190820180359060200190808060200260200160405190810160405280939291908181526020016000905b828210156107cc578484839050604002016002806020026040519081016040528092919082600260200280828437820191505050505081526020019060010190610787565b5050505050919291929080359060200190820180359060200190808060200260200160405190810160405280939291908181526020016000905b8282101561084b578484839050608002016004806020026040519081016040528092919082600460200280828437820191505050505081526020019060010190610806565b50505050509192919290505050611ab4565b604051808215151515815260200191505060405180910390f35b34801561088357600080fd5b506108c4600480360381019080803573ffffffffffffffffffffffffffffffffffffffff169060200190929190803515159060200190929190505050611de1565b604051808215151515815260200191505060405180910390f35b3480156108ea57600080fd5b5061090d6004803603810190808035600019169060200190929190505050611f4a565b6040518085600019166000191681526020018473ffffffffffffffffffffffffffffffffffffffff1673ffffffffffffffffffffffffffffffffffffffff1681526020018373ffffffffffffffffffffffffffffffffffffffff1673ffffffffffffffffffffffffffffffffffffffff16815260200182815260200194505050505060405180910390f35b3480156109a457600080fd5b50610a10600480360381019080803573ffffffffffffffffffffffffffffffffffffffff1690602001909291908035600019169060200190929190803560ff16906020019092919080356000191690602001909291908035600019169060200190929190505050611fba565b604051808215151515815260200191505060405180910390f35b348015610a3657600080fd5b50610a6b600480360381019080803573ffffffffffffffffffffffffffffffffffffffff169060200190929190505050612127565b604051808215151515815260200191505060405180910390f35b348015610a9157600080fd5b50610a9a612287565b604051808273ffffffffffffffffffffffffffffffffffffffff1673ffffffffffffffffffffffffffffffffffffffff16815260200191505060405180910390f35b348015610ae857600080fd5b50610bb2600480360381019080806080019060048060200260405190810160405280929190826004602002808284378201915050505050919291929080359060200190820180359060200190808060200260200160405190810160405280939291908181526020018383602002808284378201915050505050509192919290803590602001908201803590602001908080602002602001604051908101604052809392919081815260200183836020028082843782019150505050505091929192905050506122ac565b005b348015610bc057600080fd5b50610bf360048036038101908080359060200190929190803590602001909291908035906020019092919050505061249c565b6040518082815260200191505060405180910390f35b348015610c1557600080fd5b50610c9d600480360381019080806101400190600a806020026040519081016040528092919082600a6020028082843782019150505050509192919290806080019060048060200260405190810160405280929190826004602002808284378201915050505050919291929080359060200190929190803590602001909291905050506124cc565b604051808460001916600019168152602001836000191660001916815260200182151515158152602001935050505060405180910390f35b348015610ce157600080fd5b50610d046004803603810190808035600019169060200190929190505050613364565b604051808215151515815260200191505060405180910390f35b348015610d2a57600080fd5b50610dc66004803603810190808060c001906006806020026040519081016040528092919082600660200280828437820191505050505091929192908060600190600380602002604051908101604052809291908260036020028082843782019150505050509192919290803560ff16906020019092919080356000191690602001909291908035600019169060200190929190505050613384565b604051808215151515815260200191505060405180910390f35b348015610dec57600080fd5b50610fc860048036038101908080359060200190820180359060200190808060200260200160405190810160405280939291908181526020016000905b82821015610e6e57848483905060c002016006806020026040519081016040528092919082600660200280828437820191505050505081526020019060010190610e29565b5050505050919291929080359060200190820180359060200190808060200260200160405190810160405280939291908181526020016000905b82821015610eed578484839050606002016003806020026040519081016040528092919082600360200280828437820191505050505081526020019060010190610ea8565b50505050509192919290803590602001908201803590602001908080602002602001604051908101604052809392919081815260200183836020028082843782019150505050505091929192908035906020019082018035906020019080806020026020016040519081016040528093929190818152602001838360200280828437820191505050505050919291929080359060200190820180359060200190808060200260200160405190810160405280939291908181526020018383602002808284378201915050505050509192919290505050613682565b005b348015610fd657600080fd5b50610fdf613727565b6040518080602001828103825283818151815260200191508051906020019080838360005b8381101561101f578082015181840152602081019050611004565b50505050905090810190601f16801561104c5780820380516001836020036101000a031916815260200191505b509250505060405180910390f35b600260009054906101000a900473ffffffffffffffffffffffffffffffffffffffff1681565b60008060008060009054906101000a900473ffffffffffffffffffffffffffffffffffffffff1673ffffffffffffffffffffffffffffffffffffffff163373ffffffffffffffffffffffffffffffffffffffff1614806111295750600360003373ffffffffffffffffffffffffffffffffffffffff1673ffffffffffffffffffffffffffffffffffffffff16815260200190815260200160002060009054906101000a900460ff165b151561113457600080fd5b61114088888787611330565b91508115156111525760009250611179565b61115b87613760565b9050611169888888846124cc565b50505061117788888861389c565b505b505095945050505050565b6000809054906101000a900473ffffffffffffffffffffffffffffffffffffffff1673ffffffffffffffffffffffffffffffffffffffff163373ffffffffffffffffffffffffffffffffffffffff161415156111df57600080fd5b8073ffffffffffffffffffffffffffffffffffffffff166000809054906101000a900473ffffffffffffffffffffffffffffffffffffffff1673ffffffffffffffffffffffffffffffffffffffff167fcbf985117192c8f614a58aaf97226bb80a754772f5f6edf06f87c675f2e6c66360405160405180910390a3806000806101000a81548173ffffffffffffffffffffffffffffffffffffffff021916908373ffffffffffffffffffffffffffffffffffffffff16021790555050565b60036020528060005260406000206000915054906101000a900460ff1681565b6000806000848015156112cc57fe5b868509915060008214156112e35760009250611327565b61131d6112f98588613a5590919063ffffffff16565b61130f620f424085613a5590919063ffffffff16565b613a8890919063ffffffff16565b90506103e8811192505b50509392505050565b600061133a613fa4565b611342613fa4565b6000806101206040519081016040528089600060048110151561136157fe5b602002015173ffffffffffffffffffffffffffffffffffffffff16815260200189600260048110151561139057fe5b602002015173ffffffffffffffffffffffffffffffffffffffff1681526020018960036004811015156113bf57fe5b602002015173ffffffffffffffffffffffffffffffffffffffff1681526020018a6000600a811015156113ee57fe5b602002015181526020018a6001600a8110151561140757fe5b602002015181526020018a6002600a8110151561142057fe5b602002015181526020018a6003600a8110151561143957fe5b602002015181526020018a6008600a8110151561145257fe5b602002015181526020018a6009600a8110151561146b57fe5b602002015181525093506101206040519081016040528089600160048110151561149157fe5b602002015173ffffffffffffffffffffffffffffffffffffffff1681526020018960026004811015156114c057fe5b602002015173ffffffffffffffffffffffffffffffffffffffff1681526020018960036004811015156114ef57fe5b602002015173ffffffffffffffffffffffffffffffffffffffff1681526020018a6004600a8110151561151e57fe5b602002015181526020018a6005600a8110151561153757fe5b602002015181526020018a6006600a8110151561155057fe5b602002015181526020018a6007600a8110151561156957fe5b602002015181526020018a6009600a8110151561158257fe5b602002015181526020018a6008600a8110151561159b57fe5b602002015181525092506115ae84613aa3565b91506115b983613aa3565b90506116058460000151838960006002811015156115d357fe5b60200201518960006004811015156115e757fe5b60200201518a60016004811015156115fb57fe5b6020020151611fba565b151561167d577f14301341d034ec3c62a1eabc804a79abf3b8c16e6245e82ec572346aa452fabb6001600881111561163957fe5b8383604051808460ff1660ff16815260200183600019166000191681526020018260001916600019168152602001935050505060405180910390a160009450611744565b6116c783600001518289600160028110151561169557fe5b60200201518960026004811015156116a957fe5b60200201518a60036004811015156116bd57fe5b6020020151611fba565b151561173f577f14301341d034ec3c62a1eabc804a79abf3b8c16e6245e82ec572346aa452fabb600260088111156116fb57fe5b8383604051808460ff1660ff16815260200183600019166000191681526020018260001916600019168152602001935050505060405180910390a160009450611744565b600194505b50505050949350505050565b60046020528060005260406000206000915090505481565b6000806000809054906101000a900473ffffffffffffffffffffffffffffffffffffffff1673ffffffffffffffffffffffffffffffffffffffff163373ffffffffffffffffffffffffffffffffffffffff161415156117c657600080fd5b6117d08585613c87565b9050608060405190810160405280826000191681526020018673ffffffffffffffffffffffffffffffffffffffff1681526020018573ffffffffffffffffffffffffffffffffffffffff168152602001848152506006600083600019166000191681526020019081526020016000206000820151816000019060001916905560208201518160010160006101000a81548173ffffffffffffffffffffffffffffffffffffffff021916908373ffffffffffffffffffffffffffffffffffffffff16021790555060408201518160020160006101000a81548173ffffffffffffffffffffffffffffffffffffffff021916908373ffffffffffffffffffffffffffffffffffffffff16021790555060608201518160030155905050509392505050565b60008060009054906101000a900473ffffffffffffffffffffffffffffffffffffffff1673ffffffffffffffffffffffffffffffffffffffff163373ffffffffffffffffffffffffffffffffffffffff1614151561194f57600080fd5b600073ffffffffffffffffffffffffffffffffffffffff168273ffffffffffffffffffffffffffffffffffffffff161415151561198b57600080fd5b7f18d40614e4a77383f4b7337227bdad137b4f3f9b002ef63afd3ddaa142a15f63600260009054906101000a900473ffffffffffffffffffffffffffffffffffffffff1683604051808373ffffffffffffffffffffffffffffffffffffffff1673ffffffffffffffffffffffffffffffffffffffff1681526020018273ffffffffffffffffffffffffffffffffffffffff1673ffffffffffffffffffffffffffffffffffffffff1681526020019250505060405180910390a181600260006101000a81548173ffffffffffffffffffffffffffffffffffffffff021916908373ffffffffffffffffffffffffffffffffffffffff16021790555060019050919050565b600160009054906101000a900473ffffffffffffffffffffffffffffffffffffffff1681565b600060608060606000806000806000806000809054906101000a900473ffffffffffffffffffffffffffffffffffffffff1673ffffffffffffffffffffffffffffffffffffffff163373ffffffffffffffffffffffffffffffffffffffff161480611b685750600360003373ffffffffffffffffffffffffffffffffffffffff1673ffffffffffffffffffffffffffffffffffffffff16815260200190815260200160002060009054906101000a900460ff165b1515611b7357600080fd5b8d51604051908082528060200260200182016040528015611ba35781602001602082028038833980820191505090505b5098508d51604051908082528060200260200182016040528015611bd65781602001602082028038833980820191505090505b5097508d51604051908082528060200260200182016040528015611c095781602001602082028038833980820191505090505b509650600095505b8d51861015611d6f57611c828f87815181101515611c2b57fe5b906020019060200201518f88815181101515611c4357fe5b906020019060200201518e89815181101515611c5b57fe5b906020019060200201518e8a815181101515611c7357fe5b90602001906020020151611330565b9450841515611c945760009950611dcf565b611cb48e87815181101515611ca557fe5b90602001906020020151613760565b9350611d078f87815181101515611cc757fe5b906020019060200201518f88815181101515611cdf57fe5b906020019060200201518f89815181101515611cf757fe5b90602001906020020151876124cc565b9250925092508015611d6257828987815181101515611d2257fe5b906020019060200201906000191690816000191681525050818887815181101515611d4957fe5b9060200190602002019060001916908160001916815250505b8580600101965050611c11565b611daa8f6000815181101515611d8157fe5b906020019060200201518f6000815181101515611d9a57fe5b906020019060200201518f613d91565b50611dce8e6000815181101515611dbd57fe5b906020019060200201518a8a6122ac565b5b50505050505050505095945050505050565b60008060009054906101000a900473ffffffffffffffffffffffffffffffffffffffff1673ffffffffffffffffffffffffffffffffffffffff163373ffffffffffffffffffffffffffffffffffffffff16141515611e3e57600080fd5b600073ffffffffffffffffffffffffffffffffffffffff168373ffffffffffffffffffffffffffffffffffffffff1614151515611e7a57600080fd5b7f4af650e9ee9ac50b37ec2cd3ddac7e1c69955ffc871bc3e812563775f3bc0e7d8383604051808373ffffffffffffffffffffffffffffffffffffffff1673ffffffffffffffffffffffffffffffffffffffff168152602001821515151581526020019250505060405180910390a181600360008573ffffffffffffffffffffffffffffffffffffffff1673ffffffffffffffffffffffffffffffffffffffff16815260200190815260200160002060006101000a81548160ff0219169083151502179055506001905092915050565b60066020528060005260406000206000915090508060000154908060010160009054906101000a900473ffffffffffffffffffffffffffffffffffffffff16908060020160009054906101000a900473ffffffffffffffffffffffffffffffffffffffff16908060030154905084565b600060018560405160200180807f19457468657265756d205369676e6564204d6573736167653a0a333200000000815250601c0182600019166000191681526020019150506040516020818303038152906040526040518082805190602001908083835b602083101515612043578051825260208201915060208101905060208303925061201e565b6001836020036101000a0380198251168184511680821785525050505050509050019150506040518091039020858585604051600081526020016040526040518085600019166000191681526020018460ff1660ff1681526020018360001916600019168152602001826000191660001916815260200194505050505060206040516020810390808403906000865af11580156120e4573d6000803e3d6000fd5b5050506020604051035173ffffffffffffffffffffffffffffffffffffffff168673ffffffffffffffffffffffffffffffffffffffff1614905095945050505050565b60008060009054906101000a900473ffffffffffffffffffffffffffffffffffffffff1673ffffffffffffffffffffffffffffffffffffffff163373ffffffffffffffffffffffffffffffffffffffff1614151561218457600080fd5b7fb8be72b4c168c2f7d3ea469d9f48ccbc62416784a4f6a69ca93ff13f4f36545b600160009054906101000a900473ffffffffffffffffffffffffffffffffffffffff1683604051808373ffffffffffffffffffffffffffffffffffffffff1673ffffffffffffffffffffffffffffffffffffffff1681526020018273ffffffffffffffffffffffffffffffffffffffff1673ffffffffffffffffffffffffffffffffffffffff1681526020019250505060405180910390a181600160006101000a81548173ffffffffffffffffffffffffffffffffffffffff021916908373ffffffffffffffffffffffffffffffffffffffff16021790555060019050919050565b6000809054906101000a900473ffffffffffffffffffffffffffffffffffffffff1681565b8260016004811015156122bb57fe5b60200201518360026004811015156122cf57fe5b6020020151604051602001808373ffffffffffffffffffffffffffffffffffffffff1673ffffffffffffffffffffffffffffffffffffffff166c010000000000000000000000000281526014018273ffffffffffffffffffffffffffffffffffffffff1673ffffffffffffffffffffffffffffffffffffffff166c01000000000000000000000000028152601401925050506040516020818303038152906040526040518082805190602001908083835b6020831015156123a55780518252602082019150602081019050602083039250612380565b6001836020036101000a0380198251168184511680821785525050505050509050019150506040518091039020600019167fde8acabe30c9bd25d65bb9db28bf46f51dc7500a07b1671f121f1144fbf446fc8383604051808060200180602001838103835285818151815260200191508051906020019060200280838360005b83811015612440578082015181840152602081019050612425565b50505050905001838103825284818151815260200191508051906020019060200280838360005b83811015612482578082015181840152602081019050612467565b5050505090500194505050505060405180910390a2505050565b60006124c3836124b58487613a5590919063ffffffff16565b613a8890919063ffffffff16565b90509392505050565b60008060006124d9613fa4565b6124e1613fa4565b60008060008060008060009054906101000a900473ffffffffffffffffffffffffffffffffffffffff1673ffffffffffffffffffffffffffffffffffffffff163373ffffffffffffffffffffffffffffffffffffffff16148061258d5750600360003373ffffffffffffffffffffffffffffffffffffffff1673ffffffffffffffffffffffffffffffffffffffff16815260200190815260200160002060009054906101000a900460ff165b151561259857600080fd5b610120604051908101604052808e60006004811015156125b457fe5b602002015173ffffffffffffffffffffffffffffffffffffffff1681526020018e60026004811015156125e357fe5b602002015173ffffffffffffffffffffffffffffffffffffffff1681526020018e600360048110151561261257fe5b602002015173ffffffffffffffffffffffffffffffffffffffff1681526020018f6000600a8110151561264157fe5b602002015181526020018f6001600a8110151561265a57fe5b602002015181526020018f6002600a8110151561267357fe5b602002015181526020018f6003600a8110151561268c57fe5b602002015181526020018f6008600a811015156126a557fe5b602002015181526020018f6009600a811015156126be57fe5b60200201518152509650610120604051908101604052808e60016004811015156126e457fe5b602002015173ffffffffffffffffffffffffffffffffffffffff1681526020018e600260048110151561271357fe5b602002015173ffffffffffffffffffffffffffffffffffffffff1681526020018e600360048110151561274257fe5b602002015173ffffffffffffffffffffffffffffffffffffffff1681526020018f6004600a8110151561277157fe5b602002015181526020018f6005600a8110151561278a57fe5b602002015181526020018f6006600a811015156127a357fe5b602002015181526020018f6007600a811015156127bc57fe5b602002015181526020018f6009600a811015156127d557fe5b602002015181526020018f6008600a811015156127ee57fe5b6020020151815250955061280187613aa3565b945061280c86613aa3565b935086606001516128418d60046000896000191660001916815260200190815260200160002054613f8690919063ffffffff16565b11156128bf577f14301341d034ec3c62a1eabc804a79abf3b8c16e6245e82ec572346aa452fabb6007600881111561287557fe5b8686604051808460ff1660ff16815260200183600019166000191681526020018260001916600019168152602001935050505060405180910390a184846000995099509950613353565b85606001516128f28d60046000886000191660001916815260200190815260200160002054613f8690919063ffffffff16565b1115612970577f14301341d034ec3c62a1eabc804a79abf3b8c16e6245e82ec572346aa452fabb6007600881111561292657fe5b8686604051808460ff1660ff16815260200183600019166000191681526020018260001916600019168152602001935050505060405180910390a184846000995099509950613353565b8660a001518660a0015114156129f8577f14301341d034ec3c62a1eabc804a79abf3b8c16e6245e82ec572346aa452fabb600360088111156129ae57fe5b8686604051808460ff1660ff16815260200183600019166000191681526020018260001916600019168152602001935050505060405180910390a184846000995099509950613353565b60008760a001511415612a8e57856080015187608001511015612a8d577f14301341d034ec3c62a1eabc804a79abf3b8c16e6245e82ec572346aa452fabb60046008811115612a4357fe5b8686604051808460ff1660ff16815260200183600019166000191681526020018260001916600019168152602001935050505060405180910390a184846000995099509950613353565b5b60018760a001511415612b2457866080015186608001511015612b23577f14301341d034ec3c62a1eabc804a79abf3b8c16e6245e82ec572346aa452fabb60046008811115612ad957fe5b8686604051808460ff1660ff16815260200183600019166000191681526020018260001916600019168152602001935050505060405180910390a184846000995099509950613353565b5b612b528c60046000876000191660001916815260200190815260200160002054613f8690919063ffffffff16565b60046000866000191660001916815260200190815260200160002081905550612b9f8c60046000886000191660001916815260200190815260200160002054613f8690919063ffffffff16565b600460008760001916600019168152602001908152602001600020819055508b9250612bea8b612bdc89608001518f613a5590919063ffffffff16565b613a8890919063ffffffff16565b9150612bff8c88606001518960e0015161249c565b905060008760a001511415612fac57866040015173ffffffffffffffffffffffffffffffffffffffff166323b872dd88600001518860000151856040518463ffffffff167c0100000000000000000000000000000000000000000000000000000000028152600401808473ffffffffffffffffffffffffffffffffffffffff1673ffffffffffffffffffffffffffffffffffffffff1681526020018373ffffffffffffffffffffffffffffffffffffffff1673ffffffffffffffffffffffffffffffffffffffff1681526020018281526020019350505050602060405180830381600087803b158015612cf157600080fd5b505af1158015612d05573d6000803e3d6000fd5b505050506040513d6020811015612d1b57600080fd5b81019080805190602001909291905050501515612d3757600080fd5b866040015173ffffffffffffffffffffffffffffffffffffffff166323b872dd8860000151600260009054906101000a900473ffffffffffffffffffffffffffffffffffffffff16846040518463ffffffff167c0100000000000000000000000000000000000000000000000000000000028152600401808473ffffffffffffffffffffffffffffffffffffffff1673ffffffffffffffffffffffffffffffffffffffff1681526020018373ffffffffffffffffffffffffffffffffffffffff1673ffffffffffffffffffffffffffffffffffffffff1681526020018281526020019350505050602060405180830381600087803b158015612e3857600080fd5b505af1158015612e4c573d6000803e3d6000fd5b505050506040513d6020811015612e6257600080fd5b81019080805190602001909291905050501515612e7e57600080fd5b856020015173ffffffffffffffffffffffffffffffffffffffff166323b872dd87600001518960000151866040518463ffffffff167c0100000000000000000000000000000000000000000000000000000000028152600401808473ffffffffffffffffffffffffffffffffffffffff1673ffffffffffffffffffffffffffffffffffffffff1681526020018373ffffffffffffffffffffffffffffffffffffffff1673ffffffffffffffffffffffffffffffffffffffff1681526020018281526020019350505050602060405180830381600087803b158015612f6157600080fd5b505af1158015612f75573d6000803e3d6000fd5b505050506040513d6020811015612f8b57600080fd5b81019080805190602001909291905050501515612fa757600080fd5b613348565b866020015173ffffffffffffffffffffffffffffffffffffffff166323b872dd88600001518860000151866040518463ffffffff167c0100000000000000000000000000000000000000000000000000000000028152600401808473ffffffffffffffffffffffffffffffffffffffff1673ffffffffffffffffffffffffffffffffffffffff1681526020018373ffffffffffffffffffffffffffffffffffffffff1673ffffffffffffffffffffffffffffffffffffffff1681526020018281526020019350505050602060405180830381600087803b15801561308f57600080fd5b505af11580156130a3573d6000803e3d6000fd5b505050506040513d60208110156130b957600080fd5b810190808051906020019092919050505015156130d557600080fd5b856040015173ffffffffffffffffffffffffffffffffffffffff166323b872dd8760000151600260009054906101000a900473ffffffffffffffffffffffffffffffffffffffff16846040518463ffffffff167c0100000000000000000000000000000000000000000000000000000000028152600401808473ffffffffffffffffffffffffffffffffffffffff1673ffffffffffffffffffffffffffffffffffffffff1681526020018373ffffffffffffffffffffffffffffffffffffffff1673ffffffffffffffffffffffffffffffffffffffff1681526020018281526020019350505050602060405180830381600087803b1580156131d657600080fd5b505af11580156131ea573d6000803e3d6000fd5b505050506040513d602081101561320057600080fd5b8101908080519060200190929190505050151561321c57600080fd5b856040015173ffffffffffffffffffffffffffffffffffffffff166323b872dd876000015189600001518486036040518463ffffffff167c0100000000000000000000000000000000000000000000000000000000028152600401808473ffffffffffffffffffffffffffffffffffffffff1673ffffffffffffffffffffffffffffffffffffffff1681526020018373ffffffffffffffffffffffffffffffffffffffff1673ffffffffffffffffffffffffffffffffffffffff1681526020018281526020019350505050602060405180830381600087803b15801561330157600080fd5b505af1158015613315573d6000803e3d6000fd5b505050506040513d602081101561332b57600080fd5b8101908080519060200190929190505050151561334757600080fd5b5b848460019950995099505b505050505050509450945094915050565b60056020528060005260406000206000915054906101000a900460ff1681565b600061338e613fa4565b6000610120604051908101604052808860006003811015156133ac57fe5b602002015173ffffffffffffffffffffffffffffffffffffffff1681526020018860016003811015156133db57fe5b602002015173ffffffffffffffffffffffffffffffffffffffff16815260200188600260038110151561340a57fe5b602002015173ffffffffffffffffffffffffffffffffffffffff16815260200189600060068110151561343957fe5b6020020151815260200189600160068110151561345257fe5b6020020151815260200189600260068110151561346b57fe5b6020020151815260200189600360068110151561348457fe5b6020020151815260200189600560068110151561349d57fe5b602002015181526020018960046006811015156134b657fe5b602002015181525091506134c982613aa3565b90506134d83382888888611fba565b1515613543577f14301341d034ec3c62a1eabc804a79abf3b8c16e6245e82ec572346aa452fabb6000600881111561350c57fe5b82604051808360ff1660ff16815260200182600019166000191681526020016020019250505060405180910390a160009250613677565b8160600151600460008360001916600019168152602001908152602001600020819055507fb00984fe824f4973f31e8a414157f54cb4ee29bc2100149ba22a094d0bfd551881836000015184602001518560400151866060015187608001518860a001516040518088600019166000191681526020018773ffffffffffffffffffffffffffffffffffffffff1673ffffffffffffffffffffffffffffffffffffffff1681526020018673ffffffffffffffffffffffffffffffffffffffff1673ffffffffffffffffffffffffffffffffffffffff1681526020018573ffffffffffffffffffffffffffffffffffffffff1673ffffffffffffffffffffffffffffffffffffffff16815260200184815260200183815260200182815260200197505050505050505060405180910390a1600192505b505095945050505050565b60008090505b845181101561371f5761371186828151811015156136a257fe5b9060200190602002015186838151811015156136ba57fe5b9060200190602002015186848151811015156136d257fe5b9060200190602002015186858151811015156136ea57fe5b90602001906020020151868681518110151561370257fe5b90602001906020020151613384565b508080600101915050613688565b505050505050565b6040805190810160405280600581526020017f312e302e3000000000000000000000000000000000000000000000000000000081525081565b60008061376b614033565b61379b84600260048110151561377d57fe5b602002015185600360048110151561379157fe5b6020020151613c87565b9150600660008360001916600019168152602001908152602001600020608060405190810160405290816000820154600019166000191681526020016001820160009054906101000a900473ffffffffffffffffffffffffffffffffffffffff1673ffffffffffffffffffffffffffffffffffffffff1673ffffffffffffffffffffffffffffffffffffffff1681526020016002820160009054906101000a900473ffffffffffffffffffffffffffffffffffffffff1673ffffffffffffffffffffffffffffffffffffffff1673ffffffffffffffffffffffffffffffffffffffff1681526020016003820154815250509050806060015192505050919050565b600080600080600080886004600a811015156138b457fe5b60200201519450886008600a811015156138ca57fe5b602002015193508760016004811015156138e057fe5b602002015192508760036004811015156138f657fe5b6020020151915061390887868661249c565b90508173ffffffffffffffffffffffffffffffffffffffff166323b872dd84600260009054906101000a900473ffffffffffffffffffffffffffffffffffffffff16846040518463ffffffff167c0100000000000000000000000000000000000000000000000000000000028152600401808473ffffffffffffffffffffffffffffffffffffffff1673ffffffffffffffffffffffffffffffffffffffff1681526020018373ffffffffffffffffffffffffffffffffffffffff1673ffffffffffffffffffffffffffffffffffffffff1681526020018281526020019350505050602060405180830381600087803b158015613a0357600080fd5b505af1158015613a17573d6000803e3d6000fd5b505050506040513d6020811015613a2d57600080fd5b81019080805190602001909291905050501515613a4957600080fd5b50505050509392505050565b60008082840290506000841480613a765750828482811515613a7357fe5b04145b1515613a7e57fe5b8091505092915050565b6000808284811515613a9657fe5b0490508091505092915050565b600030826000015183602001518460400151856060015186608001518760a001518860c001518960e001518a6101000151604051602001808b73ffffffffffffffffffffffffffffffffffffffff1673ffffffffffffffffffffffffffffffffffffffff166c010000000000000000000000000281526014018a73ffffffffffffffffffffffffffffffffffffffff1673ffffffffffffffffffffffffffffffffffffffff166c010000000000000000000000000281526014018973ffffffffffffffffffffffffffffffffffffffff1673ffffffffffffffffffffffffffffffffffffffff166c010000000000000000000000000281526014018873ffffffffffffffffffffffffffffffffffffffff1673ffffffffffffffffffffffffffffffffffffffff166c010000000000000000000000000281526014018781526020018681526020018581526020018481526020018381526020018281526020019a50505050505050505050506040516020818303038152906040526040518082805190602001908083835b602083101515613c535780518252602082019150602081019050602083039250613c2e565b6001836020036101000a03801982511681845116808217855250505050505090500191505060405180910390209050919050565b60008282604051602001808373ffffffffffffffffffffffffffffffffffffffff1673ffffffffffffffffffffffffffffffffffffffff166c010000000000000000000000000281526014018273ffffffffffffffffffffffffffffffffffffffff1673ffffffffffffffffffffffffffffffffffffffff166c01000000000000000000000000028152601401925050506040516020818303038152906040526040518082805190602001908083835b602083101515613d5c5780518252602082019150602081019050602083039250613d37565b6001836020036101000a0380198251168184511680821785525050505050509050019150506040518091039020905092915050565b6000806000806000806000808a6004600a81101515613dac57fe5b602002015196508a6008600a81101515613dc257fe5b60200201519550896001600481101515613dd857fe5b60200201519450896003600481101515613dee57fe5b60200201519350600091505b8851821015613e2c578882815181101515613e1157fe5b90602001906020020151830192508180600101925050613dfa565b613e3783888861249c565b90508373ffffffffffffffffffffffffffffffffffffffff166323b872dd86600260009054906101000a900473ffffffffffffffffffffffffffffffffffffffff16846040518463ffffffff167c0100000000000000000000000000000000000000000000000000000000028152600401808473ffffffffffffffffffffffffffffffffffffffff1673ffffffffffffffffffffffffffffffffffffffff1681526020018373ffffffffffffffffffffffffffffffffffffffff1673ffffffffffffffffffffffffffffffffffffffff1681526020018281526020019350505050602060405180830381600087803b158015613f3257600080fd5b505af1158015613f46573d6000803e3d6000fd5b505050506040513d6020811015613f5c57600080fd5b81019080805190602001909291905050501515613f7857600080fd5b505050505050509392505050565b6000808284019050838110151515613f9a57fe5b8091505092915050565b61012060405190810160405280600073ffffffffffffffffffffffffffffffffffffffff168152602001600073ffffffffffffffffffffffffffffffffffffffff168152602001600073ffffffffffffffffffffffffffffffffffffffff1681526020016000815260200160008152602001600081526020016000815260200160008152602001600081525090565b60806040519081016040528060008019168152602001600073ffffffffffffffffffffffffffffffffffffffff168152602001600073ffffffffffffffffffffffffffffffffffffffff1681526020016000815250905600a165627a7a723058206d353f61b6b212801c2987b32a80163fd59d713d33080ddd12ef58356a2224a00029",
  "source": "pragma solidity 0.4.24;\n\nimport './utils/SafeMath.sol';\nimport './utils/Owned.sol';\nimport './interfaces/ERC20.sol';\n\ncontract Exchange is Owned {\n    using SafeMath for uint256;\n\n    enum Errors {\n        SIGNATURE_INVALID,                      // Signature is invalid\n        MAKER_SIGNATURE_INVALID,                // Maker signature is invalid\n        TAKER_SIGNATURE_INVALID,                // Taker signature is invalid\n        SIDES_INVALID,\n        PRICE_INVALID,\n        ORDER_EXPIRED,                          // Order has already expired\n        TRADE_ALREADY_COMPLETED_OR_CANCELLED,   // Trade has already been completed or it has been cancelled by taker\n        TRADE_AMOUNT_TOO_BIG,                   // Trade buyToken amount bigger than the remianing amountBuy\n        ROUNDING_ERROR_TOO_LARGE                // Rounding error too large\n    }\n\n    string constant public VERSION = \"1.0.0\";\n\n    address public wethToken;\n    address public rewardAccount;\n    mapping(address => bool) public operators;\n    mapping(bytes32 => uint) public filled;       // Mappings of orderHash => amount of amountBuy filled.\n    mapping(bytes32 => bool) public traded;       // Mappings of tradeHash => bool value representing whether the trade is completed(true) or incomplete(false).\n    mapping(bytes32 => Pair) public pairs;\n\n    event LogWethTokenUpdate(address oldWethToken, address newWethToken);\n    event LogRewardAccountUpdate(address oldRewardAccount, address newRewardAccount);\n    event LogOperatorUpdate(address operator, bool isOperator);\n\n    event LogBatchTrades(\n      bytes32[] makerOrderHashes,\n      bytes32[] takerOrderHashes,\n      bytes32 indexed tokenPairHash\n    );\n\n    event LogTrade(\n        address indexed maker,\n        address indexed taker,\n        address tokenSell,\n        address tokenBuy,\n        uint256 filledAmountSell,\n        uint256 filledAmountBuy,\n        uint paidFeeMake,\n        uint paidFeeTake,\n        bytes32 orderHash,\n        bytes32 tradeHash,\n        bytes32 indexed tokenPairHash // keccak256(makerToken, takerToken), allows subscribing to a token pair\n    );\n\n    event LogError(\n        uint8 errorId,\n        bytes32 makerOrderHash,\n        bytes32 takerOrderHash\n    );\n\n    event LogCancelOrder(\n        bytes32 orderHash,\n        address userAddress,\n        address baseToken,\n        address quoteToken,\n        uint256 amount,\n        uint256 pricepoint,\n        uint256 side\n    );\n\n    struct Pair {\n      bytes32 pairID;\n      address baseToken;\n      address quoteToken;\n      uint256 pricepointMultiplier;\n    }\n\n    struct Order {\n      address userAddress;\n      address baseToken;\n      address quoteToken;\n      uint256 amount;\n      uint256 pricepoint;\n      uint256 side;\n      uint256 salt;\n      uint256 feeMake;\n      uint256 feeTake;\n    }\n\n    struct Trade {\n        bytes32 orderHash;  // Keccak-256 hash of the order to which the trade is linked\n        uint256 amount;     // The amount of buy tokens asked in the order\n        uint256 tradeNonce; // A taker wise unique incrementing integer value assigned to the trade\n        address taker;      // Ethereum address of the trade taker\n    }\n\n    modifier onlyOperator {\n        require(msg.sender == owner || operators[msg.sender]);\n        _;\n    }\n\n    constructor(address _wethToken, address _rewardAccount) public {\n        wethToken = _wethToken;\n        rewardAccount = _rewardAccount;\n    }\n\n    function registerPair(address _baseToken, address _quoteToken, uint256 _pricepointMultiplier) public onlyOwner returns (bool) {\n      bytes32 pairID = getPairHash(_baseToken, _quoteToken);\n\n      pairs[pairID] = Pair({\n        pairID: pairID,\n        baseToken: _baseToken,\n        quoteToken: _quoteToken,\n        pricepointMultiplier: _pricepointMultiplier\n      });\n    }\n\n    /// @dev Sets the address of WETH token.\n    /// @param _wethToken An address to set as WETH token address.\n    /// @return Success on setting WETH token address.\n    function setWethToken(address _wethToken) public onlyOwner returns (bool) {\n        emit LogWethTokenUpdate(wethToken,_wethToken);\n        wethToken = _wethToken;\n        return true;\n    }\n\n    /// @dev Sets the address of fees account.\n    /// @param _rewardAccount An address to set as fees account.\n    /// @return Success on setting fees account.\n    function setFeeAccount(address _rewardAccount) public onlyOwner returns (bool) {\n        require(_rewardAccount != address(0));\n        emit LogRewardAccountUpdate(rewardAccount,_rewardAccount);\n        rewardAccount = _rewardAccount;\n        return true;\n    }\n\n    /// @dev Sets or unset's an operator.\n    /// @param _operator The address of operator to set.\n    /// @param _isOperator Bool value indicating whether the address is operator or not.\n    /// @return Success on setting an operator.\n    function setOperator(address _operator, bool _isOperator) public onlyOwner returns (bool) {\n        require(_operator != address(0));\n        emit LogOperatorUpdate(_operator,_isOperator);\n        operators[_operator] = _isOperator;\n        return true;\n    }\n\n    function executeBatchTrades(\n      uint256[10][] orderValues,\n      address[4][] orderAddresses,\n      uint256[] amounts,\n      uint8[2][] memory v,\n      bytes32[4][] memory rs\n    ) public onlyOperator returns (bool)\n    {\n      bytes32[] memory makerOrderHashes = new bytes32[](orderAddresses.length);\n      bytes32[] memory takerOrderHashes = new bytes32[](orderAddresses.length);\n      bytes32[] memory tradeHashes = new bytes32[](orderAddresses.length);\n\n      for (uint i = 0; i < orderAddresses.length; i++) {\n        bool valid = validateSignatures(\n          orderValues[i],\n          orderAddresses[i],\n          v[i],\n          rs[i]\n        );\n\n        if (!valid) return false;\n\n        uint256 pricepointMultiplier = validatePair(orderAddresses[i]);\n        var (makerOrderHash, takerOrderHash, traded) = executeTrade(\n          orderValues[i],\n          orderAddresses[i],\n          amounts[i],\n          pricepointMultiplier\n        );\n\n        if (traded) {\n          makerOrderHashes[i] = makerOrderHash;\n          takerOrderHashes[i] = takerOrderHash;\n        }\n      }\n\n      payTakerFees(\n        orderValues[0], //takerOrder.amount\n        orderAddresses[0], //takerOrder.feeTake\n        amounts\n      );\n\n      emitLog(\n        orderAddresses[0],\n        makerOrderHashes,\n        takerOrderHashes\n      );\n    }\n\n\n\n    function executeSingleTrade(\n      uint256[10] orderValues,\n      address[4] orderAddresses,\n      uint256 amount,\n      uint8[2] memory v,\n      bytes32[4] memory rs\n    ) public onlyOperator returns (bool)\n    {\n      bool valid = validateSignatures(\n        orderValues,\n        orderAddresses,\n        v,\n        rs\n      );\n\n      if (!valid) return false;\n\n      uint256 pricepointMultiplier = validatePair(orderAddresses);\n      executeTrade(\n        orderValues,\n        orderAddresses,\n        amount,\n        pricepointMultiplier\n      );\n\n      paySingleTradeTakerFees(\n        orderValues, //takerOrder.amount\n        orderAddresses, //takerOrder.userAddress\n        amount\n      );\n    }\n\n    function validatePair(\n      address[4] orderAddresses\n    ) internal returns (uint256) {\n      bytes32 pairID = getPairHash(orderAddresses[2], orderAddresses[3]);\n      Pair memory pair = pairs[pairID];\n\n      return pair.pricepointMultiplier;\n    }\n\n\n    function validateSignatures(\n      uint256[10] orderValues,\n      address[4] orderAddresses,\n      uint8[2] memory v,\n      bytes32[4] memory rs\n    ) public returns (bool)\n    {\n        Order memory makerOrder = Order({\n          userAddress: orderAddresses[0],\n          baseToken: orderAddresses[2],\n          quoteToken: orderAddresses[3],\n          amount: orderValues[0],\n          pricepoint: orderValues[1],\n          side: orderValues[2],\n          salt: orderValues[3],\n          feeMake: orderValues[8],\n          feeTake: orderValues[9]\n        });\n\n        Order memory takerOrder = Order({\n          userAddress: orderAddresses[1],\n          baseToken: orderAddresses[2],\n          quoteToken: orderAddresses[3],\n          amount: orderValues[4],\n          pricepoint: orderValues[5],\n          side: orderValues[6],\n          salt: orderValues[7],\n          feeTake: orderValues[8],\n          feeMake: orderValues[9]\n        });\n\n        bytes32 makerOrderHash = getOrderHash(makerOrder);\n        bytes32 takerOrderHash = getOrderHash(takerOrder);\n\n        if (!isValidSignature(makerOrder.userAddress, makerOrderHash, v[0], rs[0], rs[1])) {\n            emit LogError(uint8(Errors.MAKER_SIGNATURE_INVALID), makerOrderHash, takerOrderHash);\n            return false;\n        }\n\n        if (!isValidSignature(takerOrder.userAddress, takerOrderHash, v[1], rs[2], rs[3])) {\n            emit LogError(uint8(Errors.TAKER_SIGNATURE_INVALID), makerOrderHash, takerOrderHash);\n            return false;\n        }\n\n        return true;\n    }\n\n    /*\n    * Core exchange functions\n    */\n    function executeTrade(\n        uint256[10] orderValues,\n        address[4] orderAddresses,\n        uint256 amount,\n        uint256 pricepointMultiplier\n    ) public onlyOperator returns (bytes32, bytes32, bool)\n    {\n        Order memory makerOrder = Order({\n          userAddress: orderAddresses[0],\n          baseToken: orderAddresses[2],\n          quoteToken: orderAddresses[3],\n          amount: orderValues[0],\n          pricepoint: orderValues[1],\n          side: orderValues[2],\n          salt: orderValues[3],\n          feeMake: orderValues[8],\n          feeTake: orderValues[9]\n        });\n\n        Order memory takerOrder = Order({\n          userAddress: orderAddresses[1],\n          baseToken: orderAddresses[2],\n          quoteToken: orderAddresses[3],\n          amount: orderValues[4],\n          pricepoint: orderValues[5],\n          side: orderValues[6],\n          salt: orderValues[7],\n          feeTake: orderValues[8],\n          feeMake: orderValues[9]\n        });\n\n        bytes32 makerOrderHash = getOrderHash(makerOrder);\n        bytes32 takerOrderHash = getOrderHash(takerOrder);\n\n        if ((filled[makerOrderHash].add(amount)) > makerOrder.amount) {\n          emit LogError(uint8(Errors.TRADE_AMOUNT_TOO_BIG), makerOrderHash, takerOrderHash);\n          return (makerOrderHash, takerOrderHash, false);\n        }\n\n        if ((filled[takerOrderHash].add(amount)) > takerOrder.amount) {\n          emit LogError(uint8(Errors.TRADE_AMOUNT_TOO_BIG), makerOrderHash, takerOrderHash);\n          return (makerOrderHash, takerOrderHash, false);\n        }\n\n        //TODO force side = 0 or 1\n        if (takerOrder.side == makerOrder.side) {\n          emit LogError(uint8(Errors.SIDES_INVALID), makerOrderHash, takerOrderHash);\n          return (makerOrderHash, takerOrderHash, false);\n        }\n\n        if (makerOrder.side == 0) { //makerOrder is a buy\n          if (makerOrder.pricepoint < takerOrder.pricepoint) { //buy price < sell price\n            emit LogError(uint8(Errors.PRICE_INVALID), makerOrderHash, takerOrderHash);\n            return (makerOrderHash, takerOrderHash, false);\n          }\n        }\n\n        if (makerOrder.side == 1) { //takerOrder is a buy\n          if (takerOrder.pricepoint < makerOrder.pricepoint) {\n            emit LogError(uint8(Errors.PRICE_INVALID), makerOrderHash, takerOrderHash);\n            return (makerOrderHash, takerOrderHash, false);\n          }\n        }\n\n        filled[takerOrderHash] = (filled[takerOrderHash].add(amount));\n        filled[makerOrderHash] = (filled[makerOrderHash].add(amount));\n\n        uint256 baseTokenAmount = amount;\n        uint256 quoteTokenAmount = (amount.mul(makerOrder.pricepoint)).div(pricepointMultiplier);\n        uint256 fee = getPartialAmount(amount, makerOrder.amount, makerOrder.feeMake);\n\n        if (makerOrder.side == 0) {\n          require(ERC20(makerOrder.quoteToken).transferFrom(makerOrder.userAddress, takerOrder.userAddress, quoteTokenAmount));\n          require(ERC20(makerOrder.quoteToken).transferFrom(makerOrder.userAddress, rewardAccount, fee));\n          require(ERC20(takerOrder.baseToken).transferFrom(takerOrder.userAddress, makerOrder.userAddress, baseTokenAmount));\n        } else {\n          require(ERC20(makerOrder.baseToken).transferFrom(makerOrder.userAddress, takerOrder.userAddress, baseTokenAmount));\n          require(ERC20(takerOrder.quoteToken).transferFrom(takerOrder.userAddress, rewardAccount, fee));\n          require(ERC20(takerOrder.quoteToken).transferFrom(takerOrder.userAddress, makerOrder.userAddress, quoteTokenAmount - fee));\n        }\n\n      return (makerOrderHash, takerOrderHash, true);\n    }\n\n\n    function paySingleTradeTakerFees(\n      uint256[10] orderValues,\n      address[4] orderAddresses,\n      uint256 amount\n    ) internal returns (bool)\n    {\n      uint256 takerOrderAmount = orderValues[4];\n      uint256 feeTake = orderValues[8];\n      address userAddress = orderAddresses[1];\n      address quoteToken = orderAddresses[3];\n\n\n      uint256 fee = getPartialAmount(amount, takerOrderAmount, feeTake);\n      require(ERC20(quoteToken).transferFrom(userAddress, rewardAccount, fee));\n    }\n\n\n    function payTakerFees(\n      uint256[10] orderValues,\n      address[4] orderAddresses,\n      uint256[] amounts\n    ) internal returns (bool)\n    {\n      uint256 takerOrderAmount = orderValues[4];\n      uint256 feeTake = orderValues[8];\n      address userAddress = orderAddresses[1];\n      address quoteToken = orderAddresses[3];\n\n      uint256 totalAmount;\n      for (uint i = 0; i < amounts.length; i++) {\n        totalAmount = totalAmount + amounts[i];\n      }\n\n      uint256 fee = getPartialAmount(totalAmount, takerOrderAmount, feeTake);\n      require(ERC20(quoteToken).transferFrom(userAddress, rewardAccount, fee));\n    }\n\n\n    function batchCancelOrders(\n      uint256[6][] orderValues,\n      address[3][] orderAddresses,\n      uint8[] v,\n      bytes32[] r,\n      bytes32[] s\n    ) public\n    {\n      for (uint i = 0; i < orderAddresses.length; i++) {\n        cancelOrder(\n          orderValues[i],\n          orderAddresses[i],\n          v[i],\n          r[i],\n          s[i]\n        );\n      }\n    }\n\n    /// @dev Cancels the input order.\n    /// @param orderValues Array of order's amountBuy, amountSell, expires, nonce, feeMake & feeTake values.\n    /// @param orderAddresses Array of order's tokenBuy, tokenSell & maker addresses.\n    /// @param v ECDSA signature parameter v.\n    /// @param r ECDSA signature parameters r.\n    /// @param s ECDSA signature parameters s.\n    /// @return Success or failure of order cancellation.\n    function cancelOrder(\n        uint256[6] orderValues,\n        address[3] orderAddresses,\n        uint8 v,\n        bytes32 r,\n        bytes32 s\n    ) public returns (bool)\n    {\n\n      Order memory order = Order({\n        userAddress: orderAddresses[0],\n        baseToken: orderAddresses[1],\n        quoteToken: orderAddresses[2],\n        amount: orderValues[0],\n        pricepoint: orderValues[1],\n        side: orderValues[2],\n        salt: orderValues[3],\n        feeTake: orderValues[4],\n        feeMake: orderValues[5]\n      });\n\n        bytes32 orderHash = getOrderHash(order);\n\n        if (!isValidSignature(msg.sender, orderHash, v, r, s)) {\n            emit LogError(uint8(Errors.SIGNATURE_INVALID), orderHash, \"\");\n            return false;\n        }\n\n        filled[orderHash] = order.amount;\n        emit LogCancelOrder(\n            orderHash,\n            order.userAddress,\n            order.baseToken,\n            order.quoteToken,\n            order.amount,\n            order.pricepoint,\n            order.side\n        );\n\n        return true;\n    }\n\n    /*\n    * Pure public functions\n    */\n\n    /// @dev Verifies that a signature is valid.\n    /// @param signer address of signer.\n    /// @param hash Signed Keccak-256 hash.\n    /// @param v ECDSA signature parameter v.\n    /// @param r ECDSA signature parameters r.\n    /// @param s ECDSA signature parameters s.\n    /// @return Validity of order signature.\n    function isValidSignature(\n        address signer,\n        bytes32 hash,\n        uint8 v,\n        bytes32 r,\n        bytes32 s)\n    public\n    pure\n    returns (bool)\n    {\n        return signer == ecrecover(\n            keccak256(abi.encodePacked(\"\\x19Ethereum Signed Message:\\n32\", hash)),\n            v,\n            r,\n            s\n        );\n    }\n\n    /// @dev Checks if rounding error > 0.1%.\n    /// @param numerator Numerator.\n    /// @param denominator Denominator.\n    /// @param target Value to multiply with numerator/denominator.\n    /// @return Rounding error is present.\n    function isRoundingError(uint numerator, uint denominator, uint target)\n    public\n    pure\n    returns (bool)\n    {\n        uint remainder = mulmod(target, numerator, denominator);\n        if (remainder == 0) return false;\n        // No rounding error.\n\n        uint errPercentageTimes1000000 = (remainder.mul(1000000)).div(numerator.mul(target));\n        return errPercentageTimes1000000 > 1000;\n    }\n\n    /// @dev Calculates partial value given a numerator and denominator.\n    /// @param numerator Numerator.\n    /// @param denominator Denominator.\n    /// @param target Value to calculate partial of.\n    /// @return Partial value of target.\n    function getPartialAmount(uint numerator, uint denominator, uint target)\n    public\n    pure\n    returns (uint)\n    {\n        return (numerator.mul(target)).div(denominator);\n    }\n\n\n    /*\n    *   Internal functions\n    */\n\n    function getPairHash(address _baseToken, address _quoteToken)\n    internal\n    view\n    returns (bytes32)\n    {\n        return keccak256(abi.encodePacked(\n          _baseToken,\n          _quoteToken\n        ));\n    }\n\n\n    /// @dev Calculates Keccak-256 hash of order.\n    /// @param order Order that will be hased.\n    /// @return Keccak-256 hash of order.\n    function getOrderHash(Order order)\n    internal\n    view\n    returns (bytes32)\n    {\n        return keccak256(abi.encodePacked(\n                address(this),\n                order.userAddress,\n                order.baseToken,\n                order.quoteToken,\n                order.amount,\n                order.pricepoint,\n                order.side,\n                order.salt,\n                order.feeMake,\n                order.feeTake\n            ));\n    }\n\n    function emitLog(\n      address[4] orderAddresses,\n      bytes32[] makerOrderHashes,\n      bytes32[] takerOrderHashes\n    ) public {\n\n      emit LogBatchTrades(\n        makerOrderHashes,\n        takerOrderHashes,\n        keccak256(abi.encodePacked(orderAddresses[1], orderAddresses[2]))\n      );\n    }\n\n}\n\n// if (isRoundingError(trade.amount, order.amountBuy, order.amountSell)) {\n//             emit LogError(uint8(Errors.ROUNDING_ERROR_TOO_LARGE), orderHash, tradeHash);\n//             return (orderHash, tradeHash, 0);\n//         }",
  "sourcePath": "/Users/davidvanisacker/Programming/Ethereum/Proofsuite/amp-dex/contracts/Exchange.sol",
  "compiler": {
    "name": "solc",
    "version": "0.4.24+commit.e67f0147.Emscripten.clang"
  },
  "schemaVersion": "2.0.1",
  "updatedAt": "2018-11-16T13:12:03.609Z"
}