{
  "contractName": "Exchange",
  "abi": [
    {
      "constant": true,
      "inputs": [
        {
          "name": "",
          "type": "address"
        }
      ],
      "name": "lastTransaction",
      "outputs": [
        {
          "name": "",
          "type": "uint256"
        }
      ],
      "payable": false,
      "stateMutability": "view",
      "type": "function"
    },
    {
      "constant": false,
      "inputs": [
        {
          "name": "newOwner",
          "type": "address"
        }
      ],
      "name": "setOwner",
      "outputs": [],
      "payable": false,
      "stateMutability": "nonpayable",
      "type": "function"
    },
    {
      "constant": true,
      "inputs": [
        {
          "name": "",
          "type": "bytes32"
        }
      ],
      "name": "withdrawn",
      "outputs": [
        {
          "name": "",
          "type": "bool"
        }
      ],
      "payable": false,
      "stateMutability": "view",
      "type": "function"
    },
    {
      "constant": true,
      "inputs": [
        {
          "name": "",
          "type": "address"
        }
      ],
      "name": "admins",
      "outputs": [
        {
          "name": "",
          "type": "bool"
        }
      ],
      "payable": false,
      "stateMutability": "view",
      "type": "function"
    },
    {
      "constant": true,
      "inputs": [
        {
          "name": "",
          "type": "address"
        },
        {
          "name": "",
          "type": "address"
        }
      ],
      "name": "tokens",
      "outputs": [
        {
          "name": "",
          "type": "uint256"
        }
      ],
      "payable": false,
      "stateMutability": "view",
      "type": "function"
    },
    {
      "constant": true,
      "inputs": [],
      "name": "feeAccount",
      "outputs": [
        {
          "name": "",
          "type": "address"
        }
      ],
      "payable": false,
      "stateMutability": "view",
      "type": "function"
    },
    {
      "constant": true,
      "inputs": [],
      "name": "owner",
      "outputs": [
        {
          "name": "",
          "type": "address"
        }
      ],
      "payable": false,
      "stateMutability": "view",
      "type": "function"
    },
    {
      "constant": true,
      "inputs": [
        {
          "name": "",
          "type": "bytes32"
        }
      ],
      "name": "transferred",
      "outputs": [
        {
          "name": "",
          "type": "bool"
        }
      ],
      "payable": false,
      "stateMutability": "view",
      "type": "function"
    },
    {
      "constant": true,
      "inputs": [
        {
          "name": "",
          "type": "bytes32"
        }
      ],
      "name": "traded",
      "outputs": [
        {
          "name": "",
          "type": "bool"
        }
      ],
      "payable": false,
      "stateMutability": "view",
      "type": "function"
    },
    {
      "constant": true,
      "inputs": [],
      "name": "withdrawalSecurityPeriod",
      "outputs": [
        {
          "name": "",
          "type": "uint256"
        }
      ],
      "payable": false,
      "stateMutability": "view",
      "type": "function"
    },
    {
      "constant": true,
      "inputs": [
        {
          "name": "",
          "type": "bytes32"
        }
      ],
      "name": "orderFills",
      "outputs": [
        {
          "name": "",
          "type": "uint256"
        }
      ],
      "payable": false,
      "stateMutability": "view",
      "type": "function"
    },
    {
      "constant": true,
      "inputs": [
        {
          "name": "",
          "type": "address"
        }
      ],
      "name": "protectedFunds",
      "outputs": [
        {
          "name": "",
          "type": "uint256"
        }
      ],
      "payable": false,
      "stateMutability": "view",
      "type": "function"
    },
    {
      "inputs": [
        {
          "name": "_feeAccount",
          "type": "address"
        }
      ],
      "payable": false,
      "stateMutability": "nonpayable",
      "type": "constructor"
    },
    {
      "payable": false,
      "stateMutability": "nonpayable",
      "type": "fallback"
    },
    {
      "anonymous": false,
      "inputs": [
        {
          "indexed": false,
          "name": "tokenBuy",
          "type": "address"
        },
        {
          "indexed": false,
          "name": "tokenSell",
          "type": "address"
        },
        {
          "indexed": false,
          "name": "maker",
          "type": "address"
        },
        {
          "indexed": false,
          "name": "taker",
          "type": "address"
        },
        {
          "indexed": false,
          "name": "amount",
          "type": "uint256"
        },
        {
          "indexed": false,
          "name": "hsh",
          "type": "bytes32"
        }
      ],
      "name": "LogTrade",
      "type": "event"
    },
    {
      "anonymous": false,
      "inputs": [
        {
          "indexed": false,
          "name": "token",
          "type": "address"
        },
        {
          "indexed": false,
          "name": "user",
          "type": "address"
        },
        {
          "indexed": false,
          "name": "amount",
          "type": "uint256"
        },
        {
          "indexed": false,
          "name": "balance",
          "type": "uint256"
        }
      ],
      "name": "LogDeposit",
      "type": "event"
    },
    {
      "anonymous": false,
      "inputs": [
        {
          "indexed": false,
          "name": "token",
          "type": "address"
        },
        {
          "indexed": false,
          "name": "user",
          "type": "address"
        },
        {
          "indexed": false,
          "name": "amount",
          "type": "uint256"
        },
        {
          "indexed": false,
          "name": "balance",
          "type": "uint256"
        }
      ],
      "name": "LogWithdraw",
      "type": "event"
    },
    {
      "anonymous": false,
      "inputs": [
        {
          "indexed": false,
          "name": "token",
          "type": "address"
        },
        {
          "indexed": false,
          "name": "user",
          "type": "address"
        },
        {
          "indexed": false,
          "name": "amount",
          "type": "uint256"
        },
        {
          "indexed": false,
          "name": "balance",
          "type": "uint256"
        }
      ],
      "name": "LogSecurityWithdraw",
      "type": "event"
    },
    {
      "anonymous": false,
      "inputs": [
        {
          "indexed": false,
          "name": "token",
          "type": "address"
        },
        {
          "indexed": false,
          "name": "recipient",
          "type": "address"
        }
      ],
      "name": "LogTransfer",
      "type": "event"
    },
    {
      "anonymous": false,
      "inputs": [
        {
          "indexed": false,
          "name": "tokenBuy",
          "type": "address"
        },
        {
          "indexed": false,
          "name": "amountBuy",
          "type": "uint256"
        },
        {
          "indexed": false,
          "name": "tokenSell",
          "type": "address"
        },
        {
          "indexed": false,
          "name": "amountSell",
          "type": "uint256"
        },
        {
          "indexed": false,
          "name": "expires",
          "type": "uint256"
        },
        {
          "indexed": false,
          "name": "nonce",
          "type": "uint256"
        },
        {
          "indexed": false,
          "name": "maker",
          "type": "address"
        },
        {
          "indexed": false,
          "name": "v",
          "type": "uint8"
        },
        {
          "indexed": false,
          "name": "r",
          "type": "bytes32"
        },
        {
          "indexed": false,
          "name": "s",
          "type": "bytes32"
        }
      ],
      "name": "LogCancelOrder",
      "type": "event"
    },
    {
      "anonymous": false,
      "inputs": [
        {
          "indexed": false,
          "name": "errorId",
          "type": "uint8"
        },
        {
          "indexed": false,
          "name": "orderHash",
          "type": "bytes32"
        }
      ],
      "name": "LogError",
      "type": "event"
    },
    {
      "anonymous": false,
      "inputs": [
        {
          "indexed": false,
          "name": "key",
          "type": "string"
        },
        {
          "indexed": false,
          "name": "value",
          "type": "bytes32"
        }
      ],
      "name": "Log",
      "type": "event"
    },
    {
      "anonymous": false,
      "inputs": [
        {
          "indexed": false,
          "name": "key",
          "type": "string"
        },
        {
          "indexed": false,
          "name": "value",
          "type": "uint256"
        }
      ],
      "name": "LogInt",
      "type": "event"
    },
    {
      "anonymous": false,
      "inputs": [
        {
          "indexed": false,
          "name": "key",
          "type": "string"
        },
        {
          "indexed": false,
          "name": "value",
          "type": "address"
        }
      ],
      "name": "LogAddress",
      "type": "event"
    },
    {
      "anonymous": false,
      "inputs": [
        {
          "indexed": true,
          "name": "previousOwner",
          "type": "address"
        },
        {
          "indexed": true,
          "name": "newOwner",
          "type": "address"
        }
      ],
      "name": "SetOwner",
      "type": "event"
    },
    {
      "constant": false,
      "inputs": [
        {
          "name": "_feeAccount",
          "type": "address"
        }
      ],
      "name": "setFeeAccount",
      "outputs": [
        {
          "name": "",
          "type": "bool"
        }
      ],
      "payable": false,
      "stateMutability": "nonpayable",
      "type": "function"
    },
    {
      "constant": false,
      "inputs": [
        {
          "name": "admin",
          "type": "address"
        },
        {
          "name": "isAdmin",
          "type": "bool"
        }
      ],
      "name": "setAdmin",
      "outputs": [
        {
          "name": "",
          "type": "bool"
        }
      ],
      "payable": false,
      "stateMutability": "nonpayable",
      "type": "function"
    },
    {
      "constant": false,
      "inputs": [
        {
          "name": "_withdrawalSecurityPeriod",
          "type": "uint256"
        }
      ],
      "name": "setWithdrawalSecurityPeriod",
      "outputs": [
        {
          "name": "",
          "type": "bool"
        }
      ],
      "payable": false,
      "stateMutability": "nonpayable",
      "type": "function"
    },
    {
      "constant": false,
      "inputs": [],
      "name": "depositEther",
      "outputs": [
        {
          "name": "",
          "type": "bool"
        }
      ],
      "payable": true,
      "stateMutability": "payable",
      "type": "function"
    },
    {
      "constant": false,
      "inputs": [
        {
          "name": "token",
          "type": "address"
        },
        {
          "name": "amount",
          "type": "uint256"
        }
      ],
      "name": "depositToken",
      "outputs": [
        {
          "name": "",
          "type": "bool"
        }
      ],
      "payable": false,
      "stateMutability": "nonpayable",
      "type": "function"
    },
    {
      "constant": true,
      "inputs": [
        {
          "name": "trader",
          "type": "address"
        },
        {
          "name": "token",
          "type": "address"
        }
      ],
      "name": "tokenBalance",
      "outputs": [
        {
          "name": "",
          "type": "uint256"
        }
      ],
      "payable": false,
      "stateMutability": "view",
      "type": "function"
    },
    {
      "constant": true,
      "inputs": [
        {
          "name": "trader",
          "type": "address"
        }
      ],
      "name": "etherBalance",
      "outputs": [
        {
          "name": "",
          "type": "uint256"
        }
      ],
      "payable": false,
      "stateMutability": "view",
      "type": "function"
    },
    {
      "constant": false,
      "inputs": [
        {
          "name": "token",
          "type": "address"
        },
        {
          "name": "amount",
          "type": "uint256"
        }
      ],
      "name": "securityWithdraw",
      "outputs": [
        {
          "name": "",
          "type": "bool"
        }
      ],
      "payable": false,
      "stateMutability": "nonpayable",
      "type": "function"
    },
    {
      "constant": false,
      "inputs": [
        {
          "name": "token",
          "type": "address"
        },
        {
          "name": "amount",
          "type": "uint256"
        },
        {
          "name": "trader",
          "type": "address"
        },
        {
          "name": "receiver",
          "type": "address"
        },
        {
          "name": "nonce",
          "type": "uint256"
        },
        {
          "name": "v",
          "type": "uint8"
        },
        {
          "name": "rs",
          "type": "bytes32[2]"
        },
        {
          "name": "feeWithdrawal",
          "type": "uint256"
        }
      ],
      "name": "withdraw",
      "outputs": [
        {
          "name": "",
          "type": "bool"
        }
      ],
      "payable": false,
      "stateMutability": "nonpayable",
      "type": "function"
    },
    {
      "constant": false,
      "inputs": [
        {
          "name": "orderValues",
          "type": "uint256[8]"
        },
        {
          "name": "orderAddresses",
          "type": "address[4]"
        },
        {
          "name": "v",
          "type": "uint8[2]"
        },
        {
          "name": "rs",
          "type": "bytes32[4]"
        }
      ],
      "name": "executeTrade",
      "outputs": [
        {
          "name": "",
          "type": "bool"
        }
      ],
      "payable": false,
      "stateMutability": "nonpayable",
      "type": "function"
    },
    {
      "constant": true,
      "inputs": [
        {
          "name": "signer",
          "type": "address"
        },
        {
          "name": "hashedData",
          "type": "bytes32"
        },
        {
          "name": "v",
          "type": "uint8"
        },
        {
          "name": "r",
          "type": "bytes32"
        },
        {
          "name": "s",
          "type": "bytes32"
        }
      ],
      "name": "isValidSignature",
      "outputs": [
        {
          "name": "",
          "type": "bool"
        }
      ],
      "payable": false,
      "stateMutability": "view",
      "type": "function"
    }
  ],
  "bytecode": "0x6060604052341561000f57600080fd5b6040516020806138c983398101604052808051906020019091905050336000806101000a81548173ffffffffffffffffffffffffffffffffffffffff021916908373ffffffffffffffffffffffffffffffffffffffff16021790555080600160006101000a81548173ffffffffffffffffffffffffffffffffffffffff021916908373ffffffffffffffffffffffffffffffffffffffff1602179055505061380d806100bc6000396000f300606060405260043610610133576000357c0100000000000000000000000000000000000000000000000000000000900463ffffffff1680630531be92146101435780631049334f1461019057806313af4035146101fc5780632207148d14610235578063338b5dea146103185780633823d66c14610372578063429b62e5146103b15780634b023cf8146104025780634b0bddd214610453578063508493bc146104af57806365e17c9d1461051b57806374af3ab3146105705780638163681e146106525780638da5cb5b146106d657806398ea5fca1461072b5780639bc2c1311461074d578063afc441e3146107a7578063cd0c5896146107e6578063cf46d3d714610833578063d58133231461086e578063f3198b16146108ad578063f7213db6146108d6578063fe2e2b9414610911575b341561013e57600080fd5b600080fd5b341561014e57600080fd5b61017a600480803573ffffffffffffffffffffffffffffffffffffffff1690602001909190505061095e565b6040518082815260200191505060405180910390f35b341561019b57600080fd5b6101e6600480803573ffffffffffffffffffffffffffffffffffffffff1690602001909190803573ffffffffffffffffffffffffffffffffffffffff16906020019091905050610976565b6040518082815260200191505060405180910390f35b341561020757600080fd5b610233600480803573ffffffffffffffffffffffffffffffffffffffff169060200190919050506109fd565b005b341561024057600080fd5b6102fe6004808061010001906008806020026040519081016040528092919082600860200280828437820191505050505091908060800190600480602002604051908101604052809291908260046020028082843782019150505050509190806040019060028060200260405190810160405280929190826002602002808284378201915050505050919080608001906004806020026040519081016040528092919082600460200280828437820191505050505091905050610b16565b604051808215151515815260200191505060405180910390f35b341561032357600080fd5b610358600480803573ffffffffffffffffffffffffffffffffffffffff16906020019091908035906020019091905050611e5f565b604051808215151515815260200191505060405180910390f35b341561037d57600080fd5b610397600480803560001916906020019091905050611fb8565b604051808215151515815260200191505060405180910390f35b34156103bc57600080fd5b6103e8600480803573ffffffffffffffffffffffffffffffffffffffff16906020019091905050611fd8565b604051808215151515815260200191505060405180910390f35b341561040d57600080fd5b610439600480803573ffffffffffffffffffffffffffffffffffffffff16906020019091905050611ff8565b604051808215151515815260200191505060405180910390f35b341561045e57600080fd5b610495600480803573ffffffffffffffffffffffffffffffffffffffff1690602001909190803515159060200190919050506120f3565b604051808215151515815260200191505060405180910390f35b34156104ba57600080fd5b610505600480803573ffffffffffffffffffffffffffffffffffffffff1690602001909190803573ffffffffffffffffffffffffffffffffffffffff169060200190919050506121b1565b6040518082815260200191505060405180910390f35b341561052657600080fd5b61052e6121d6565b604051808273ffffffffffffffffffffffffffffffffffffffff1673ffffffffffffffffffffffffffffffffffffffff16815260200191505060405180910390f35b341561057b57600080fd5b610638600480803573ffffffffffffffffffffffffffffffffffffffff1690602001909190803590602001909190803573ffffffffffffffffffffffffffffffffffffffff1690602001909190803573ffffffffffffffffffffffffffffffffffffffff1690602001909190803590602001909190803560ff1690602001909190806040019060028060200260405190810160405280929190826002602002808284378201915050505050919080359060200190919050506121fc565b604051808215151515815260200191505060405180910390f35b341561065d57600080fd5b6106bc600480803573ffffffffffffffffffffffffffffffffffffffff169060200190919080356000191690602001909190803560ff16906020019091908035600019169060200190919080356000191690602001909190505061298f565b604051808215151515815260200191505060405180910390f35b34156106e157600080fd5b6106e9612a96565b604051808273ffffffffffffffffffffffffffffffffffffffff1673ffffffffffffffffffffffffffffffffffffffff16815260200191505060405180910390f35b610733612abb565b604051808215151515815260200191505060405180910390f35b341561075857600080fd5b61078d600480803573ffffffffffffffffffffffffffffffffffffffff16906020019091908035906020019091905050612ade565b604051808215151515815260200191505060405180910390f35b34156107b257600080fd5b6107cc600480803560001916906020019091905050612f5c565b604051808215151515815260200191505060405180910390f35b34156107f157600080fd5b61081d600480803573ffffffffffffffffffffffffffffffffffffffff16906020019091905050612f7c565b6040518082815260200191505060405180910390f35b341561083e57600080fd5b6108546004808035906020019091905050612fec565b604051808215151515815260200191505060405180910390f35b341561087957600080fd5b6108936004808035600019169060200190919050506130ad565b604051808215151515815260200191505060405180910390f35b34156108b857600080fd5b6108c06130cd565b6040518082815260200191505060405180910390f35b34156108e157600080fd5b6108fb6004808035600019169060200190919050506130d3565b6040518082815260200191505060405180910390f35b341561091c57600080fd5b610948600480803573ffffffffffffffffffffffffffffffffffffffff169060200190919050506130eb565b6040518082815260200191505060405180910390f35b60076020528060005260406000206000915090505481565b6000600960008373ffffffffffffffffffffffffffffffffffffffff1673ffffffffffffffffffffffffffffffffffffffff16815260200190815260200160002060008473ffffffffffffffffffffffffffffffffffffffff1673ffffffffffffffffffffffffffffffffffffffff16815260200190815260200160002054905092915050565b6000809054906101000a900473ffffffffffffffffffffffffffffffffffffffff1673ffffffffffffffffffffffffffffffffffffffff163373ffffffffffffffffffffffffffffffffffffffff16141515610a5857600080fd5b8073ffffffffffffffffffffffffffffffffffffffff166000809054906101000a900473ffffffffffffffffffffffffffffffffffffffff1673ffffffffffffffffffffffffffffffffffffffff167fcbf985117192c8f614a58aaf97226bb80a754772f5f6edf06f87c675f2e6c66360405160405180910390a3806000806101000a81548173ffffffffffffffffffffffffffffffffffffffff021916908373ffffffffffffffffffffffffffffffffffffffff16021790555050565b6000610b2061371a565b610b286137a9565b60008060008060008060009054906101000a900473ffffffffffffffffffffffffffffffffffffffff1673ffffffffffffffffffffffffffffffffffffffff163373ffffffffffffffffffffffffffffffffffffffff161480610bd45750600660003373ffffffffffffffffffffffffffffffffffffffff1673ffffffffffffffffffffffffffffffffffffffff16815260200190815260200160002060009054906101000a900460ff165b1515610bdf57600080fd5b610120604051908101604052808d6000600881101515610bfb57fe5b602002015181526020018d6001600881101515610c1457fe5b602002015181526020018d6002600881101515610c2d57fe5b602002015181526020018d6003600881101515610c4657fe5b602002015181526020018d6004600881101515610c5f57fe5b602002015181526020018d6005600881101515610c7857fe5b602002015181526020018c6000600481101515610c9157fe5b602002015173ffffffffffffffffffffffffffffffffffffffff1681526020018c6001600481101515610cc057fe5b602002015173ffffffffffffffffffffffffffffffffffffffff1681526020018c6002600481101515610cef57fe5b602002015173ffffffffffffffffffffffffffffffffffffffff1681525096506060604051908101604052808d6006600881101515610d2a57fe5b602002015181526020018d6007600881101515610d4357fe5b602002015181526020018c6003600481101515610d5c57fe5b602002015173ffffffffffffffffffffffffffffffffffffffff168152509550308760c0015188600001518960e001518a602001518b604001518c606001518d6101000151604051808973ffffffffffffffffffffffffffffffffffffffff1673ffffffffffffffffffffffffffffffffffffffff166c010000000000000000000000000281526014018873ffffffffffffffffffffffffffffffffffffffff1673ffffffffffffffffffffffffffffffffffffffff166c010000000000000000000000000281526014018781526020018673ffffffffffffffffffffffffffffffffffffffff1673ffffffffffffffffffffffffffffffffffffffff166c010000000000000000000000000281526014018581526020018481526020018381526020018273ffffffffffffffffffffffffffffffffffffffff1673ffffffffffffffffffffffffffffffffffffffff166c010000000000000000000000000281526014019850505050505050505060405180910390209450848660000151876040015188602001516040518085600019166000191681526020018481526020018373ffffffffffffffffffffffffffffffffffffffff1673ffffffffffffffffffffffffffffffffffffffff166c0100000000000000000000000002815260140182815260200194505050505060405180910390209350610f9f876101000151868c6000600281101515610f6d57fe5b60200201518c6000600481101515610f8157fe5b60200201518d6001600481101515610f9557fe5b602002015161298f565b1515611007577f36d86c59e00bd73dc19ba3adfe068e4b64ac7e92be35546adeddf1b956a87e9060086009811115610fd357fe5b86604051808360ff1660ff16815260200182600019166000191681526020019250505060405180910390a160009750611e50565b6110518660400151858c600160028110151561101f57fe5b60200201518c600260048110151561103357fe5b60200201518d600360048110151561104757fe5b602002015161298f565b15156110b8577f36d86c59e00bd73dc19ba3adfe068e4b64ac7e92be35546adeddf1b956a87e9060098081111561108457fe5b85604051808360ff1660ff16815260200182600019166000191681526020019250505060405180910390a160009750611e50565b8560000151600960008960c0015173ffffffffffffffffffffffffffffffffffffffff1673ffffffffffffffffffffffffffffffffffffffff1681526020019081526020016000206000886040015173ffffffffffffffffffffffffffffffffffffffff1673ffffffffffffffffffffffffffffffffffffffff1681526020019081526020016000205410156111aa577f36d86c59e00bd73dc19ba3adfe068e4b64ac7e92be35546adeddf1b956a87e906001600981111561117657fe5b85604051808360ff1660ff16815260200182600019166000191681526020019250505060405180910390a160009750611e50565b6111db87600001516111cd88600001518a6020015161310390919063ffffffff16565b61313690919063ffffffff16565b600960008960e0015173ffffffffffffffffffffffffffffffffffffffff1673ffffffffffffffffffffffffffffffffffffffff168152602001908152602001600020600089610100015173ffffffffffffffffffffffffffffffffffffffff1673ffffffffffffffffffffffffffffffffffffffff1681526020019081526020016000205410156112c9577f36d86c59e00bd73dc19ba3adfe068e4b64ac7e92be35546adeddf1b956a87e906000600981111561129557fe5b85604051808360ff1660ff16815260200182600019166000191681526020019250505060405180910390a160009750611e50565b60036000856000191660001916815260200190815260200160002060009054906101000a900460ff1615611359577f36d86c59e00bd73dc19ba3adfe068e4b64ac7e92be35546adeddf1b956a87e906005600981111561132557fe5b85604051808360ff1660ff16815260200182600019166000191681526020019250505060405180910390a160009750611e50565b866000015161139087600001516008600089600019166000191681526020019081526020016000205461315190919063ffffffff16565b11156113f8577f36d86c59e00bd73dc19ba3adfe068e4b64ac7e92be35546adeddf1b956a87e90600660098111156113c457fe5b85604051808360ff1660ff16815260200182600019166000191681526020019250505060405180910390a160009750611e50565b600160036000866000191660001916815260200190815260200160002060006101000a81548160ff021916908315150217905550670de0b6b3a76400006114508860800151886000015161310390919063ffffffff16565b81151561145957fe5b04925061148d876000015161147f88600001518a6020015161310390919063ffffffff16565b61313690919063ffffffff16565b9150670de0b6b3a76400006114af838960a0015161310390919063ffffffff16565b8115156114b857fe5b04905061155983876000015103600960008a60c0015173ffffffffffffffffffffffffffffffffffffffff1673ffffffffffffffffffffffffffffffffffffffff16815260200190815260200160002060008a610100015173ffffffffffffffffffffffffffffffffffffffff1673ffffffffffffffffffffffffffffffffffffffff1681526020019081526020016000205461315190919063ffffffff16565b600960008960c0015173ffffffffffffffffffffffffffffffffffffffff1673ffffffffffffffffffffffffffffffffffffffff168152602001908152602001600020600089610100015173ffffffffffffffffffffffffffffffffffffffff1673ffffffffffffffffffffffffffffffffffffffff1681526020019081526020016000208190555061167d8660000151600960008a60c0015173ffffffffffffffffffffffffffffffffffffffff1673ffffffffffffffffffffffffffffffffffffffff1681526020019081526020016000206000896040015173ffffffffffffffffffffffffffffffffffffffff1673ffffffffffffffffffffffffffffffffffffffff1681526020019081526020016000205461316f90919063ffffffff16565b600960008960c0015173ffffffffffffffffffffffffffffffffffffffff1673ffffffffffffffffffffffffffffffffffffffff1681526020019081526020016000206000886040015173ffffffffffffffffffffffffffffffffffffffff1673ffffffffffffffffffffffffffffffffffffffff168152602001908152602001600020819055506117ba83600960008a60c0015173ffffffffffffffffffffffffffffffffffffffff1673ffffffffffffffffffffffffffffffffffffffff1681526020019081526020016000206000600160009054906101000a900473ffffffffffffffffffffffffffffffffffffffff1673ffffffffffffffffffffffffffffffffffffffff1673ffffffffffffffffffffffffffffffffffffffff1681526020019081526020016000205461315190919063ffffffff16565b600960008960c0015173ffffffffffffffffffffffffffffffffffffffff1673ffffffffffffffffffffffffffffffffffffffff1681526020019081526020016000206000600160009054906101000a900473ffffffffffffffffffffffffffffffffffffffff1673ffffffffffffffffffffffffffffffffffffffff1673ffffffffffffffffffffffffffffffffffffffff16815260200190815260200160002081905550611928611894886000015161188689600001518b6020015161310390919063ffffffff16565b61313690919063ffffffff16565b600960008a60e0015173ffffffffffffffffffffffffffffffffffffffff1673ffffffffffffffffffffffffffffffffffffffff16815260200190815260200160002060008a610100015173ffffffffffffffffffffffffffffffffffffffff1673ffffffffffffffffffffffffffffffffffffffff1681526020019081526020016000205461316f90919063ffffffff16565b600960008960e0015173ffffffffffffffffffffffffffffffffffffffff1673ffffffffffffffffffffffffffffffffffffffff168152602001908152602001600020600089610100015173ffffffffffffffffffffffffffffffffffffffff1673ffffffffffffffffffffffffffffffffffffffff16815260200190815260200160002081905550611a5a6119c7828461316f90919063ffffffff16565b600960008a60e0015173ffffffffffffffffffffffffffffffffffffffff1673ffffffffffffffffffffffffffffffffffffffff1681526020019081526020016000206000896040015173ffffffffffffffffffffffffffffffffffffffff1673ffffffffffffffffffffffffffffffffffffffff1681526020019081526020016000205461315190919063ffffffff16565b600960008960e0015173ffffffffffffffffffffffffffffffffffffffff1673ffffffffffffffffffffffffffffffffffffffff1681526020019081526020016000206000886040015173ffffffffffffffffffffffffffffffffffffffff1673ffffffffffffffffffffffffffffffffffffffff16815260200190815260200160002081905550611b9781600960008a60e0015173ffffffffffffffffffffffffffffffffffffffff1673ffffffffffffffffffffffffffffffffffffffff1681526020019081526020016000206000600160009054906101000a900473ffffffffffffffffffffffffffffffffffffffff1673ffffffffffffffffffffffffffffffffffffffff1673ffffffffffffffffffffffffffffffffffffffff1681526020019081526020016000205461315190919063ffffffff16565b600960008960e0015173ffffffffffffffffffffffffffffffffffffffff1673ffffffffffffffffffffffffffffffffffffffff1681526020019081526020016000206000600160009054906101000a900473ffffffffffffffffffffffffffffffffffffffff1673ffffffffffffffffffffffffffffffffffffffff1673ffffffffffffffffffffffffffffffffffffffff16815260200190815260200160002081905550611c6f86600001516008600088600019166000191681526020019081526020016000205461315190919063ffffffff16565b60086000876000191660001916815260200190815260200160002081905550436007600089610100015173ffffffffffffffffffffffffffffffffffffffff1673ffffffffffffffffffffffffffffffffffffffff168152602001908152602001600020819055504360076000886040015173ffffffffffffffffffffffffffffffffffffffff1673ffffffffffffffffffffffffffffffffffffffff168152602001908152602001600020819055507facba690473c099075a43376bf85b9c2560e51ee66a208fca92b31922d7d3a3678760c001518860e0015189610100015189604001518a600001518a604051808773ffffffffffffffffffffffffffffffffffffffff1673ffffffffffffffffffffffffffffffffffffffff1681526020018673ffffffffffffffffffffffffffffffffffffffff1673ffffffffffffffffffffffffffffffffffffffff1681526020018573ffffffffffffffffffffffffffffffffffffffff1673ffffffffffffffffffffffffffffffffffffffff1681526020018473ffffffffffffffffffffffffffffffffffffffff1673ffffffffffffffffffffffffffffffffffffffff1681526020018381526020018260001916600019168152602001965050505050505060405180910390a1600197505b50505050505050949350505050565b60008073ffffffffffffffffffffffffffffffffffffffff168373ffffffffffffffffffffffffffffffffffffffff1614158015611e9d5750600082115b1515611ea857600080fd5b611eb28383613188565b508273ffffffffffffffffffffffffffffffffffffffff166323b872dd3330856000604051602001526040518463ffffffff167c0100000000000000000000000000000000000000000000000000000000028152600401808473ffffffffffffffffffffffffffffffffffffffff1673ffffffffffffffffffffffffffffffffffffffff1681526020018373ffffffffffffffffffffffffffffffffffffffff1673ffffffffffffffffffffffffffffffffffffffff1681526020018281526020019350505050602060405180830381600087803b1515611f9257600080fd5b6102c65a03f11515611fa357600080fd5b50505060405180519050506001905092915050565b60046020528060005260406000206000915054906101000a900460ff1681565b60066020528060005260406000206000915054906101000a900460ff1681565b60008060009054906101000a900473ffffffffffffffffffffffffffffffffffffffff1673ffffffffffffffffffffffffffffffffffffffff163373ffffffffffffffffffffffffffffffffffffffff16148061209e5750600660003373ffffffffffffffffffffffffffffffffffffffff1673ffffffffffffffffffffffffffffffffffffffff16815260200190815260200160002060009054906101000a900460ff165b15156120a957600080fd5b81600160006101000a81548173ffffffffffffffffffffffffffffffffffffffff021916908373ffffffffffffffffffffffffffffffffffffffff16021790555060019050919050565b60008060009054906101000a900473ffffffffffffffffffffffffffffffffffffffff1673ffffffffffffffffffffffffffffffffffffffff163373ffffffffffffffffffffffffffffffffffffffff1614151561215057600080fd5b81600660008573ffffffffffffffffffffffffffffffffffffffff1673ffffffffffffffffffffffffffffffffffffffff16815260200190815260200160002060006101000a81548160ff0219169083151502179055506001905092915050565b6009602052816000526040600020602052806000526040600020600091509150505481565b600160009054906101000a900473ffffffffffffffffffffffffffffffffffffffff1681565b6000806000806000809054906101000a900473ffffffffffffffffffffffffffffffffffffffff1673ffffffffffffffffffffffffffffffffffffffff163373ffffffffffffffffffffffffffffffffffffffff1614806122a65750600660003373ffffffffffffffffffffffffffffffffffffffff1673ffffffffffffffffffffffffffffffffffffffff16815260200190815260200160002060009054906101000a900460ff165b15156122b157600080fd5b308c8c8c8c8c604051808773ffffffffffffffffffffffffffffffffffffffff1673ffffffffffffffffffffffffffffffffffffffff166c010000000000000000000000000281526014018673ffffffffffffffffffffffffffffffffffffffff1673ffffffffffffffffffffffffffffffffffffffff166c010000000000000000000000000281526014018581526020018473ffffffffffffffffffffffffffffffffffffffff1673ffffffffffffffffffffffffffffffffffffffff166c010000000000000000000000000281526014018373ffffffffffffffffffffffffffffffffffffffff1673ffffffffffffffffffffffffffffffffffffffff166c010000000000000000000000000281526014018281526020019650505050505050604051809103902092506123ed838d8d8d8d8c8c8c61340a565b15156123fc5760009350612980565b670de0b6b3a76400006124188c8761310390919063ffffffff16565b81151561242157fe5b0491506124b38b600960008f73ffffffffffffffffffffffffffffffffffffffff1673ffffffffffffffffffffffffffffffffffffffff16815260200190815260200160002060008d73ffffffffffffffffffffffffffffffffffffffff1673ffffffffffffffffffffffffffffffffffffffff1681526020019081526020016000205461316f90919063ffffffff16565b600960008e73ffffffffffffffffffffffffffffffffffffffff1673ffffffffffffffffffffffffffffffffffffffff16815260200190815260200160002060008c73ffffffffffffffffffffffffffffffffffffffff1673ffffffffffffffffffffffffffffffffffffffff168152602001908152602001600020819055506125e482600960008f73ffffffffffffffffffffffffffffffffffffffff1673ffffffffffffffffffffffffffffffffffffffff1681526020019081526020016000206000600160009054906101000a900473ffffffffffffffffffffffffffffffffffffffff1673ffffffffffffffffffffffffffffffffffffffff1673ffffffffffffffffffffffffffffffffffffffff1681526020019081526020016000205461315190919063ffffffff16565b600960008e73ffffffffffffffffffffffffffffffffffffffff1673ffffffffffffffffffffffffffffffffffffffff1681526020019081526020016000206000600160009054906101000a900473ffffffffffffffffffffffffffffffffffffffff1673ffffffffffffffffffffffffffffffffffffffff1673ffffffffffffffffffffffffffffffffffffffff16815260200190815260200160002081905550612699828c61316f90919063ffffffff16565b9a50600960008d73ffffffffffffffffffffffffffffffffffffffff1673ffffffffffffffffffffffffffffffffffffffff16815260200190815260200160002060008b73ffffffffffffffffffffffffffffffffffffffff1673ffffffffffffffffffffffffffffffffffffffff168152602001908152602001600020549050600073ffffffffffffffffffffffffffffffffffffffff168c73ffffffffffffffffffffffffffffffffffffffff161415612794578873ffffffffffffffffffffffffffffffffffffffff166108fc8c9081150290604051600060405180830381858888f19350505050151561278f57600080fd5b61285c565b8b73ffffffffffffffffffffffffffffffffffffffff1663a9059cbb8a8d6000604051602001526040518363ffffffff167c0100000000000000000000000000000000000000000000000000000000028152600401808373ffffffffffffffffffffffffffffffffffffffff1673ffffffffffffffffffffffffffffffffffffffff16815260200182815260200192505050602060405180830381600087803b151561283f57600080fd5b6102c65a03f1151561285057600080fd5b50505060405180519050505b600160046000856000191660001916815260200190815260200160002060006101000a81548160ff02191690831515021790555043600760008c73ffffffffffffffffffffffffffffffffffffffff1673ffffffffffffffffffffffffffffffffffffffff168152602001908152602001600020819055507f74217ce088f00bfd283666b763c64f0d1b1c345591dfdd01891dddf52446694e8c8b8d84604051808573ffffffffffffffffffffffffffffffffffffffff1673ffffffffffffffffffffffffffffffffffffffff1681526020018473ffffffffffffffffffffffffffffffffffffffff1673ffffffffffffffffffffffffffffffffffffffff16815260200183815260200182815260200194505050505060405180910390a1600193505b50505098975050505050505050565b600060018560405180807f19457468657265756d205369676e6564204d6573736167653a0a333200000000815250601c0182600019166000191681526020019150506040518091039020858585604051600081526020016040526000604051602001526040518085600019166000191681526020018460ff1660ff16815260200183600019166000191681526020018260001916600019168152602001945050505050602060405160208103908084039060008661646e5a03f11515612a5457600080fd5b50506020604051035173ffffffffffffffffffffffffffffffffffffffff168673ffffffffffffffffffffffffffffffffffffffff1614905095945050505050565b6000809054906101000a900473ffffffffffffffffffffffffffffffffffffffff1681565b60008034111515612acb57600080fd5b612ad6600034613188565b506001905090565b60008033600254612b37600760008473ffffffffffffffffffffffffffffffffffffffff1673ffffffffffffffffffffffffffffffffffffffff168152602001908152602001600020544361316f90919063ffffffff16565b10151515612b4457600080fd5b33915083600960008773ffffffffffffffffffffffffffffffffffffffff1673ffffffffffffffffffffffffffffffffffffffff16815260200190815260200160002060008473ffffffffffffffffffffffffffffffffffffffff1673ffffffffffffffffffffffffffffffffffffffff1681526020019081526020016000205410151515612bd257600080fd5b612c6184600960008873ffffffffffffffffffffffffffffffffffffffff1673ffffffffffffffffffffffffffffffffffffffff16815260200190815260200160002060008573ffffffffffffffffffffffffffffffffffffffff1673ffffffffffffffffffffffffffffffffffffffff1681526020019081526020016000205461316f90919063ffffffff16565b600960008773ffffffffffffffffffffffffffffffffffffffff1673ffffffffffffffffffffffffffffffffffffffff16815260200190815260200160002060008473ffffffffffffffffffffffffffffffffffffffff1673ffffffffffffffffffffffffffffffffffffffff16815260200190815260200160002081905550600073ffffffffffffffffffffffffffffffffffffffff168573ffffffffffffffffffffffffffffffffffffffff161415612d5b578173ffffffffffffffffffffffffffffffffffffffff166108fc859081150290604051600060405180830381858888f193505050501515612d5657600080fd5b612e2d565b8473ffffffffffffffffffffffffffffffffffffffff1663a9059cbb83866000604051602001526040518363ffffffff167c0100000000000000000000000000000000000000000000000000000000028152600401808373ffffffffffffffffffffffffffffffffffffffff1673ffffffffffffffffffffffffffffffffffffffff16815260200182815260200192505050602060405180830381600087803b1515612e0657600080fd5b6102c65a03f11515612e1757600080fd5b505050604051805190501515612e2c57600080fd5b5b7fc1bc7b7b4880798c196e5adcf8dbbe770e901ad0bd5515af4dbc08d66eb18bfd858386600960008a73ffffffffffffffffffffffffffffffffffffffff1673ffffffffffffffffffffffffffffffffffffffff16815260200190815260200160002060008773ffffffffffffffffffffffffffffffffffffffff1673ffffffffffffffffffffffffffffffffffffffff16815260200190815260200160002054604051808573ffffffffffffffffffffffffffffffffffffffff1673ffffffffffffffffffffffffffffffffffffffff1681526020018473ffffffffffffffffffffffffffffffffffffffff1673ffffffffffffffffffffffffffffffffffffffff16815260200183815260200182815260200194505050505060405180910390a160019250505092915050565b60056020528060005260406000206000915054906101000a900460ff1681565b6000600960008073ffffffffffffffffffffffffffffffffffffffff16815260200190815260200160002060008373ffffffffffffffffffffffffffffffffffffffff1673ffffffffffffffffffffffffffffffffffffffff168152602001908152602001600020549050919050565b60008060009054906101000a900473ffffffffffffffffffffffffffffffffffffffff1673ffffffffffffffffffffffffffffffffffffffff163373ffffffffffffffffffffffffffffffffffffffff1614806130925750600660003373ffffffffffffffffffffffffffffffffffffffff1673ffffffffffffffffffffffffffffffffffffffff16815260200190815260200160002060009054906101000a900460ff165b151561309d57600080fd5b8160028190555060019050919050565b60036020528060005260406000206000915054906101000a900460ff1681565b60025481565b60086020528060005260406000206000915090505481565b600a6020528060005260406000206000915090505481565b60008082840290506000841480613124575082848281151561312157fe5b04145b151561312c57fe5b8091505092915050565b600080828481151561314457fe5b0490508091505092915050565b600080828401905083811015151561316557fe5b8091505092915050565b600082821115151561317d57fe5b818303905092915050565b600061321982600960008673ffffffffffffffffffffffffffffffffffffffff1673ffffffffffffffffffffffffffffffffffffffff16815260200190815260200160002060003373ffffffffffffffffffffffffffffffffffffffff1673ffffffffffffffffffffffffffffffffffffffff1681526020019081526020016000205461315190919063ffffffff16565b600960008573ffffffffffffffffffffffffffffffffffffffff1673ffffffffffffffffffffffffffffffffffffffff16815260200190815260200160002060003373ffffffffffffffffffffffffffffffffffffffff1673ffffffffffffffffffffffffffffffffffffffff1681526020019081526020016000208190555043600760003373ffffffffffffffffffffffffffffffffffffffff1673ffffffffffffffffffffffffffffffffffffffff168152602001908152602001600020819055507f4e3e4894f24a7c50bcb21d1ef785e34688bee05663c55d822eed7cefc2533123833384600960008873ffffffffffffffffffffffffffffffffffffffff1673ffffffffffffffffffffffffffffffffffffffff16815260200190815260200160002060003373ffffffffffffffffffffffffffffffffffffffff1673ffffffffffffffffffffffffffffffffffffffff16815260200190815260200160002054604051808573ffffffffffffffffffffffffffffffffffffffff1673ffffffffffffffffffffffffffffffffffffffff1681526020018473ffffffffffffffffffffffffffffffffffffffff1673ffffffffffffffffffffffffffffffffffffffff16815260200183815260200182815260200194505050505060405180910390a16001905092915050565b600061343f868a8686600060028110151561342157fe5b602002015187600160028110151561343557fe5b602002015161298f565b15156134a7577f36d86c59e00bd73dc19ba3adfe068e4b64ac7e92be35546adeddf1b956a87e906007600981111561347357fe5b8a604051808360ff1660ff16815260200182600019166000191681526020019250505060405180910390a16000905061370e565b600460008a6000191660001916815260200190815260200160002060009054906101000a900460ff1615613537577f36d86c59e00bd73dc19ba3adfe068e4b64ac7e92be35546adeddf1b956a87e906004600981111561350357fe5b8a604051808360ff1660ff16815260200182600019166000191681526020019250505060405180910390a16000905061370e565b86600960008a73ffffffffffffffffffffffffffffffffffffffff1673ffffffffffffffffffffffffffffffffffffffff16815260200190815260200160002060008873ffffffffffffffffffffffffffffffffffffffff1673ffffffffffffffffffffffffffffffffffffffff16815260200190815260200160002054101561369c577f36d86c59e00bd73dc19ba3adfe068e4b64ac7e92be35546adeddf1b956a87e90600260098111156135e957fe5b600960008b73ffffffffffffffffffffffffffffffffffffffff1673ffffffffffffffffffffffffffffffffffffffff16815260200190815260200160002060008973ffffffffffffffffffffffffffffffffffffffff1673ffffffffffffffffffffffffffffffffffffffff16815260200190815260200160002054600102604051808360ff1660ff16815260200182600019166000191681526020019250505060405180910390a16000905061370e565b86821115613709577f36d86c59e00bd73dc19ba3adfe068e4b64ac7e92be35546adeddf1b956a87e90600360098111156136d257fe5b83600102604051808360ff1660ff16815260200182600019166000191681526020019250505060405180910390a16000905061370e565b600190505b98975050505050505050565b61012060405190810160405280600081526020016000815260200160008152602001600081526020016000815260200160008152602001600073ffffffffffffffffffffffffffffffffffffffff168152602001600073ffffffffffffffffffffffffffffffffffffffff168152602001600073ffffffffffffffffffffffffffffffffffffffff1681525090565b6060604051908101604052806000815260200160008152602001600073ffffffffffffffffffffffffffffffffffffffff16815250905600a165627a7a723058206d2b0b1ebb94f66b5e5bbd94c2bebdcea984a4d365dbcfe7df6b72568a81c97b0029",
  "source": "pragma solidity ^0.4.19;\n// pragma experimental ABIEncoderV2;\n\nimport './utils/SafeMath.sol';\nimport './utils/Owned.sol';\nimport './interfaces/ERC20.sol';\n\ncontract Exchange is Owned\n{\n  using SafeMath for uint256;\n\n  event LogTrade(address tokenBuy, address tokenSell, address maker, address taker, uint256 amount, bytes32 hsh);\n  event LogDeposit(address token, address user, uint256 amount, uint256 balance);\n  event LogWithdraw(address token, address user, uint256 amount, uint256 balance);\n  event LogSecurityWithdraw(address token, address user, uint256 amount, uint256 balance);\n  event LogTransfer(address token, address recipient);\n\n  event LogCancelOrder(\n    address tokenBuy,\n    uint256 amountBuy,\n    address tokenSell,\n    uint256 amountSell,\n    uint256 expires,\n    uint256 nonce,\n    address maker,\n    uint8 v,\n    bytes32 r,\n    bytes32 s\n  );\n\n  enum Errors\n  {\n    MAKER_INSUFFICIENT_BALANCE,\n    TAKER_INSUFFICIENT_BALANCE,\n    WITHDRAW_INSUFFICIENT_BALANCE,\n    WITHDRAW_FEE_TO_HIGH,\n    WITHDRAW_ALREADY_COMPLETED,\n    TRADE_ALREADY_COMPLETED,\n    TRADE_AMOUNT_TOO_BIG,\n    SIGNATURE_INVALID,\n    MAKER_SIGNATURE_INVALID,\n    TAKER_SIGNATURE_INVALID\n  }\n\n  event LogError(\n    uint8  errorId,\n    bytes32  orderHash\n  );\n\n  event Log(\n    string key,\n    bytes32 value\n  );\n\n  event LogInt(\n    string key,\n    uint256 value\n  );\n\n  event LogAddress(\n    string key,\n    address value\n  );\n\n  address public feeAccount;\n  uint256 public withdrawalSecurityPeriod;\n  mapping (bytes32 => bool) public traded;\n  mapping (bytes32 => bool) public withdrawn;\n  mapping (bytes32 => bool) public transferred;\n  mapping (address => bool) public admins;\n  mapping (address => uint256) public lastTransaction;\n  mapping (bytes32 => uint256) public orderFills;\n  mapping (address => mapping (address => uint256)) public tokens;\n  mapping (address => uint256) public protectedFunds;\n\n  struct Order\n  {\n    uint256 amountBuy;\n    uint256 amountSell;\n    uint256 expires;\n    uint256 nonce;\n    uint256 feeMake;\n    uint256 feeTake;\n    address tokenBuy;\n    address tokenSell;\n    address maker;\n  }\n\n  struct Trade\n  {\n    uint256 amount;\n    uint256 tradeNonce;\n    address taker;\n  }\n\n  function Exchange(address _feeAccount) public\n  {\n    feeAccount = _feeAccount;\n  }\n\n  function setFeeAccount(address _feeAccount) public onlyAdmin returns (bool)\n  {\n    feeAccount = _feeAccount;\n    return true;\n  }\n\n  function setAdmin(address admin, bool isAdmin) public onlyOwner returns (bool)\n  {\n    admins[admin] = isAdmin;\n    return true;\n  }\n\n  modifier onlyAdmin\n  {\n    require(msg.sender == owner || admins[msg.sender]);\n    _;\n  }\n\n  function setWithdrawalSecurityPeriod(uint256 _withdrawalSecurityPeriod) public onlyAdmin returns (bool)\n  {\n    withdrawalSecurityPeriod = _withdrawalSecurityPeriod;\n    return true;\n  }\n\n  modifier canWithdraw(address user)\n  {\n    require(block.number.sub(lastTransaction[user]) >= withdrawalSecurityPeriod);\n    _;\n  }\n\n  function depositEther() public payable returns (bool)\n  {\n    require(msg.value > 0);\n    deposit(0x0, msg.value);\n    return true;\n  }\n\n  function depositToken(address token, uint256 amount) public returns (bool)\n  {\n    require(token != address(0) && amount > 0);\n    deposit(token, amount);\n    ERC20(token).transferFrom(msg.sender, this, amount);\n    return true;\n  }\n\n  function deposit(address token, uint256 amount) internal returns (bool)\n  {\n    tokens[token][msg.sender] = tokens[token][msg.sender].add(amount);\n    lastTransaction[msg.sender] = block.number;\n    LogDeposit(token, msg.sender, amount, tokens[token][msg.sender]);\n    return true;\n  }\n\n  function tokenBalance(address trader, address token) constant returns (uint256)\n  {\n    return tokens[token][trader];\n  }\n\n  function etherBalance(address trader) constant returns (uint256)\n  {\n    return tokens[0x0][trader];\n  }\n\n  function securityWithdraw(address token, uint256 amount) public canWithdraw(msg.sender) returns (bool)\n  {\n    address trader = msg.sender;\n    require(tokens[token][trader] >= amount);\n    tokens[token][trader] = tokens[token][trader].sub(amount);\n\n    if (token == address(0))\n    {\n      require(trader.send(amount));\n    }\n    else\n    {\n      require(ERC20(token).transfer(trader, amount));\n    }\n\n    LogSecurityWithdraw(token, trader, amount, tokens[token][trader]);\n    return true;\n  }\n\n  function withdraw(\n    address token,\n    uint256 amount,\n    address trader,\n    address receiver,\n    uint256 nonce,\n    uint8 v,\n    bytes32[2] rs,\n    uint256 feeWithdrawal) public onlyAdmin returns (bool)\n  {\n\n    bytes32 orderHash = keccak256(this, token, amount, trader, receiver, nonce);\n    if (!validateWithdrawal(orderHash, token, amount, trader, receiver, v, rs, feeWithdrawal))\n    {\n      return false;\n    }\n\n\n    uint256 fee = feeWithdrawal.mul(amount) / 1 ether;\n    tokens[token][trader] = tokens[token][trader].sub(amount);\n    tokens[token][feeAccount] = tokens[token][feeAccount].add(fee);\n    amount = amount.sub(fee);\n    uint256 tokenAmount = tokens[token][trader];\n\n    if (token == address(0))\n    {\n      receiver.transfer(amount);\n    }\n    else\n    {\n      ERC20(token).transfer(receiver, amount);\n    }\n\n    withdrawn[orderHash] = true;\n    lastTransaction[trader] = block.number;\n    LogWithdraw(token, trader, amount, tokenAmount);\n    return true;\n  }\n\n\n\n\n  function validateWithdrawal(\n    bytes32 orderHash,\n    address token,\n    uint256 amount,\n    address trader,\n    address receiver,\n    uint8 v,\n    bytes32[2] rs,\n    uint256 feeWithdrawal\n  ) internal returns (bool)\n  {\n\n    if (!isValidSignature(trader, orderHash, v, rs[0], rs[1]))\n    {\n      LogError(uint8(Errors.SIGNATURE_INVALID), orderHash);\n      return false;\n    }\n\n    if (withdrawn[orderHash])\n    {\n      LogError(uint8(Errors.WITHDRAW_ALREADY_COMPLETED), orderHash);\n      return false;\n    }\n\n    if (tokens[token][trader] < amount)\n    {\n      LogError(uint8(Errors.WITHDRAW_INSUFFICIENT_BALANCE), bytes32(tokens[token][trader]));\n      return false;\n    }\n\n    if (feeWithdrawal > amount)\n    {\n      LogError(uint8(Errors.WITHDRAW_FEE_TO_HIGH), bytes32(feeWithdrawal));\n      return false;\n    }\n\n\n    return true;\n  }\n\n  /**\n   amountBuy is the amount of buy tokens asked in the trade\n   amountSell is the amount of sell tokens offered in the trade\n   expires is the expiration time after which tokens the trade can no longer be completed\n   nonce\n   amount is the amount of buy tokens offered by the taker. In other words amount/amountBuy is the fraction of the initial trade to be carried out\n   tradeNonce\n   feeMake is the maker fee\n   feeTake is the taker fee\n   tokenBuy is the ethereum address of the buy token\n   tokenSell is the ethereum address of the sell token\n   maker is the ethereum address of the maker\n   taker is the ethereum address of the taker\n   v[0], rs[0], rs[1] are respectively v, r, s of the maker's signature\n   v[1], rs[2], rs[3] are respectively v, r, s of the taker's signature\n   */\n  // function trade(\n  //   uint256 amountBuy,\n  //   uint256 amountSell,\n  //   uint256 expires,\n  //   uint256 nonce,\n  //   uint256 amount,\n  //   uint256 tradeNonce,\n  //   uint256 feeMake,\n  //   uint256 feeTake,\n  //   address tokenBuy,\n  //   address tokenSell,\n  //   address maker,\n  //   address taker,\n  //   uint8[2]v,\n  //   bytes32[4] rs\n  // ) public onlyAdmin returns (bool)\n  function executeTrade(\n    uint256[8] orderValues,\n    address[4] orderAddresses,\n    uint8[2] memory v,\n    bytes32[4] memory rs\n  ) public onlyAdmin returns (bool)\n  {\n    Order memory order = Order({\n      amountBuy: orderValues[0],\n      amountSell: orderValues[1],\n      expires: orderValues[2],\n      nonce: orderValues[3],\n      feeMake: orderValues[4],\n      feeTake: orderValues[5],\n      tokenBuy: orderAddresses[0],\n      tokenSell: orderAddresses[1],\n      maker: orderAddresses[2]\n    });\n\n    Trade memory trade = Trade({\n      amount: orderValues[6],\n      tradeNonce: orderValues[7],\n      taker: orderAddresses[3]\n    });\n\n    bytes32 orderHash = keccak256(this, order.tokenBuy, order.amountBuy, order.tokenSell, order.amountSell, order.expires, order.nonce, order.maker);\n    bytes32 tradeHash = keccak256(orderHash, trade.amount, trade.taker, trade.tradeNonce);\n\n    if (!isValidSignature(order.maker, orderHash, v[0] , rs[0], rs[1]))\n    {\n      LogError(uint8(Errors.MAKER_SIGNATURE_INVALID), orderHash);\n      return false;\n    }\n\n    if (!isValidSignature(trade.taker, tradeHash, v[1] ,rs[2], rs[3]))\n    {\n      LogError(uint8(Errors.TAKER_SIGNATURE_INVALID), tradeHash);\n      return false;\n    }\n\n    if (tokens[order.tokenBuy][trade.taker] < trade.amount)\n    {\n      LogError(uint8(Errors.TAKER_INSUFFICIENT_BALANCE), tradeHash);\n      return false;\n    }\n\n    if (tokens[order.tokenSell][order.maker] < order.amountSell.mul(trade.amount).div(order.amountBuy))\n    {\n      LogError(uint8(Errors.MAKER_INSUFFICIENT_BALANCE), tradeHash);\n      return false;\n    }\n\n    if (traded[tradeHash])\n    {\n      LogError(uint8(Errors.TRADE_ALREADY_COMPLETED), tradeHash);\n      return false;\n    }\n\n    if (orderFills[orderHash].add(trade.amount) > order.amountBuy)\n    {\n      LogError(uint8(Errors.TRADE_AMOUNT_TOO_BIG), tradeHash);\n      return false;\n    }\n\n    traded[tradeHash] = true;\n\n    uint256 makerFee = trade.amount.mul(order.feeMake) / 1 ether;\n    uint256 amountSellAdjusted = order.amountSell.mul(trade.amount).div(order.amountBuy);\n    uint256 takerFee = order.feeTake.mul(amountSellAdjusted) / 1 ether;\n\n    tokens[order.tokenBuy][order.maker] = tokens[order.tokenBuy][order.maker].add(trade.amount - makerFee);\n    tokens[order.tokenBuy][trade.taker] = tokens[order.tokenBuy][trade.taker].sub(trade.amount);\n    tokens[order.tokenBuy][feeAccount] = tokens[order.tokenBuy][feeAccount].add(makerFee);\n\n    tokens[order.tokenSell][order.maker] = tokens[order.tokenSell][order.maker].sub(order.amountSell.mul(trade.amount).div(order.amountBuy));\n    tokens[order.tokenSell][trade.taker] = tokens[order.tokenSell][trade.taker].add(amountSellAdjusted.sub(takerFee));\n    tokens[order.tokenSell][feeAccount] = tokens[order.tokenSell][feeAccount].add(takerFee);\n    orderFills[orderHash] = orderFills[orderHash].add(trade.amount);\n\n    lastTransaction[order.maker] = block.number;\n    lastTransaction[trade.taker] = block.number;\n    LogTrade(order.tokenBuy, order.tokenSell, order.maker, trade.taker, trade.amount, orderHash);\n    return true;\n  }\n\n  // function cancelOrder(address tokenBuy, uint256 amountBuy, address tokenSell, uint256 amountSell, uint256 expires, uint256 nonce, uint8 v, bytes32 r, bytes32 s, address maker) {\n  //   bytes orderHash = keccak256(tokenBuy, amountBuy, tokenSell, amountSell, expires, nonce, maker)\n  //   require(ecrecover(keccak256(\"x19Ethereum Signed Message:\\32\", orderHash), v, r, s) == msg.sender);\n  //   orderFills[orderHash] = amountBuy;\n  //   LogCancelOrder(tokenBuy, amountBuy, tokenSell, amountSell, expires, nonce, msg.sender, v, r, s);\n  //   }\n  // }\n\n    function isValidSignature(\n      address signer,\n      bytes32 hashedData,\n      uint8 v,\n      bytes32 r,\n      bytes32 s\n    ) public constant returns (bool)\n    {\n      return signer == ecrecover(\n          keccak256(\"\\x19Ethereum Signed Message:\\n32\", hashedData),\n          v,\n          r,\n          s\n      );\n    }\n\n\n  function() external\n  {\n    revert();\n  }\n\n\n\n}",
  "sourcePath": "/Users/davidvanisacker/Programming/Ethereum/Proofsuite/proof-dex/contracts/Exchange.sol",
  "compiler": {
    "name": "solc",
    "version": "0.4.19+commit.c4cbbb05.Emscripten.clang"
  },
  "schemaVersion": "2.0.0",
  "updatedAt": "2018-04-29T12:34:38.788Z"
}