{
  "contractName": "Exchange",
  "abi": [
    {
      "constant": false,
      "inputs": [
        {
          "name": "newOwner",
          "type": "address"
        }
      ],
      "name": "setOwner",
      "outputs": [],
      "payable": false,
      "stateMutability": "nonpayable",
      "type": "function"
    },
    {
      "constant": true,
      "inputs": [
        {
          "name": "",
          "type": "address"
        }
      ],
      "name": "operators",
      "outputs": [
        {
          "name": "",
          "type": "bool"
        }
      ],
      "payable": false,
      "stateMutability": "view",
      "type": "function"
    },
    {
      "constant": true,
      "inputs": [
        {
          "name": "",
          "type": "bytes32"
        }
      ],
      "name": "filled",
      "outputs": [
        {
          "name": "",
          "type": "uint256"
        }
      ],
      "payable": false,
      "stateMutability": "view",
      "type": "function"
    },
    {
      "constant": true,
      "inputs": [],
      "name": "wethToken",
      "outputs": [
        {
          "name": "",
          "type": "address"
        }
      ],
      "payable": false,
      "stateMutability": "view",
      "type": "function"
    },
    {
      "constant": true,
      "inputs": [],
      "name": "feeAccount",
      "outputs": [
        {
          "name": "",
          "type": "address"
        }
      ],
      "payable": false,
      "stateMutability": "view",
      "type": "function"
    },
    {
      "constant": true,
      "inputs": [
        {
          "name": "",
          "type": "bytes32"
        }
      ],
      "name": "pairs",
      "outputs": [
        {
          "name": "pairID",
          "type": "bytes32"
        },
        {
          "name": "baseToken",
          "type": "address"
        },
        {
          "name": "quoteToken",
          "type": "address"
        },
        {
          "name": "pricepointMultiplier",
          "type": "uint256"
        }
      ],
      "payable": false,
      "stateMutability": "view",
      "type": "function"
    },
    {
      "constant": true,
      "inputs": [],
      "name": "owner",
      "outputs": [
        {
          "name": "",
          "type": "address"
        }
      ],
      "payable": false,
      "stateMutability": "view",
      "type": "function"
    },
    {
      "constant": true,
      "inputs": [
        {
          "name": "",
          "type": "bytes32"
        }
      ],
      "name": "traded",
      "outputs": [
        {
          "name": "",
          "type": "bool"
        }
      ],
      "payable": false,
      "stateMutability": "view",
      "type": "function"
    },
    {
      "constant": true,
      "inputs": [],
      "name": "VERSION",
      "outputs": [
        {
          "name": "",
          "type": "string"
        }
      ],
      "payable": false,
      "stateMutability": "view",
      "type": "function"
    },
    {
      "inputs": [
        {
          "name": "_wethToken",
          "type": "address"
        },
        {
          "name": "_feeAccount",
          "type": "address"
        }
      ],
      "payable": false,
      "stateMutability": "nonpayable",
      "type": "constructor"
    },
    {
      "anonymous": false,
      "inputs": [
        {
          "indexed": false,
          "name": "oldWethToken",
          "type": "address"
        },
        {
          "indexed": false,
          "name": "newWethToken",
          "type": "address"
        }
      ],
      "name": "LogWethTokenUpdate",
      "type": "event"
    },
    {
      "anonymous": false,
      "inputs": [
        {
          "indexed": false,
          "name": "oldFeeAccount",
          "type": "address"
        },
        {
          "indexed": false,
          "name": "newFeeAccount",
          "type": "address"
        }
      ],
      "name": "LogFeeAccountUpdate",
      "type": "event"
    },
    {
      "anonymous": false,
      "inputs": [
        {
          "indexed": false,
          "name": "operator",
          "type": "address"
        },
        {
          "indexed": false,
          "name": "isOperator",
          "type": "bool"
        }
      ],
      "name": "LogOperatorUpdate",
      "type": "event"
    },
    {
      "anonymous": false,
      "inputs": [
        {
          "indexed": false,
          "name": "makerOrderHashes",
          "type": "bytes32[]"
        },
        {
          "indexed": false,
          "name": "takerOrderHashes",
          "type": "bytes32[]"
        },
        {
          "indexed": true,
          "name": "tokenPairHash",
          "type": "bytes32"
        }
      ],
      "name": "LogBatchTrades",
      "type": "event"
    },
    {
      "anonymous": false,
      "inputs": [
        {
          "indexed": true,
          "name": "maker",
          "type": "address"
        },
        {
          "indexed": true,
          "name": "taker",
          "type": "address"
        },
        {
          "indexed": false,
          "name": "tokenSell",
          "type": "address"
        },
        {
          "indexed": false,
          "name": "tokenBuy",
          "type": "address"
        },
        {
          "indexed": false,
          "name": "filledAmountSell",
          "type": "uint256"
        },
        {
          "indexed": false,
          "name": "filledAmountBuy",
          "type": "uint256"
        },
        {
          "indexed": false,
          "name": "paidFeeMake",
          "type": "uint256"
        },
        {
          "indexed": false,
          "name": "paidFeeTake",
          "type": "uint256"
        },
        {
          "indexed": false,
          "name": "orderHash",
          "type": "bytes32"
        },
        {
          "indexed": false,
          "name": "tradeHash",
          "type": "bytes32"
        },
        {
          "indexed": true,
          "name": "tokenPairHash",
          "type": "bytes32"
        }
      ],
      "name": "LogTrade",
      "type": "event"
    },
    {
      "anonymous": false,
      "inputs": [
        {
          "indexed": false,
          "name": "errorId",
          "type": "uint8"
        },
        {
          "indexed": false,
          "name": "makerOrderHash",
          "type": "bytes32"
        },
        {
          "indexed": false,
          "name": "takerOrderHash",
          "type": "bytes32"
        }
      ],
      "name": "LogError",
      "type": "event"
    },
    {
      "anonymous": false,
      "inputs": [
        {
          "indexed": false,
          "name": "orderHash",
          "type": "bytes32"
        },
        {
          "indexed": false,
          "name": "userAddress",
          "type": "address"
        },
        {
          "indexed": false,
          "name": "baseToken",
          "type": "address"
        },
        {
          "indexed": false,
          "name": "quoteToken",
          "type": "address"
        },
        {
          "indexed": false,
          "name": "amount",
          "type": "uint256"
        },
        {
          "indexed": false,
          "name": "pricepoint",
          "type": "uint256"
        },
        {
          "indexed": false,
          "name": "side",
          "type": "uint256"
        }
      ],
      "name": "LogCancelOrder",
      "type": "event"
    },
    {
      "anonymous": false,
      "inputs": [
        {
          "indexed": true,
          "name": "previousOwner",
          "type": "address"
        },
        {
          "indexed": true,
          "name": "newOwner",
          "type": "address"
        }
      ],
      "name": "SetOwner",
      "type": "event"
    },
    {
      "constant": false,
      "inputs": [
        {
          "name": "_baseToken",
          "type": "address"
        },
        {
          "name": "_quoteToken",
          "type": "address"
        },
        {
          "name": "_pricepointMultiplier",
          "type": "uint256"
        }
      ],
      "name": "registerPair",
      "outputs": [
        {
          "name": "",
          "type": "bool"
        }
      ],
      "payable": false,
      "stateMutability": "nonpayable",
      "type": "function"
    },
    {
      "constant": false,
      "inputs": [
        {
          "name": "_wethToken",
          "type": "address"
        }
      ],
      "name": "setWethToken",
      "outputs": [
        {
          "name": "",
          "type": "bool"
        }
      ],
      "payable": false,
      "stateMutability": "nonpayable",
      "type": "function"
    },
    {
      "constant": false,
      "inputs": [
        {
          "name": "_feeAccount",
          "type": "address"
        }
      ],
      "name": "setFeeAccount",
      "outputs": [
        {
          "name": "",
          "type": "bool"
        }
      ],
      "payable": false,
      "stateMutability": "nonpayable",
      "type": "function"
    },
    {
      "constant": false,
      "inputs": [
        {
          "name": "_operator",
          "type": "address"
        },
        {
          "name": "_isOperator",
          "type": "bool"
        }
      ],
      "name": "setOperator",
      "outputs": [
        {
          "name": "",
          "type": "bool"
        }
      ],
      "payable": false,
      "stateMutability": "nonpayable",
      "type": "function"
    },
    {
      "constant": false,
      "inputs": [
        {
          "name": "orderValues",
          "type": "uint256[10][]"
        },
        {
          "name": "orderAddresses",
          "type": "address[4][]"
        },
        {
          "name": "amounts",
          "type": "uint256[]"
        },
        {
          "name": "v",
          "type": "uint8[2][]"
        },
        {
          "name": "rs",
          "type": "bytes32[4][]"
        }
      ],
      "name": "executeBatchTrades",
      "outputs": [
        {
          "name": "",
          "type": "bool"
        }
      ],
      "payable": false,
      "stateMutability": "nonpayable",
      "type": "function"
    },
    {
      "constant": false,
      "inputs": [
        {
          "name": "orderValues",
          "type": "uint256[10]"
        },
        {
          "name": "orderAddresses",
          "type": "address[4]"
        },
        {
          "name": "amount",
          "type": "uint256"
        },
        {
          "name": "v",
          "type": "uint8[2]"
        },
        {
          "name": "rs",
          "type": "bytes32[4]"
        }
      ],
      "name": "executeSingleTrade",
      "outputs": [
        {
          "name": "",
          "type": "bool"
        }
      ],
      "payable": false,
      "stateMutability": "nonpayable",
      "type": "function"
    },
    {
      "constant": false,
      "inputs": [
        {
          "name": "orderValues",
          "type": "uint256[10]"
        },
        {
          "name": "orderAddresses",
          "type": "address[4]"
        },
        {
          "name": "v",
          "type": "uint8[2]"
        },
        {
          "name": "rs",
          "type": "bytes32[4]"
        }
      ],
      "name": "validateSignatures",
      "outputs": [
        {
          "name": "",
          "type": "bool"
        }
      ],
      "payable": false,
      "stateMutability": "nonpayable",
      "type": "function"
    },
    {
      "constant": false,
      "inputs": [
        {
          "name": "orderValues",
          "type": "uint256[10]"
        },
        {
          "name": "orderAddresses",
          "type": "address[4]"
        },
        {
          "name": "amount",
          "type": "uint256"
        },
        {
          "name": "pricepointMultiplier",
          "type": "uint256"
        }
      ],
      "name": "executeTrade",
      "outputs": [
        {
          "name": "",
          "type": "bytes32"
        },
        {
          "name": "",
          "type": "bytes32"
        },
        {
          "name": "",
          "type": "bool"
        }
      ],
      "payable": false,
      "stateMutability": "nonpayable",
      "type": "function"
    },
    {
      "constant": false,
      "inputs": [
        {
          "name": "orderValues",
          "type": "uint256[6][]"
        },
        {
          "name": "orderAddresses",
          "type": "address[3][]"
        },
        {
          "name": "v",
          "type": "uint8[]"
        },
        {
          "name": "r",
          "type": "bytes32[]"
        },
        {
          "name": "s",
          "type": "bytes32[]"
        }
      ],
      "name": "batchCancelOrders",
      "outputs": [],
      "payable": false,
      "stateMutability": "nonpayable",
      "type": "function"
    },
    {
      "constant": false,
      "inputs": [
        {
          "name": "orderValues",
          "type": "uint256[6]"
        },
        {
          "name": "orderAddresses",
          "type": "address[3]"
        },
        {
          "name": "v",
          "type": "uint8"
        },
        {
          "name": "r",
          "type": "bytes32"
        },
        {
          "name": "s",
          "type": "bytes32"
        }
      ],
      "name": "cancelOrder",
      "outputs": [
        {
          "name": "",
          "type": "bool"
        }
      ],
      "payable": false,
      "stateMutability": "nonpayable",
      "type": "function"
    },
    {
      "constant": true,
      "inputs": [
        {
          "name": "signer",
          "type": "address"
        },
        {
          "name": "hash",
          "type": "bytes32"
        },
        {
          "name": "v",
          "type": "uint8"
        },
        {
          "name": "r",
          "type": "bytes32"
        },
        {
          "name": "s",
          "type": "bytes32"
        }
      ],
      "name": "isValidSignature",
      "outputs": [
        {
          "name": "",
          "type": "bool"
        }
      ],
      "payable": false,
      "stateMutability": "pure",
      "type": "function"
    },
    {
      "constant": true,
      "inputs": [
        {
          "name": "numerator",
          "type": "uint256"
        },
        {
          "name": "denominator",
          "type": "uint256"
        },
        {
          "name": "target",
          "type": "uint256"
        }
      ],
      "name": "isRoundingError",
      "outputs": [
        {
          "name": "",
          "type": "bool"
        }
      ],
      "payable": false,
      "stateMutability": "pure",
      "type": "function"
    },
    {
      "constant": true,
      "inputs": [
        {
          "name": "numerator",
          "type": "uint256"
        },
        {
          "name": "denominator",
          "type": "uint256"
        },
        {
          "name": "target",
          "type": "uint256"
        }
      ],
      "name": "getPartialAmount",
      "outputs": [
        {
          "name": "",
          "type": "uint256"
        }
      ],
      "payable": false,
      "stateMutability": "pure",
      "type": "function"
    },
    {
      "constant": false,
      "inputs": [
        {
          "name": "orderAddresses",
          "type": "address[4]"
        },
        {
          "name": "makerOrderHashes",
          "type": "bytes32[]"
        },
        {
          "name": "takerOrderHashes",
          "type": "bytes32[]"
        }
      ],
      "name": "emitLog",
      "outputs": [],
      "payable": false,
      "stateMutability": "nonpayable",
      "type": "function"
    }
  ],
  "bytecode": "0x608060405234801561001057600080fd5b506040516040806142738339810180604052810190808051906020019092919080519060200190929190505050336000806101000a81548173ffffffffffffffffffffffffffffffffffffffff021916908373ffffffffffffffffffffffffffffffffffffffff16021790555081600160006101000a81548173ffffffffffffffffffffffffffffffffffffffff021916908373ffffffffffffffffffffffffffffffffffffffff16021790555080600260006101000a81548173ffffffffffffffffffffffffffffffffffffffff021916908373ffffffffffffffffffffffffffffffffffffffff1602179055505050614163806101106000396000f300608060405260043610610133576000357c0100000000000000000000000000000000000000000000000000000000900463ffffffff16806310ac00d81461013857806313af40351461023a57806313e7c9d81461027d57806314df96ee146102d85780631778baf414610331578063288cdc91146104295780633c9183411461046e5780634b023cf8146104f35780634b57b0be1461054e5780635171267f146105a5578063558a72971461082057806365e17c9d14610887578063673e0481146108de5780638163681e1461099857806386e09c0814610a2a5780638da5cb5b14610a8557806393c1ae0914610adc57806398024a8b14610bb4578063b4cb255314610c09578063d581332314610cd5578063d9a72b5214610d1e578063e51ad32d14610de0578063ffa1ad7414610fca575b600080fd5b34801561014457600080fd5b50610220600480360381019080806101400190600a806020026040519081016040528092919082600a60200280828437820191505050505091929192908060800190600480602002604051908101604052809291908260046020028082843782019150505050509192919290803590602001909291908060400190600280602002604051908101604052809291908260026020028082843782019150505050509192919290806080019060048060200260405190810160405280929190826004602002808284378201915050505050919291929050505061105a565b604051808215151515815260200191505060405180910390f35b34801561024657600080fd5b5061027b600480360381019080803573ffffffffffffffffffffffffffffffffffffffff16906020019092919050505061120a565b005b34801561028957600080fd5b506102be600480360381019080803573ffffffffffffffffffffffffffffffffffffffff169060200190929190505050611323565b604051808215151515815260200191505060405180910390f35b3480156102e457600080fd5b50610317600480360381019080803590602001909291908035906020019092919080359060200190929190505050611343565b604051808215151515815260200191505060405180910390f35b34801561033d57600080fd5b5061040f600480360381019080806101400190600a806020026040519081016040528092919082600a60200280828437820191505050505091929192908060800190600480602002604051908101604052809291908260046020028082843782019150505050509192919290806040019060028060200260405190810160405280929190826002602002808284378201915050505050919291929080608001906004806020026040519081016040528092919082600460200280828437820191505050505091929192905050506113b6565b604051808215151515815260200191505060405180910390f35b34801561043557600080fd5b5061045860048036038101908080356000191690602001909291905050506117d6565b6040518082815260200191505060405180910390f35b34801561047a57600080fd5b506104d9600480360381019080803573ffffffffffffffffffffffffffffffffffffffff169060200190929190803573ffffffffffffffffffffffffffffffffffffffff169060200190929190803590602001909291905050506117ee565b604051808215151515815260200191505060405180910390f35b3480156104ff57600080fd5b50610534600480360381019080803573ffffffffffffffffffffffffffffffffffffffff169060200190929190505050611978565b604051808215151515815260200191505060405180910390f35b34801561055a57600080fd5b50610563611b14565b604051808273ffffffffffffffffffffffffffffffffffffffff1673ffffffffffffffffffffffffffffffffffffffff16815260200191505060405180910390f35b3480156105b157600080fd5b5061080660048036038101908080359060200190820180359060200190808060200260200160405190810160405280939291908181526020016000905b828210156106345784848390506101400201600a806020026040519081016040528092919082600a602002808284378201915050505050815260200190600101906105ee565b5050505050919291929080359060200190820180359060200190808060200260200160405190810160405280939291908181526020016000905b828210156106b357848483905060800201600480602002604051908101604052809291908260046020028082843782019150505050508152602001906001019061066e565b505050505091929192908035906020019082018035906020019080806020026020016040519081016040528093929190818152602001838360200280828437820191505050505050919291929080359060200190820180359060200190808060200260200160405190810160405280939291908181526020016000905b82821015610775578484839050604002016002806020026040519081016040528092919082600260200280828437820191505050505081526020019060010190610730565b5050505050919291929080359060200190820180359060200190808060200260200160405190810160405280939291908181526020016000905b828210156107f45784848390506080020160048060200260405190810160405280929190826004602002808284378201915050505050815260200190600101906107af565b50505050509192919290505050611b3a565b604051808215151515815260200191505060405180910390f35b34801561082c57600080fd5b5061086d600480360381019080803573ffffffffffffffffffffffffffffffffffffffff169060200190929190803515159060200190929190505050611e67565b604051808215151515815260200191505060405180910390f35b34801561089357600080fd5b5061089c611fd0565b604051808273ffffffffffffffffffffffffffffffffffffffff1673ffffffffffffffffffffffffffffffffffffffff16815260200191505060405180910390f35b3480156108ea57600080fd5b5061090d6004803603810190808035600019169060200190929190505050611ff6565b6040518085600019166000191681526020018473ffffffffffffffffffffffffffffffffffffffff1673ffffffffffffffffffffffffffffffffffffffff1681526020018373ffffffffffffffffffffffffffffffffffffffff1673ffffffffffffffffffffffffffffffffffffffff16815260200182815260200194505050505060405180910390f35b3480156109a457600080fd5b50610a10600480360381019080803573ffffffffffffffffffffffffffffffffffffffff1690602001909291908035600019169060200190929190803560ff16906020019092919080356000191690602001909291908035600019169060200190929190505050612066565b604051808215151515815260200191505060405180910390f35b348015610a3657600080fd5b50610a6b600480360381019080803573ffffffffffffffffffffffffffffffffffffffff1690602001909291905050506121d3565b604051808215151515815260200191505060405180910390f35b348015610a9157600080fd5b50610a9a612333565b604051808273ffffffffffffffffffffffffffffffffffffffff1673ffffffffffffffffffffffffffffffffffffffff16815260200191505060405180910390f35b348015610ae857600080fd5b50610bb260048036038101908080608001906004806020026040519081016040528092919082600460200280828437820191505050505091929192908035906020019082018035906020019080806020026020016040519081016040528093929190818152602001838360200280828437820191505050505050919291929080359060200190820180359060200190808060200260200160405190810160405280939291908181526020018383602002808284378201915050505050509192919290505050612358565b005b348015610bc057600080fd5b50610bf3600480360381019080803590602001909291908035906020019092919080359060200190929190505050612548565b6040518082815260200191505060405180910390f35b348015610c1557600080fd5b50610c9d600480360381019080806101400190600a806020026040519081016040528092919082600a602002808284378201915050505050919291929080608001906004806020026040519081016040528092919082600460200280828437820191505050505091929192908035906020019092919080359060200190929190505050612578565b604051808460001916600019168152602001836000191660001916815260200182151515158152602001935050505060405180910390f35b348015610ce157600080fd5b50610d046004803603810190808035600019169060200190929190505050613410565b604051808215151515815260200191505060405180910390f35b348015610d2a57600080fd5b50610dc66004803603810190808060c001906006806020026040519081016040528092919082600660200280828437820191505050505091929192908060600190600380602002604051908101604052809291908260036020028082843782019150505050509192919290803560ff16906020019092919080356000191690602001909291908035600019169060200190929190505050613430565b604051808215151515815260200191505060405180910390f35b348015610dec57600080fd5b50610fc860048036038101908080359060200190820180359060200190808060200260200160405190810160405280939291908181526020016000905b82821015610e6e57848483905060c002016006806020026040519081016040528092919082600660200280828437820191505050505081526020019060010190610e29565b5050505050919291929080359060200190820180359060200190808060200260200160405190810160405280939291908181526020016000905b82821015610eed578484839050606002016003806020026040519081016040528092919082600360200280828437820191505050505081526020019060010190610ea8565b5050505050919291929080359060200190820180359060200190808060200260200160405190810160405280939291908181526020018383602002808284378201915050505050509192919290803590602001908201803590602001908080602002602001604051908101604052809392919081815260200183836020028082843782019150505050505091929192908035906020019082018035906020019080806020026020016040519081016040528093929190818152602001838360200280828437820191505050505050919291929050505061372e565b005b348015610fd657600080fd5b50610fdf6137d3565b6040518080602001828103825283818151815260200191508051906020019080838360005b8381101561101f578082015181840152602081019050611004565b50505050905090810190601f16801561104c5780820380516001836020036101000a031916815260200191505b509250505060405180910390f35b6000606080606060008060008060008060009054906101000a900473ffffffffffffffffffffffffffffffffffffffff1673ffffffffffffffffffffffffffffffffffffffff163373ffffffffffffffffffffffffffffffffffffffff16148061110d5750600360003373ffffffffffffffffffffffffffffffffffffffff1673ffffffffffffffffffffffffffffffffffffffff16815260200190815260200160002060009054906101000a900460ff165b151561111857600080fd5b60046040519080825280602002602001820160405280156111485781602001602082028038833980820191505090505b509750600460405190808252806020026020018201604052801561117b5781602001602082028038833980820191505090505b50965060046040519080825280602002602001820160405280156111ae5781602001602082028038833980820191505090505b5095506111bd8e8e8d8d6113b6565b94508415156111cf57600098506111f9565b6111d88d61380c565b93506111e68e8e8e87612578565b9250925092506111f78e8e8e613948565b505b505050505050505095945050505050565b6000809054906101000a900473ffffffffffffffffffffffffffffffffffffffff1673ffffffffffffffffffffffffffffffffffffffff163373ffffffffffffffffffffffffffffffffffffffff1614151561126557600080fd5b8073ffffffffffffffffffffffffffffffffffffffff166000809054906101000a900473ffffffffffffffffffffffffffffffffffffffff1673ffffffffffffffffffffffffffffffffffffffff167fcbf985117192c8f614a58aaf97226bb80a754772f5f6edf06f87c675f2e6c66360405160405180910390a3806000806101000a81548173ffffffffffffffffffffffffffffffffffffffff021916908373ffffffffffffffffffffffffffffffffffffffff16021790555050565b60036020528060005260406000206000915054906101000a900460ff1681565b60008060008480151561135257fe5b8685099150600082141561136957600092506113ad565b6113a361137f8588613b0190919063ffffffff16565b611395620f424085613b0190919063ffffffff16565b613b3490919063ffffffff16565b90506103e8811192505b50509392505050565b60006113c0614050565b6113c8614050565b600080610120604051908101604052808960006004811015156113e757fe5b602002015173ffffffffffffffffffffffffffffffffffffffff16815260200189600260048110151561141657fe5b602002015173ffffffffffffffffffffffffffffffffffffffff16815260200189600360048110151561144557fe5b602002015173ffffffffffffffffffffffffffffffffffffffff1681526020018a6000600a8110151561147457fe5b602002015181526020018a6001600a8110151561148d57fe5b602002015181526020018a6002600a811015156114a657fe5b602002015181526020018a6003600a811015156114bf57fe5b602002015181526020018a6008600a811015156114d857fe5b602002015181526020018a6009600a811015156114f157fe5b602002015181525093506101206040519081016040528089600160048110151561151757fe5b602002015173ffffffffffffffffffffffffffffffffffffffff16815260200189600260048110151561154657fe5b602002015173ffffffffffffffffffffffffffffffffffffffff16815260200189600360048110151561157557fe5b602002015173ffffffffffffffffffffffffffffffffffffffff1681526020018a6004600a811015156115a457fe5b602002015181526020018a6005600a811015156115bd57fe5b602002015181526020018a6006600a811015156115d657fe5b602002015181526020018a6007600a811015156115ef57fe5b602002015181526020018a6009600a8110151561160857fe5b602002015181526020018a6008600a8110151561162157fe5b6020020151815250925061163484613b4f565b915061163f83613b4f565b905061168b84600001518389600060028110151561165957fe5b602002015189600060048110151561166d57fe5b60200201518a600160048110151561168157fe5b6020020151612066565b1515611703577f14301341d034ec3c62a1eabc804a79abf3b8c16e6245e82ec572346aa452fabb600160088111156116bf57fe5b8383604051808460ff1660ff16815260200183600019166000191681526020018260001916600019168152602001935050505060405180910390a1600094506117ca565b61174d83600001518289600160028110151561171b57fe5b602002015189600260048110151561172f57fe5b60200201518a600360048110151561174357fe5b6020020151612066565b15156117c5577f14301341d034ec3c62a1eabc804a79abf3b8c16e6245e82ec572346aa452fabb6002600881111561178157fe5b8383604051808460ff1660ff16815260200183600019166000191681526020018260001916600019168152602001935050505060405180910390a1600094506117ca565b600194505b50505050949350505050565b60046020528060005260406000206000915090505481565b6000806000809054906101000a900473ffffffffffffffffffffffffffffffffffffffff1673ffffffffffffffffffffffffffffffffffffffff163373ffffffffffffffffffffffffffffffffffffffff1614151561184c57600080fd5b6118568585613d33565b9050608060405190810160405280826000191681526020018673ffffffffffffffffffffffffffffffffffffffff1681526020018573ffffffffffffffffffffffffffffffffffffffff168152602001848152506006600083600019166000191681526020019081526020016000206000820151816000019060001916905560208201518160010160006101000a81548173ffffffffffffffffffffffffffffffffffffffff021916908373ffffffffffffffffffffffffffffffffffffffff16021790555060408201518160020160006101000a81548173ffffffffffffffffffffffffffffffffffffffff021916908373ffffffffffffffffffffffffffffffffffffffff16021790555060608201518160030155905050509392505050565b60008060009054906101000a900473ffffffffffffffffffffffffffffffffffffffff1673ffffffffffffffffffffffffffffffffffffffff163373ffffffffffffffffffffffffffffffffffffffff161415156119d557600080fd5b600073ffffffffffffffffffffffffffffffffffffffff168273ffffffffffffffffffffffffffffffffffffffff1614151515611a1157600080fd5b7ff822f5a19627202340985855aeffadb385833332f2f700b3e6287d28547778a9600260009054906101000a900473ffffffffffffffffffffffffffffffffffffffff1683604051808373ffffffffffffffffffffffffffffffffffffffff1673ffffffffffffffffffffffffffffffffffffffff1681526020018273ffffffffffffffffffffffffffffffffffffffff1673ffffffffffffffffffffffffffffffffffffffff1681526020019250505060405180910390a181600260006101000a81548173ffffffffffffffffffffffffffffffffffffffff021916908373ffffffffffffffffffffffffffffffffffffffff16021790555060019050919050565b600160009054906101000a900473ffffffffffffffffffffffffffffffffffffffff1681565b600060608060606000806000806000806000809054906101000a900473ffffffffffffffffffffffffffffffffffffffff1673ffffffffffffffffffffffffffffffffffffffff163373ffffffffffffffffffffffffffffffffffffffff161480611bee5750600360003373ffffffffffffffffffffffffffffffffffffffff1673ffffffffffffffffffffffffffffffffffffffff16815260200190815260200160002060009054906101000a900460ff165b1515611bf957600080fd5b8d51604051908082528060200260200182016040528015611c295781602001602082028038833980820191505090505b5098508d51604051908082528060200260200182016040528015611c5c5781602001602082028038833980820191505090505b5097508d51604051908082528060200260200182016040528015611c8f5781602001602082028038833980820191505090505b509650600095505b8d51861015611df557611d088f87815181101515611cb157fe5b906020019060200201518f88815181101515611cc957fe5b906020019060200201518e89815181101515611ce157fe5b906020019060200201518e8a815181101515611cf957fe5b906020019060200201516113b6565b9450841515611d1a5760009950611e55565b611d3a8e87815181101515611d2b57fe5b9060200190602002015161380c565b9350611d8d8f87815181101515611d4d57fe5b906020019060200201518f88815181101515611d6557fe5b906020019060200201518f89815181101515611d7d57fe5b9060200190602002015187612578565b9250925092508015611de857828987815181101515611da857fe5b906020019060200201906000191690816000191681525050818887815181101515611dcf57fe5b9060200190602002019060001916908160001916815250505b8580600101965050611c97565b611e308f6000815181101515611e0757fe5b906020019060200201518f6000815181101515611e2057fe5b906020019060200201518f613e3d565b50611e548e6000815181101515611e4357fe5b906020019060200201518a8a612358565b5b50505050505050505095945050505050565b60008060009054906101000a900473ffffffffffffffffffffffffffffffffffffffff1673ffffffffffffffffffffffffffffffffffffffff163373ffffffffffffffffffffffffffffffffffffffff16141515611ec457600080fd5b600073ffffffffffffffffffffffffffffffffffffffff168373ffffffffffffffffffffffffffffffffffffffff1614151515611f0057600080fd5b7f4af650e9ee9ac50b37ec2cd3ddac7e1c69955ffc871bc3e812563775f3bc0e7d8383604051808373ffffffffffffffffffffffffffffffffffffffff1673ffffffffffffffffffffffffffffffffffffffff168152602001821515151581526020019250505060405180910390a181600360008573ffffffffffffffffffffffffffffffffffffffff1673ffffffffffffffffffffffffffffffffffffffff16815260200190815260200160002060006101000a81548160ff0219169083151502179055506001905092915050565b600260009054906101000a900473ffffffffffffffffffffffffffffffffffffffff1681565b60066020528060005260406000206000915090508060000154908060010160009054906101000a900473ffffffffffffffffffffffffffffffffffffffff16908060020160009054906101000a900473ffffffffffffffffffffffffffffffffffffffff16908060030154905084565b600060018560405160200180807f19457468657265756d205369676e6564204d6573736167653a0a333200000000815250601c0182600019166000191681526020019150506040516020818303038152906040526040518082805190602001908083835b6020831015156120ef57805182526020820191506020810190506020830392506120ca565b6001836020036101000a0380198251168184511680821785525050505050509050019150506040518091039020858585604051600081526020016040526040518085600019166000191681526020018460ff1660ff1681526020018360001916600019168152602001826000191660001916815260200194505050505060206040516020810390808403906000865af1158015612190573d6000803e3d6000fd5b5050506020604051035173ffffffffffffffffffffffffffffffffffffffff168673ffffffffffffffffffffffffffffffffffffffff1614905095945050505050565b60008060009054906101000a900473ffffffffffffffffffffffffffffffffffffffff1673ffffffffffffffffffffffffffffffffffffffff163373ffffffffffffffffffffffffffffffffffffffff1614151561223057600080fd5b7fb8be72b4c168c2f7d3ea469d9f48ccbc62416784a4f6a69ca93ff13f4f36545b600160009054906101000a900473ffffffffffffffffffffffffffffffffffffffff1683604051808373ffffffffffffffffffffffffffffffffffffffff1673ffffffffffffffffffffffffffffffffffffffff1681526020018273ffffffffffffffffffffffffffffffffffffffff1673ffffffffffffffffffffffffffffffffffffffff1681526020019250505060405180910390a181600160006101000a81548173ffffffffffffffffffffffffffffffffffffffff021916908373ffffffffffffffffffffffffffffffffffffffff16021790555060019050919050565b6000809054906101000a900473ffffffffffffffffffffffffffffffffffffffff1681565b82600160048110151561236757fe5b602002015183600260048110151561237b57fe5b6020020151604051602001808373ffffffffffffffffffffffffffffffffffffffff1673ffffffffffffffffffffffffffffffffffffffff166c010000000000000000000000000281526014018273ffffffffffffffffffffffffffffffffffffffff1673ffffffffffffffffffffffffffffffffffffffff166c01000000000000000000000000028152601401925050506040516020818303038152906040526040518082805190602001908083835b602083101515612451578051825260208201915060208101905060208303925061242c565b6001836020036101000a0380198251168184511680821785525050505050509050019150506040518091039020600019167fde8acabe30c9bd25d65bb9db28bf46f51dc7500a07b1671f121f1144fbf446fc8383604051808060200180602001838103835285818151815260200191508051906020019060200280838360005b838110156124ec5780820151818401526020810190506124d1565b50505050905001838103825284818151815260200191508051906020019060200280838360005b8381101561252e578082015181840152602081019050612513565b5050505090500194505050505060405180910390a2505050565b600061256f836125618487613b0190919063ffffffff16565b613b3490919063ffffffff16565b90509392505050565b6000806000612585614050565b61258d614050565b60008060008060008060009054906101000a900473ffffffffffffffffffffffffffffffffffffffff1673ffffffffffffffffffffffffffffffffffffffff163373ffffffffffffffffffffffffffffffffffffffff1614806126395750600360003373ffffffffffffffffffffffffffffffffffffffff1673ffffffffffffffffffffffffffffffffffffffff16815260200190815260200160002060009054906101000a900460ff165b151561264457600080fd5b610120604051908101604052808e600060048110151561266057fe5b602002015173ffffffffffffffffffffffffffffffffffffffff1681526020018e600260048110151561268f57fe5b602002015173ffffffffffffffffffffffffffffffffffffffff1681526020018e60036004811015156126be57fe5b602002015173ffffffffffffffffffffffffffffffffffffffff1681526020018f6000600a811015156126ed57fe5b602002015181526020018f6001600a8110151561270657fe5b602002015181526020018f6002600a8110151561271f57fe5b602002015181526020018f6003600a8110151561273857fe5b602002015181526020018f6008600a8110151561275157fe5b602002015181526020018f6009600a8110151561276a57fe5b60200201518152509650610120604051908101604052808e600160048110151561279057fe5b602002015173ffffffffffffffffffffffffffffffffffffffff1681526020018e60026004811015156127bf57fe5b602002015173ffffffffffffffffffffffffffffffffffffffff1681526020018e60036004811015156127ee57fe5b602002015173ffffffffffffffffffffffffffffffffffffffff1681526020018f6004600a8110151561281d57fe5b602002015181526020018f6005600a8110151561283657fe5b602002015181526020018f6006600a8110151561284f57fe5b602002015181526020018f6007600a8110151561286857fe5b602002015181526020018f6009600a8110151561288157fe5b602002015181526020018f6008600a8110151561289a57fe5b602002015181525095506128ad87613b4f565b94506128b886613b4f565b935086606001516128ed8d6004600089600019166000191681526020019081526020016000205461403290919063ffffffff16565b111561296b577f14301341d034ec3c62a1eabc804a79abf3b8c16e6245e82ec572346aa452fabb6007600881111561292157fe5b8686604051808460ff1660ff16815260200183600019166000191681526020018260001916600019168152602001935050505060405180910390a1848460009950995099506133ff565b856060015161299e8d6004600088600019166000191681526020019081526020016000205461403290919063ffffffff16565b1115612a1c577f14301341d034ec3c62a1eabc804a79abf3b8c16e6245e82ec572346aa452fabb600760088111156129d257fe5b8686604051808460ff1660ff16815260200183600019166000191681526020018260001916600019168152602001935050505060405180910390a1848460009950995099506133ff565b8660a001518660a001511415612aa4577f14301341d034ec3c62a1eabc804a79abf3b8c16e6245e82ec572346aa452fabb60036008811115612a5a57fe5b8686604051808460ff1660ff16815260200183600019166000191681526020018260001916600019168152602001935050505060405180910390a1848460009950995099506133ff565b60008760a001511415612b3a57856080015187608001511015612b39577f14301341d034ec3c62a1eabc804a79abf3b8c16e6245e82ec572346aa452fabb60046008811115612aef57fe5b8686604051808460ff1660ff16815260200183600019166000191681526020018260001916600019168152602001935050505060405180910390a1848460009950995099506133ff565b5b60018760a001511415612bd057866080015186608001511015612bcf577f14301341d034ec3c62a1eabc804a79abf3b8c16e6245e82ec572346aa452fabb60046008811115612b8557fe5b8686604051808460ff1660ff16815260200183600019166000191681526020018260001916600019168152602001935050505060405180910390a1848460009950995099506133ff565b5b612bfe8c6004600087600019166000191681526020019081526020016000205461403290919063ffffffff16565b60046000866000191660001916815260200190815260200160002081905550612c4b8c6004600088600019166000191681526020019081526020016000205461403290919063ffffffff16565b600460008760001916600019168152602001908152602001600020819055508b9250612c968b612c8889608001518f613b0190919063ffffffff16565b613b3490919063ffffffff16565b9150612cab8c88606001518960e00151612548565b905060008760a00151141561305857866040015173ffffffffffffffffffffffffffffffffffffffff166323b872dd88600001518860000151856040518463ffffffff167c0100000000000000000000000000000000000000000000000000000000028152600401808473ffffffffffffffffffffffffffffffffffffffff1673ffffffffffffffffffffffffffffffffffffffff1681526020018373ffffffffffffffffffffffffffffffffffffffff1673ffffffffffffffffffffffffffffffffffffffff1681526020018281526020019350505050602060405180830381600087803b158015612d9d57600080fd5b505af1158015612db1573d6000803e3d6000fd5b505050506040513d6020811015612dc757600080fd5b81019080805190602001909291905050501515612de357600080fd5b866040015173ffffffffffffffffffffffffffffffffffffffff166323b872dd8860000151600260009054906101000a900473ffffffffffffffffffffffffffffffffffffffff16846040518463ffffffff167c0100000000000000000000000000000000000000000000000000000000028152600401808473ffffffffffffffffffffffffffffffffffffffff1673ffffffffffffffffffffffffffffffffffffffff1681526020018373ffffffffffffffffffffffffffffffffffffffff1673ffffffffffffffffffffffffffffffffffffffff1681526020018281526020019350505050602060405180830381600087803b158015612ee457600080fd5b505af1158015612ef8573d6000803e3d6000fd5b505050506040513d6020811015612f0e57600080fd5b81019080805190602001909291905050501515612f2a57600080fd5b856020015173ffffffffffffffffffffffffffffffffffffffff166323b872dd87600001518960000151866040518463ffffffff167c0100000000000000000000000000000000000000000000000000000000028152600401808473ffffffffffffffffffffffffffffffffffffffff1673ffffffffffffffffffffffffffffffffffffffff1681526020018373ffffffffffffffffffffffffffffffffffffffff1673ffffffffffffffffffffffffffffffffffffffff1681526020018281526020019350505050602060405180830381600087803b15801561300d57600080fd5b505af1158015613021573d6000803e3d6000fd5b505050506040513d602081101561303757600080fd5b8101908080519060200190929190505050151561305357600080fd5b6133f4565b866020015173ffffffffffffffffffffffffffffffffffffffff166323b872dd88600001518860000151866040518463ffffffff167c0100000000000000000000000000000000000000000000000000000000028152600401808473ffffffffffffffffffffffffffffffffffffffff1673ffffffffffffffffffffffffffffffffffffffff1681526020018373ffffffffffffffffffffffffffffffffffffffff1673ffffffffffffffffffffffffffffffffffffffff1681526020018281526020019350505050602060405180830381600087803b15801561313b57600080fd5b505af115801561314f573d6000803e3d6000fd5b505050506040513d602081101561316557600080fd5b8101908080519060200190929190505050151561318157600080fd5b856040015173ffffffffffffffffffffffffffffffffffffffff166323b872dd8760000151600260009054906101000a900473ffffffffffffffffffffffffffffffffffffffff16846040518463ffffffff167c0100000000000000000000000000000000000000000000000000000000028152600401808473ffffffffffffffffffffffffffffffffffffffff1673ffffffffffffffffffffffffffffffffffffffff1681526020018373ffffffffffffffffffffffffffffffffffffffff1673ffffffffffffffffffffffffffffffffffffffff1681526020018281526020019350505050602060405180830381600087803b15801561328257600080fd5b505af1158015613296573d6000803e3d6000fd5b505050506040513d60208110156132ac57600080fd5b810190808051906020019092919050505015156132c857600080fd5b856040015173ffffffffffffffffffffffffffffffffffffffff166323b872dd876000015189600001518486036040518463ffffffff167c0100000000000000000000000000000000000000000000000000000000028152600401808473ffffffffffffffffffffffffffffffffffffffff1673ffffffffffffffffffffffffffffffffffffffff1681526020018373ffffffffffffffffffffffffffffffffffffffff1673ffffffffffffffffffffffffffffffffffffffff1681526020018281526020019350505050602060405180830381600087803b1580156133ad57600080fd5b505af11580156133c1573d6000803e3d6000fd5b505050506040513d60208110156133d757600080fd5b810190808051906020019092919050505015156133f357600080fd5b5b848460019950995099505b505050505050509450945094915050565b60056020528060005260406000206000915054906101000a900460ff1681565b600061343a614050565b60006101206040519081016040528088600060038110151561345857fe5b602002015173ffffffffffffffffffffffffffffffffffffffff16815260200188600160038110151561348757fe5b602002015173ffffffffffffffffffffffffffffffffffffffff1681526020018860026003811015156134b657fe5b602002015173ffffffffffffffffffffffffffffffffffffffff1681526020018960006006811015156134e557fe5b602002015181526020018960016006811015156134fe57fe5b6020020151815260200189600260068110151561351757fe5b6020020151815260200189600360068110151561353057fe5b6020020151815260200189600560068110151561354957fe5b6020020151815260200189600460068110151561356257fe5b6020020151815250915061357582613b4f565b90506135843382888888612066565b15156135ef577f14301341d034ec3c62a1eabc804a79abf3b8c16e6245e82ec572346aa452fabb600060088111156135b857fe5b82604051808360ff1660ff16815260200182600019166000191681526020016020019250505060405180910390a160009250613723565b8160600151600460008360001916600019168152602001908152602001600020819055507fb00984fe824f4973f31e8a414157f54cb4ee29bc2100149ba22a094d0bfd551881836000015184602001518560400151866060015187608001518860a001516040518088600019166000191681526020018773ffffffffffffffffffffffffffffffffffffffff1673ffffffffffffffffffffffffffffffffffffffff1681526020018673ffffffffffffffffffffffffffffffffffffffff1673ffffffffffffffffffffffffffffffffffffffff1681526020018573ffffffffffffffffffffffffffffffffffffffff1673ffffffffffffffffffffffffffffffffffffffff16815260200184815260200183815260200182815260200197505050505050505060405180910390a1600192505b505095945050505050565b60008090505b84518110156137cb576137bd868281518110151561374e57fe5b90602001906020020151868381518110151561376657fe5b90602001906020020151868481518110151561377e57fe5b90602001906020020151868581518110151561379657fe5b9060200190602002015186868151811015156137ae57fe5b90602001906020020151613430565b508080600101915050613734565b505050505050565b6040805190810160405280600581526020017f312e302e3000000000000000000000000000000000000000000000000000000081525081565b6000806138176140df565b61384784600260048110151561382957fe5b602002015185600360048110151561383d57fe5b6020020151613d33565b9150600660008360001916600019168152602001908152602001600020608060405190810160405290816000820154600019166000191681526020016001820160009054906101000a900473ffffffffffffffffffffffffffffffffffffffff1673ffffffffffffffffffffffffffffffffffffffff1673ffffffffffffffffffffffffffffffffffffffff1681526020016002820160009054906101000a900473ffffffffffffffffffffffffffffffffffffffff1673ffffffffffffffffffffffffffffffffffffffff1673ffffffffffffffffffffffffffffffffffffffff1681526020016003820154815250509050806060015192505050919050565b600080600080600080886004600a8110151561396057fe5b60200201519450886008600a8110151561397657fe5b6020020151935087600160048110151561398c57fe5b602002015192508760036004811015156139a257fe5b602002015191506139b4878686612548565b90508173ffffffffffffffffffffffffffffffffffffffff166323b872dd84600260009054906101000a900473ffffffffffffffffffffffffffffffffffffffff16846040518463ffffffff167c0100000000000000000000000000000000000000000000000000000000028152600401808473ffffffffffffffffffffffffffffffffffffffff1673ffffffffffffffffffffffffffffffffffffffff1681526020018373ffffffffffffffffffffffffffffffffffffffff1673ffffffffffffffffffffffffffffffffffffffff1681526020018281526020019350505050602060405180830381600087803b158015613aaf57600080fd5b505af1158015613ac3573d6000803e3d6000fd5b505050506040513d6020811015613ad957600080fd5b81019080805190602001909291905050501515613af557600080fd5b50505050509392505050565b60008082840290506000841480613b225750828482811515613b1f57fe5b04145b1515613b2a57fe5b8091505092915050565b6000808284811515613b4257fe5b0490508091505092915050565b600030826000015183602001518460400151856060015186608001518760a001518860c001518960e001518a6101000151604051602001808b73ffffffffffffffffffffffffffffffffffffffff1673ffffffffffffffffffffffffffffffffffffffff166c010000000000000000000000000281526014018a73ffffffffffffffffffffffffffffffffffffffff1673ffffffffffffffffffffffffffffffffffffffff166c010000000000000000000000000281526014018973ffffffffffffffffffffffffffffffffffffffff1673ffffffffffffffffffffffffffffffffffffffff166c010000000000000000000000000281526014018873ffffffffffffffffffffffffffffffffffffffff1673ffffffffffffffffffffffffffffffffffffffff166c010000000000000000000000000281526014018781526020018681526020018581526020018481526020018381526020018281526020019a50505050505050505050506040516020818303038152906040526040518082805190602001908083835b602083101515613cff5780518252602082019150602081019050602083039250613cda565b6001836020036101000a03801982511681845116808217855250505050505090500191505060405180910390209050919050565b60008282604051602001808373ffffffffffffffffffffffffffffffffffffffff1673ffffffffffffffffffffffffffffffffffffffff166c010000000000000000000000000281526014018273ffffffffffffffffffffffffffffffffffffffff1673ffffffffffffffffffffffffffffffffffffffff166c01000000000000000000000000028152601401925050506040516020818303038152906040526040518082805190602001908083835b602083101515613e085780518252602082019150602081019050602083039250613de3565b6001836020036101000a0380198251168184511680821785525050505050509050019150506040518091039020905092915050565b6000806000806000806000808a6004600a81101515613e5857fe5b602002015196508a6008600a81101515613e6e57fe5b60200201519550896001600481101515613e8457fe5b60200201519450896003600481101515613e9a57fe5b60200201519350600091505b8851821015613ed8578882815181101515613ebd57fe5b90602001906020020151830192508180600101925050613ea6565b613ee3838888612548565b90508373ffffffffffffffffffffffffffffffffffffffff166323b872dd86600260009054906101000a900473ffffffffffffffffffffffffffffffffffffffff16846040518463ffffffff167c0100000000000000000000000000000000000000000000000000000000028152600401808473ffffffffffffffffffffffffffffffffffffffff1673ffffffffffffffffffffffffffffffffffffffff1681526020018373ffffffffffffffffffffffffffffffffffffffff1673ffffffffffffffffffffffffffffffffffffffff1681526020018281526020019350505050602060405180830381600087803b158015613fde57600080fd5b505af1158015613ff2573d6000803e3d6000fd5b505050506040513d602081101561400857600080fd5b8101908080519060200190929190505050151561402457600080fd5b505050505050509392505050565b600080828401905083811015151561404657fe5b8091505092915050565b61012060405190810160405280600073ffffffffffffffffffffffffffffffffffffffff168152602001600073ffffffffffffffffffffffffffffffffffffffff168152602001600073ffffffffffffffffffffffffffffffffffffffff1681526020016000815260200160008152602001600081526020016000815260200160008152602001600081525090565b60806040519081016040528060008019168152602001600073ffffffffffffffffffffffffffffffffffffffff168152602001600073ffffffffffffffffffffffffffffffffffffffff1681526020016000815250905600a165627a7a72305820a5bdb9be38a5b39839065829b4534147c85cb80ab48af5521b2aa51ff0e586290029",
  "source": "pragma solidity 0.4.24;\n\nimport './utils/SafeMath.sol';\nimport './utils/Owned.sol';\nimport './interfaces/ERC20.sol';\n\ncontract Exchange is Owned {\n    using SafeMath for uint256;\n\n    enum Errors {\n        SIGNATURE_INVALID,                      // Signature is invalid\n        MAKER_SIGNATURE_INVALID,                // Maker signature is invalid\n        TAKER_SIGNATURE_INVALID,                // Taker signature is invalid\n        SIDES_INVALID,\n        PRICE_INVALID,\n        ORDER_EXPIRED,                          // Order has already expired\n        TRADE_ALREADY_COMPLETED_OR_CANCELLED,   // Trade has already been completed or it has been cancelled by taker\n        TRADE_AMOUNT_TOO_BIG,                   // Trade buyToken amount bigger than the remianing amountBuy\n        ROUNDING_ERROR_TOO_LARGE                // Rounding error too large\n    }\n\n    string constant public VERSION = \"1.0.0\";\n\n    address public wethToken;\n    address public feeAccount;\n    mapping(address => bool) public operators;\n    mapping(bytes32 => uint) public filled;       // Mappings of orderHash => amount of amountBuy filled.\n    mapping(bytes32 => bool) public traded;       // Mappings of tradeHash => bool value representing whether the trade is completed(true) or incomplete(false).\n    mapping(bytes32 => Pair) public pairs;\n\n    event LogWethTokenUpdate(address oldWethToken, address newWethToken);\n    event LogFeeAccountUpdate(address oldFeeAccount, address newFeeAccount);\n    event LogOperatorUpdate(address operator, bool isOperator);\n\n    event LogBatchTrades(\n      bytes32[] makerOrderHashes,\n      bytes32[] takerOrderHashes,\n      bytes32 indexed tokenPairHash\n    );\n\n    event LogTrade(\n        address indexed maker,\n        address indexed taker,\n        address tokenSell,\n        address tokenBuy,\n        uint256 filledAmountSell,\n        uint256 filledAmountBuy,\n        uint paidFeeMake,\n        uint paidFeeTake,\n        bytes32 orderHash,\n        bytes32 tradeHash,\n        bytes32 indexed tokenPairHash // keccak256(makerToken, takerToken), allows subscribing to a token pair\n    );\n\n    event LogError(\n        uint8 errorId,\n        bytes32 makerOrderHash,\n        bytes32 takerOrderHash\n    );\n\n    event LogCancelOrder(\n        bytes32 orderHash,\n        address userAddress,\n        address baseToken,\n        address quoteToken,\n        uint256 amount,\n        uint256 pricepoint,\n        uint256 side\n    );\n\n    struct Pair {\n      bytes32 pairID;\n      address baseToken;\n      address quoteToken;\n      uint256 pricepointMultiplier;\n    }\n\n    struct Order {\n      address userAddress;\n      address baseToken;\n      address quoteToken;\n      uint256 amount;\n      uint256 pricepoint;\n      uint256 side;\n      uint256 salt;\n      uint256 feeMake;\n      uint256 feeTake;\n    }\n\n    struct Trade {\n        bytes32 orderHash;  // Keccak-256 hash of the order to which the trade is linked\n        uint256 amount;     // The amount of buy tokens asked in the order\n        uint256 tradeNonce; // A taker wise unique incrementing integer value assigned to the trade\n        address taker;      // Ethereum address of the trade taker\n    }\n\n    modifier onlyOperator {\n        require(msg.sender == owner || operators[msg.sender]);\n        _;\n    }\n\n    constructor(address _wethToken, address _feeAccount) public {\n        wethToken = _wethToken;\n        feeAccount = _feeAccount;\n    }\n\n    function registerPair(address _baseToken, address _quoteToken, uint256 _pricepointMultiplier) public onlyOwner returns (bool) {\n      bytes32 pairID = getPairHash(_baseToken, _quoteToken);\n\n      pairs[pairID] = Pair({\n        pairID: pairID,\n        baseToken: _baseToken,\n        quoteToken: _quoteToken,\n        pricepointMultiplier: _pricepointMultiplier\n      });\n    }\n\n    /// @dev Sets the address of WETH token.\n    /// @param _wethToken An address to set as WETH token address.\n    /// @return Success on setting WETH token address.\n    function setWethToken(address _wethToken) public onlyOwner returns (bool) {\n        emit LogWethTokenUpdate(wethToken,_wethToken);\n        wethToken = _wethToken;\n        return true;\n    }\n\n    /// @dev Sets the address of fees account.\n    /// @param _feeAccount An address to set as fees account.\n    /// @return Success on setting fees account.\n    function setFeeAccount(address _feeAccount) public onlyOwner returns (bool) {\n        require(_feeAccount != address(0));\n        emit LogFeeAccountUpdate(feeAccount,_feeAccount);\n        feeAccount = _feeAccount;\n        return true;\n    }\n\n    /// @dev Sets or unset's an operator.\n    /// @param _operator The address of operator to set.\n    /// @param _isOperator Bool value indicating whether the address is operator or not.\n    /// @return Success on setting an operator.\n    function setOperator(address _operator, bool _isOperator) public onlyOwner returns (bool) {\n        require(_operator != address(0));\n        emit LogOperatorUpdate(_operator,_isOperator);\n        operators[_operator] = _isOperator;\n        return true;\n    }\n\n    function executeBatchTrades(\n      uint256[10][] orderValues,\n      address[4][] orderAddresses,\n      uint256[] amounts,\n      uint8[2][] memory v,\n      bytes32[4][] memory rs\n    ) public onlyOperator returns (bool)\n    {\n      bytes32[] memory makerOrderHashes = new bytes32[](orderAddresses.length);\n      bytes32[] memory takerOrderHashes = new bytes32[](orderAddresses.length);\n      bytes32[] memory tradeHashes = new bytes32[](orderAddresses.length);\n\n      for (uint i = 0; i < orderAddresses.length; i++) {\n        bool valid = validateSignatures(\n          orderValues[i],\n          orderAddresses[i],\n          v[i],\n          rs[i]\n        );\n\n        if (!valid) return false;\n\n        uint256 pricepointMultiplier = validatePair(orderAddresses[i]);\n        var (makerOrderHash, takerOrderHash, traded) = executeTrade(\n          orderValues[i],\n          orderAddresses[i],\n          amounts[i],\n          pricepointMultiplier\n        );\n\n        if (traded) {\n          makerOrderHashes[i] = makerOrderHash;\n          takerOrderHashes[i] = takerOrderHash;\n        }\n      }\n\n      payTakerFees(\n        orderValues[0], //takerOrder.amount\n        orderAddresses[0], //takerOrder.feeTake\n        amounts\n      );\n\n      emitLog(\n        orderAddresses[0],\n        makerOrderHashes,\n        takerOrderHashes\n      );\n    }\n\n\n\n    function executeSingleTrade(\n      uint256[10] orderValues,\n      address[4] orderAddresses,\n      uint256 amount,\n      uint8[2] memory v,\n      bytes32[4] memory rs\n    ) public onlyOperator returns (bool)\n    {\n      bytes32[] memory makerOrderHashes = new bytes32[](orderAddresses.length);\n      bytes32[] memory takerOrderHashes = new bytes32[](orderAddresses.length);\n      bytes32[] memory tradeHashes = new bytes32[](orderAddresses.length);\n\n      bool valid = validateSignatures(\n        orderValues,\n        orderAddresses,\n        v,\n        rs\n      );\n\n      if (!valid) return false;\n\n      uint256 pricepointMultiplier = validatePair(orderAddresses);\n      var (makerOrderHash, takerOrderHash, traded) = executeTrade(\n        orderValues,\n        orderAddresses,\n        amount,\n        pricepointMultiplier\n      );\n\n      paySingleTradeTakerFees(\n        orderValues, //takerOrder.amount\n        orderAddresses, //takerOrder.userAddress\n        amount\n      );\n    }\n\n    function validatePair(\n      address[4] orderAddresses\n    ) internal returns (uint256) {\n      bytes32 pairID = getPairHash(orderAddresses[2], orderAddresses[3]);\n      Pair memory pair = pairs[pairID];\n\n      return pair.pricepointMultiplier;\n    }\n\n\n    function validateSignatures(\n      uint256[10] orderValues,\n      address[4] orderAddresses,\n      uint8[2] memory v,\n      bytes32[4] memory rs\n    ) public returns (bool)\n    {\n        Order memory makerOrder = Order({\n          userAddress: orderAddresses[0],\n          baseToken: orderAddresses[2],\n          quoteToken: orderAddresses[3],\n          amount: orderValues[0],\n          pricepoint: orderValues[1],\n          side: orderValues[2],\n          salt: orderValues[3],\n          feeMake: orderValues[8],\n          feeTake: orderValues[9]\n        });\n\n        Order memory takerOrder = Order({\n          userAddress: orderAddresses[1],\n          baseToken: orderAddresses[2],\n          quoteToken: orderAddresses[3],\n          amount: orderValues[4],\n          pricepoint: orderValues[5],\n          side: orderValues[6],\n          salt: orderValues[7],\n          feeTake: orderValues[8],\n          feeMake: orderValues[9]\n        });\n\n        bytes32 makerOrderHash = getOrderHash(makerOrder);\n        bytes32 takerOrderHash = getOrderHash(takerOrder);\n\n        if (!isValidSignature(makerOrder.userAddress, makerOrderHash, v[0], rs[0], rs[1])) {\n            emit LogError(uint8(Errors.MAKER_SIGNATURE_INVALID), makerOrderHash, takerOrderHash);\n            return false;\n        }\n\n        if (!isValidSignature(takerOrder.userAddress, takerOrderHash, v[1], rs[2], rs[3])) {\n            emit LogError(uint8(Errors.TAKER_SIGNATURE_INVALID), makerOrderHash, takerOrderHash);\n            return false;\n        }\n\n        return true;\n    }\n\n    /*\n    * Core exchange functions\n    */\n    function executeTrade(\n        uint256[10] orderValues,\n        address[4] orderAddresses,\n        uint256 amount,\n        uint256 pricepointMultiplier\n    ) public onlyOperator returns (bytes32, bytes32, bool)\n    {\n        Order memory makerOrder = Order({\n          userAddress: orderAddresses[0],\n          baseToken: orderAddresses[2],\n          quoteToken: orderAddresses[3],\n          amount: orderValues[0],\n          pricepoint: orderValues[1],\n          side: orderValues[2],\n          salt: orderValues[3],\n          feeMake: orderValues[8],\n          feeTake: orderValues[9]\n        });\n\n        Order memory takerOrder = Order({\n          userAddress: orderAddresses[1],\n          baseToken: orderAddresses[2],\n          quoteToken: orderAddresses[3],\n          amount: orderValues[4],\n          pricepoint: orderValues[5],\n          side: orderValues[6],\n          salt: orderValues[7],\n          feeTake: orderValues[8],\n          feeMake: orderValues[9]\n        });\n\n        bytes32 makerOrderHash = getOrderHash(makerOrder);\n        bytes32 takerOrderHash = getOrderHash(takerOrder);\n\n        if ((filled[makerOrderHash].add(amount)) > makerOrder.amount) {\n          emit LogError(uint8(Errors.TRADE_AMOUNT_TOO_BIG), makerOrderHash, takerOrderHash);\n          return (makerOrderHash, takerOrderHash, false);\n        }\n\n        if ((filled[takerOrderHash].add(amount)) > takerOrder.amount) {\n          emit LogError(uint8(Errors.TRADE_AMOUNT_TOO_BIG), makerOrderHash, takerOrderHash);\n          return (makerOrderHash, takerOrderHash, false);\n        }\n\n        //TODO force side = 0 or 1\n        if (takerOrder.side == makerOrder.side) {\n          emit LogError(uint8(Errors.SIDES_INVALID), makerOrderHash, takerOrderHash);\n          return (makerOrderHash, takerOrderHash, false);\n        }\n\n        if (makerOrder.side == 0) { //makerOrder is a buy\n          if (makerOrder.pricepoint < takerOrder.pricepoint) { //buy price < sell price\n            emit LogError(uint8(Errors.PRICE_INVALID), makerOrderHash, takerOrderHash);\n            return (makerOrderHash, takerOrderHash, false);\n          }\n        }\n\n        if (makerOrder.side == 1) { //takerOrder is a buy\n          if (takerOrder.pricepoint < makerOrder.pricepoint) {\n            emit LogError(uint8(Errors.PRICE_INVALID), makerOrderHash, takerOrderHash);\n            return (makerOrderHash, takerOrderHash, false);\n          }\n        }\n\n        filled[takerOrderHash] = (filled[takerOrderHash].add(amount));\n        filled[makerOrderHash] = (filled[makerOrderHash].add(amount));\n\n        uint256 baseTokenAmount = amount;\n        uint256 quoteTokenAmount = (amount.mul(makerOrder.pricepoint)).div(pricepointMultiplier);\n        uint256 fee = getPartialAmount(amount, makerOrder.amount, makerOrder.feeMake);\n\n        if (makerOrder.side == 0) {\n          require(ERC20(makerOrder.quoteToken).transferFrom(makerOrder.userAddress, takerOrder.userAddress, quoteTokenAmount));\n          require(ERC20(makerOrder.quoteToken).transferFrom(makerOrder.userAddress, feeAccount, fee));\n          require(ERC20(takerOrder.baseToken).transferFrom(takerOrder.userAddress, makerOrder.userAddress, baseTokenAmount));\n        } else {\n          require(ERC20(makerOrder.baseToken).transferFrom(makerOrder.userAddress, takerOrder.userAddress, baseTokenAmount));\n          require(ERC20(takerOrder.quoteToken).transferFrom(takerOrder.userAddress, feeAccount, fee));\n          require(ERC20(takerOrder.quoteToken).transferFrom(takerOrder.userAddress, makerOrder.userAddress, quoteTokenAmount - fee));\n        }\n\n      return (makerOrderHash, takerOrderHash, true);\n    }\n\n\n    function paySingleTradeTakerFees(\n      uint256[10] orderValues,\n      address[4] orderAddresses,\n      uint256 amount\n    ) internal returns (bool)\n    {\n      uint256 takerOrderAmount = orderValues[4];\n      uint256 feeTake = orderValues[8];\n      address userAddress = orderAddresses[1];\n      address quoteToken = orderAddresses[3];\n\n\n      uint256 fee = getPartialAmount(amount, takerOrderAmount, feeTake);\n      require(ERC20(quoteToken).transferFrom(userAddress, feeAccount, fee));\n    }\n\n\n    function payTakerFees(\n      uint256[10] orderValues,\n      address[4] orderAddresses,\n      uint256[] amounts\n    ) internal returns (bool)\n    {\n      uint256 takerOrderAmount = orderValues[4];\n      uint256 feeTake = orderValues[8];\n      address userAddress = orderAddresses[1];\n      address quoteToken = orderAddresses[3];\n\n      uint256 totalAmount;\n      for (uint i = 0; i < amounts.length; i++) {\n        totalAmount = totalAmount + amounts[i];\n      }\n\n      uint256 fee = getPartialAmount(totalAmount, takerOrderAmount, feeTake);\n      require(ERC20(quoteToken).transferFrom(userAddress, feeAccount, fee));\n    }\n\n\n    function batchCancelOrders(\n      uint256[6][] orderValues,\n      address[3][] orderAddresses,\n      uint8[] v,\n      bytes32[] r,\n      bytes32[] s\n    ) public\n    {\n      for (uint i = 0; i < orderAddresses.length; i++) {\n        cancelOrder(\n          orderValues[i],\n          orderAddresses[i],\n          v[i],\n          r[i],\n          s[i]\n        );\n      }\n    }\n\n    /// @dev Cancels the input order.\n    /// @param orderValues Array of order's amountBuy, amountSell, expires, nonce, feeMake & feeTake values.\n    /// @param orderAddresses Array of order's tokenBuy, tokenSell & maker addresses.\n    /// @param v ECDSA signature parameter v.\n    /// @param r ECDSA signature parameters r.\n    /// @param s ECDSA signature parameters s.\n    /// @return Success or failure of order cancellation.\n    function cancelOrder(\n        uint256[6] orderValues,\n        address[3] orderAddresses,\n        uint8 v,\n        bytes32 r,\n        bytes32 s\n    ) public returns (bool)\n    {\n\n      Order memory order = Order({\n        userAddress: orderAddresses[0],\n        baseToken: orderAddresses[1],\n        quoteToken: orderAddresses[2],\n        amount: orderValues[0],\n        pricepoint: orderValues[1],\n        side: orderValues[2],\n        salt: orderValues[3],\n        feeTake: orderValues[4],\n        feeMake: orderValues[5]\n      });\n\n        bytes32 orderHash = getOrderHash(order);\n\n        if (!isValidSignature(msg.sender, orderHash, v, r, s)) {\n            emit LogError(uint8(Errors.SIGNATURE_INVALID), orderHash, \"\");\n            return false;\n        }\n\n        filled[orderHash] = order.amount;\n        emit LogCancelOrder(\n            orderHash,\n            order.userAddress,\n            order.baseToken,\n            order.quoteToken,\n            order.amount,\n            order.pricepoint,\n            order.side\n        );\n\n        return true;\n    }\n\n    /*\n    * Pure public functions\n    */\n\n    /// @dev Verifies that a signature is valid.\n    /// @param signer address of signer.\n    /// @param hash Signed Keccak-256 hash.\n    /// @param v ECDSA signature parameter v.\n    /// @param r ECDSA signature parameters r.\n    /// @param s ECDSA signature parameters s.\n    /// @return Validity of order signature.\n    function isValidSignature(\n        address signer,\n        bytes32 hash,\n        uint8 v,\n        bytes32 r,\n        bytes32 s)\n    public\n    pure\n    returns (bool)\n    {\n        return signer == ecrecover(\n            keccak256(abi.encodePacked(\"\\x19Ethereum Signed Message:\\n32\", hash)),\n            v,\n            r,\n            s\n        );\n    }\n\n    /// @dev Checks if rounding error > 0.1%.\n    /// @param numerator Numerator.\n    /// @param denominator Denominator.\n    /// @param target Value to multiply with numerator/denominator.\n    /// @return Rounding error is present.\n    function isRoundingError(uint numerator, uint denominator, uint target)\n    public\n    pure\n    returns (bool)\n    {\n        uint remainder = mulmod(target, numerator, denominator);\n        if (remainder == 0) return false;\n        // No rounding error.\n\n        uint errPercentageTimes1000000 = (remainder.mul(1000000)).div(numerator.mul(target));\n        return errPercentageTimes1000000 > 1000;\n    }\n\n    /// @dev Calculates partial value given a numerator and denominator.\n    /// @param numerator Numerator.\n    /// @param denominator Denominator.\n    /// @param target Value to calculate partial of.\n    /// @return Partial value of target.\n    function getPartialAmount(uint numerator, uint denominator, uint target)\n    public\n    pure\n    returns (uint)\n    {\n        return (numerator.mul(target)).div(denominator);\n    }\n\n\n    /*\n    *   Internal functions\n    */\n\n    function getPairHash(address _baseToken, address _quoteToken)\n    internal\n    view\n    returns (bytes32)\n    {\n        return keccak256(abi.encodePacked(\n          _baseToken,\n          _quoteToken\n        ));\n    }\n\n\n    /// @dev Calculates Keccak-256 hash of order.\n    /// @param order Order that will be hased.\n    /// @return Keccak-256 hash of order.\n    function getOrderHash(Order order)\n    internal\n    view\n    returns (bytes32)\n    {\n        return keccak256(abi.encodePacked(\n                address(this),\n                order.userAddress,\n                order.baseToken,\n                order.quoteToken,\n                order.amount,\n                order.pricepoint,\n                order.side,\n                order.salt,\n                order.feeMake,\n                order.feeTake\n            ));\n    }\n\n    function emitLog(\n      address[4] orderAddresses,\n      bytes32[] makerOrderHashes,\n      bytes32[] takerOrderHashes\n    ) {\n\n      emit LogBatchTrades(\n        makerOrderHashes,\n        takerOrderHashes,\n        keccak256(abi.encodePacked(orderAddresses[1], orderAddresses[2]))\n      );\n    }\n\n}\n\n// if (isRoundingError(trade.amount, order.amountBuy, order.amountSell)) {\n//             emit LogError(uint8(Errors.ROUNDING_ERROR_TOO_LARGE), orderHash, tradeHash);\n//             return (orderHash, tradeHash, 0);\n//         }",
  "sourcePath": "/Users/davidvanisacker/Programming/Ethereum/Proofsuite/amp-dex/contracts/Exchange.sol",
  "compiler": {
    "name": "solc",
    "version": "0.4.24+commit.e67f0147.Emscripten.clang"
  },
  "schemaVersion": "2.0.1",
  "updatedAt": "2018-11-12T15:08:22.041Z"
}