{
  "contractName": "Experiment",
  "abi": [
    {
      "constant": false,
      "inputs": [
        {
          "components": [
            {
              "name": "a",
              "type": "int256"
            },
            {
              "name": "b",
              "type": "int256"
            }
          ],
          "name": "_data",
          "type": "tuple"
        }
      ],
      "name": "setData",
      "outputs": [],
      "payable": false,
      "stateMutability": "nonpayable",
      "type": "function"
    }
  ],
  "bytecode": "0x6060604052341561000f57600080fd5b6101998061001e6000396000f300606060405260043610610041576000357c0100000000000000000000000000000000000000000000000000000000900463ffffffff168063b6083a7514610046575b600080fd5b341561005157600080fd5b61006660046100619036906100ed565b610068565b005b8060008082015181600001556020820151816001015590505050565b60006100908235610155565b905092915050565b6000604082840312600181146100ad576100b2565b600080fd5b506100bd604061011f565b905060006100cd84828501610084565b60008301525060206100e184828501610084565b60208301525092915050565b60006040828403126001811461010257610107565b600080fd5b50600061011684828501610098565b91505092915050565b6000604051905081810181811067ffffffffffffffff821117600181146101455761014a565b600080fd5b508060405250919050565b60008190509190505600a265627a7a72305820c1f7f92e0060092c3487f2a714c1843cf8054a1a9f243c63a2ca124b366f41396c6578706572696d656e74616cf50037",
  "source": "pragma experimental ABIEncoderV2;\n\ncontract Experiment {\n\n  struct MyStruct {\n    int a;\n    int b;\n  }\n\n  MyStruct data;\n\n  function setData(MyStruct _data) public {\n    data = _data;\n  }\n}",
  "sourcePath": "/Users/davidvanisacker/Programming/Ethereum/Proofsuite/ProofDEX/contracts/utils/Experiment.sol",
  "compiler": {
    "name": "solc",
    "version": "0.4.19+commit.c4cbbb05.Emscripten.clang"
  },
  "schemaVersion": "2.0.0",
  "updatedAt": "2018-04-26T08:07:30.948Z"
}