{
  "contractName": "RewardPools",
  "abi": [
    {
      "constant": true,
      "inputs": [],
      "name": "currentPoolIndex",
      "outputs": [
        {
          "name": "",
          "type": "uint256"
        }
      ],
      "payable": false,
      "stateMutability": "view",
      "type": "function"
    },
    {
      "constant": true,
      "inputs": [],
      "name": "proofToken",
      "outputs": [
        {
          "name": "",
          "type": "address"
        }
      ],
      "payable": false,
      "stateMutability": "view",
      "type": "function"
    },
    {
      "constant": false,
      "inputs": [
        {
          "name": "newOwner",
          "type": "address"
        }
      ],
      "name": "setOwner",
      "outputs": [],
      "payable": false,
      "stateMutability": "nonpayable",
      "type": "function"
    },
    {
      "constant": true,
      "inputs": [],
      "name": "creationBlockNumber",
      "outputs": [
        {
          "name": "",
          "type": "uint256"
        }
      ],
      "payable": false,
      "stateMutability": "view",
      "type": "function"
    },
    {
      "constant": true,
      "inputs": [
        {
          "name": "",
          "type": "uint256"
        }
      ],
      "name": "quoteTokenList",
      "outputs": [
        {
          "name": "",
          "type": "address"
        }
      ],
      "payable": false,
      "stateMutability": "view",
      "type": "function"
    },
    {
      "constant": true,
      "inputs": [
        {
          "name": "",
          "type": "address"
        }
      ],
      "name": "quotes",
      "outputs": [
        {
          "name": "",
          "type": "bool"
        }
      ],
      "payable": false,
      "stateMutability": "view",
      "type": "function"
    },
    {
      "constant": true,
      "inputs": [],
      "name": "currentEpoch",
      "outputs": [
        {
          "name": "",
          "type": "uint256"
        }
      ],
      "payable": false,
      "stateMutability": "view",
      "type": "function"
    },
    {
      "constant": true,
      "inputs": [
        {
          "name": "",
          "type": "address"
        }
      ],
      "name": "withdrawals",
      "outputs": [
        {
          "name": "",
          "type": "uint256"
        }
      ],
      "payable": false,
      "stateMutability": "view",
      "type": "function"
    },
    {
      "constant": true,
      "inputs": [],
      "name": "owner",
      "outputs": [
        {
          "name": "",
          "type": "address"
        }
      ],
      "payable": false,
      "stateMutability": "view",
      "type": "function"
    },
    {
      "constant": true,
      "inputs": [],
      "name": "rewardCollector",
      "outputs": [
        {
          "name": "",
          "type": "address"
        }
      ],
      "payable": false,
      "stateMutability": "view",
      "type": "function"
    },
    {
      "constant": true,
      "inputs": [
        {
          "name": "",
          "type": "uint256"
        },
        {
          "name": "",
          "type": "address"
        }
      ],
      "name": "poolBalances",
      "outputs": [
        {
          "name": "",
          "type": "uint256"
        }
      ],
      "payable": false,
      "stateMutability": "view",
      "type": "function"
    },
    {
      "constant": true,
      "inputs": [],
      "name": "currentPoolBalance",
      "outputs": [
        {
          "name": "",
          "type": "uint256"
        }
      ],
      "payable": false,
      "stateMutability": "view",
      "type": "function"
    },
    {
      "constant": true,
      "inputs": [],
      "name": "blocksPerEpoch",
      "outputs": [
        {
          "name": "",
          "type": "uint256"
        }
      ],
      "payable": false,
      "stateMutability": "view",
      "type": "function"
    },
    {
      "inputs": [
        {
          "name": "_PRFTAddress",
          "type": "address"
        },
        {
          "name": "_rewardCollector",
          "type": "address"
        }
      ],
      "payable": false,
      "stateMutability": "nonpayable",
      "type": "constructor"
    },
    {
      "payable": true,
      "stateMutability": "payable",
      "type": "fallback"
    },
    {
      "anonymous": false,
      "inputs": [
        {
          "indexed": true,
          "name": "previousOwner",
          "type": "address"
        },
        {
          "indexed": true,
          "name": "newOwner",
          "type": "address"
        }
      ],
      "name": "SetOwner",
      "type": "event"
    },
    {
      "constant": true,
      "inputs": [
        {
          "name": "_accountAddress",
          "type": "address"
        },
        {
          "name": "_tokenAddress",
          "type": "address"
        }
      ],
      "name": "totalUserReward",
      "outputs": [
        {
          "name": "",
          "type": "uint256"
        }
      ],
      "payable": false,
      "stateMutability": "view",
      "type": "function"
    },
    {
      "constant": false,
      "inputs": [
        {
          "name": "_poolEpoch",
          "type": "uint256"
        },
        {
          "name": "_tokenAddress",
          "type": "address"
        }
      ],
      "name": "balanceOfPool",
      "outputs": [
        {
          "name": "",
          "type": "uint256"
        }
      ],
      "payable": false,
      "stateMutability": "nonpayable",
      "type": "function"
    },
    {
      "constant": false,
      "inputs": [
        {
          "name": "_tokenAddress",
          "type": "address"
        }
      ],
      "name": "removeQuoteToken",
      "outputs": [],
      "payable": false,
      "stateMutability": "nonpayable",
      "type": "function"
    },
    {
      "constant": false,
      "inputs": [
        {
          "name": "_tokenAddress",
          "type": "address"
        }
      ],
      "name": "registerQuoteToken",
      "outputs": [],
      "payable": false,
      "stateMutability": "nonpayable",
      "type": "function"
    },
    {
      "constant": false,
      "inputs": [],
      "name": "withdrawRewards",
      "outputs": [],
      "payable": false,
      "stateMutability": "nonpayable",
      "type": "function"
    },
    {
      "constant": true,
      "inputs": [],
      "name": "computeCurrentEpoch",
      "outputs": [
        {
          "name": "computedCurrentEpoch",
          "type": "uint256"
        }
      ],
      "payable": false,
      "stateMutability": "view",
      "type": "function"
    },
    {
      "constant": true,
      "inputs": [
        {
          "name": "_epoch",
          "type": "uint256"
        }
      ],
      "name": "getBlockNumberAtEpochStart",
      "outputs": [
        {
          "name": "blockNumber",
          "type": "uint256"
        }
      ],
      "payable": false,
      "stateMutability": "view",
      "type": "function"
    }
  ],
  "bytecode": "0x608060405234801561001057600080fd5b50604051604080611c048339810180604052810190808051906020019092919080519060200190929190505050336000806101000a81548173ffffffffffffffffffffffffffffffffffffffff021916908373ffffffffffffffffffffffffffffffffffffffff16021790555043600481905550601460038190555081600160006101000a81548173ffffffffffffffffffffffffffffffffffffffff021916908373ffffffffffffffffffffffffffffffffffffffff16021790555080600260006101000a81548173ffffffffffffffffffffffffffffffffffffffff021916908373ffffffffffffffffffffffffffffffffffffffff1602179055505050611ae58061011f6000396000f300608060405260043610610112576000357c0100000000000000000000000000000000000000000000000000000000900463ffffffff16806304abc0d6146101175780630b027fb61461018e5780630e94a0ee146101b957806313af4035146102105780631bf309291461025357806327a710dd1461027e5780635311312f146102eb57806376671808146103465780637a9262a2146103715780638da5cb5b146103c85780639f59ec391461041f578063a3e7226414610460578063afffd5b7146104c1578063bdcf2b0614610518578063c00fdd5b14610579578063c7b8981c146105bc578063c9f6b527146105d3578063d0df380314610616578063e25b17e614610641578063f06820541461066c575b600080fd5b34801561012357600080fd5b50610178600480360381019080803573ffffffffffffffffffffffffffffffffffffffff169060200190929190803573ffffffffffffffffffffffffffffffffffffffff169060200190929190505050610697565b6040518082815260200191505060405180910390f35b34801561019a57600080fd5b506101a3610d54565b6040518082815260200191505060405180910390f35b3480156101c557600080fd5b506101ce610d5a565b604051808273ffffffffffffffffffffffffffffffffffffffff1673ffffffffffffffffffffffffffffffffffffffff16815260200191505060405180910390f35b34801561021c57600080fd5b50610251600480360381019080803573ffffffffffffffffffffffffffffffffffffffff169060200190929190505050610d80565b005b34801561025f57600080fd5b50610268610e99565b6040518082815260200191505060405180910390f35b34801561028a57600080fd5b506102a960048036038101908080359060200190929190505050610e9f565b604051808273ffffffffffffffffffffffffffffffffffffffff1673ffffffffffffffffffffffffffffffffffffffff16815260200191505060405180910390f35b3480156102f757600080fd5b5061032c600480360381019080803573ffffffffffffffffffffffffffffffffffffffff169060200190929190505050610edd565b604051808215151515815260200191505060405180910390f35b34801561035257600080fd5b5061035b610efd565b6040518082815260200191505060405180910390f35b34801561037d57600080fd5b506103b2600480360381019080803573ffffffffffffffffffffffffffffffffffffffff169060200190929190505050610f03565b6040518082815260200191505060405180910390f35b3480156103d457600080fd5b506103dd610f1b565b604051808273ffffffffffffffffffffffffffffffffffffffff1673ffffffffffffffffffffffffffffffffffffffff16815260200191505060405180910390f35b34801561042b57600080fd5b5061044a60048036038101908080359060200190929190505050610f40565b6040518082815260200191505060405180910390f35b34801561046c57600080fd5b506104ab60048036038101908080359060200190929190803573ffffffffffffffffffffffffffffffffffffffff169060200190929190505050610f55565b6040518082815260200191505060405180910390f35b3480156104cd57600080fd5b506104d6610fb0565b604051808273ffffffffffffffffffffffffffffffffffffffff1673ffffffffffffffffffffffffffffffffffffffff16815260200191505060405180910390f35b34801561052457600080fd5b5061056360048036038101908080359060200190929190803573ffffffffffffffffffffffffffffffffffffffff169060200190929190505050610fd6565b6040518082815260200191505060405180910390f35b34801561058557600080fd5b506105ba600480360381019080803573ffffffffffffffffffffffffffffffffffffffff169060200190929190505050610ffb565b005b3480156105c857600080fd5b506105d1611117565b005b3480156105df57600080fd5b50610614600480360381019080803573ffffffffffffffffffffffffffffffffffffffff1690602001909291905050506115e2565b005b34801561062257600080fd5b5061062b611787565b6040518082815260200191505060405180910390f35b34801561064d57600080fd5b5061065661178d565b6040518082815260200191505060405180910390f35b34801561067857600080fd5b506106816117a9565b6040518082815260200191505060405180910390f35b600080600080600080600080600080600060055499506106b561178d565b9850600960008e73ffffffffffffffffffffffffffffffffffffffff1673ffffffffffffffffffffffffffffffffffffffff1681526020019081526020016000205497508989141515610801578b73ffffffffffffffffffffffffffffffffffffffff166370a08231600260009054906101000a900473ffffffffffffffffffffffffffffffffffffffff166040518263ffffffff167c0100000000000000000000000000000000000000000000000000000000028152600401808273ffffffffffffffffffffffffffffffffffffffff1673ffffffffffffffffffffffffffffffffffffffff168152602001915050602060405180830381600087803b1580156107bf57600080fd5b505af11580156107d3573d6000803e3d6000fd5b505050506040513d60208110156107e957600080fd5b81019080805190602001909291905050509550610806565b600095505b8790505b6001890381111515610a585761081f81610f40565b9450600160009054906101000a900473ffffffffffffffffffffffffffffffffffffffff1673ffffffffffffffffffffffffffffffffffffffff16634ee2cd7e8e876040518363ffffffff167c0100000000000000000000000000000000000000000000000000000000028152600401808373ffffffffffffffffffffffffffffffffffffffff1673ffffffffffffffffffffffffffffffffffffffff16815260200182815260200192505050602060405180830381600087803b1580156108e657600080fd5b505af11580156108fa573d6000803e3d6000fd5b505050506040513d602081101561091057600080fd5b81019080805190602001909291905050509350600160009054906101000a900473ffffffffffffffffffffffffffffffffffffffff1673ffffffffffffffffffffffffffffffffffffffff166318160ddd6040518163ffffffff167c0100000000000000000000000000000000000000000000000000000000028152600401602060405180830381600087803b1580156109a957600080fd5b505af11580156109bd573d6000803e3d6000fd5b505050506040513d60208110156109d357600080fd5b8101908080519060200190929190505050925082846008600084815260200190815260200160002060008f73ffffffffffffffffffffffffffffffffffffffff1673ffffffffffffffffffffffffffffffffffffffff1681526020019081526020016000205402811515610a4357fe5b0491508187019650808060010191505061080a565b8989141515610d41578b73ffffffffffffffffffffffffffffffffffffffff166370a08231600260009054906101000a900473ffffffffffffffffffffffffffffffffffffffff166040518263ffffffff167c0100000000000000000000000000000000000000000000000000000000028152600401808273ffffffffffffffffffffffffffffffffffffffff1673ffffffffffffffffffffffffffffffffffffffff168152602001915050602060405180830381600087803b158015610b1e57600080fd5b505af1158015610b32573d6000803e3d6000fd5b505050506040513d6020811015610b4857600080fd5b81019080805190602001909291905050509550610b6489610f40565b9450600160009054906101000a900473ffffffffffffffffffffffffffffffffffffffff1673ffffffffffffffffffffffffffffffffffffffff166318160ddd6040518163ffffffff167c0100000000000000000000000000000000000000000000000000000000028152600401602060405180830381600087803b158015610bec57600080fd5b505af1158015610c00573d6000803e3d6000fd5b505050506040513d6020811015610c1657600080fd5b81019080805190602001909291905050509250600160009054906101000a900473ffffffffffffffffffffffffffffffffffffffff1673ffffffffffffffffffffffffffffffffffffffff16634ee2cd7e8e876040518363ffffffff167c0100000000000000000000000000000000000000000000000000000000028152600401808373ffffffffffffffffffffffffffffffffffffffff1673ffffffffffffffffffffffffffffffffffffffff16815260200182815260200192505050602060405180830381600087803b158015610cee57600080fd5b505af1158015610d02573d6000803e3d6000fd5b505050506040513d6020811015610d1857600080fd5b8101908080519060200190929190505050935082848702811515610d3857fe5b04915081870196505b869a505050505050505050505092915050565b60065481565b600160009054906101000a900473ffffffffffffffffffffffffffffffffffffffff1681565b6000809054906101000a900473ffffffffffffffffffffffffffffffffffffffff1673ffffffffffffffffffffffffffffffffffffffff163373ffffffffffffffffffffffffffffffffffffffff16141515610ddb57600080fd5b8073ffffffffffffffffffffffffffffffffffffffff166000809054906101000a900473ffffffffffffffffffffffffffffffffffffffff1673ffffffffffffffffffffffffffffffffffffffff167fcbf985117192c8f614a58aaf97226bb80a754772f5f6edf06f87c675f2e6c66360405160405180910390a3806000806101000a81548173ffffffffffffffffffffffffffffffffffffffff021916908373ffffffffffffffffffffffffffffffffffffffff16021790555050565b60045481565b600b81815481101515610eae57fe5b906000526020600020016000915054906101000a900473ffffffffffffffffffffffffffffffffffffffff1681565b600a6020528060005260406000206000915054906101000a900460ff1681565b60055481565b60096020528060005260406000206000915090505481565b6000809054906101000a900473ffffffffffffffffffffffffffffffffffffffff1681565b60008160035402600454019050809050919050565b60006008600084815260200190815260200160002060008373ffffffffffffffffffffffffffffffffffffffff1673ffffffffffffffffffffffffffffffffffffffff16815260200190815260200160002054905092915050565b600260009054906101000a900473ffffffffffffffffffffffffffffffffffffffff1681565b6008602052816000526040600020602052806000526040600020600091509150505481565b6000809054906101000a900473ffffffffffffffffffffffffffffffffffffffff1673ffffffffffffffffffffffffffffffffffffffff163373ffffffffffffffffffffffffffffffffffffffff1614151561105657600080fd5b6001600a60008373ffffffffffffffffffffffffffffffffffffffff1673ffffffffffffffffffffffffffffffffffffffff16815260200190815260200160002060006101000a81548160ff021916908315150217905550600b8190806001815401808255809150509060018203906000526020600020016000909192909190916101000a81548173ffffffffffffffffffffffffffffffffffffffff021916908373ffffffffffffffffffffffffffffffffffffffff1602179055505050565b6000806000806000806000806000803373ffffffffffffffffffffffffffffffffffffffff161415151561114a57600080fd5b6111526117af565b600960003373ffffffffffffffffffffffffffffffffffffffff1673ffffffffffffffffffffffffffffffffffffffff16815260200190815260200160002054985060055489141515156111a557600080fd5b600097505b600b8054905088101561159157600b888154811015156111c657fe5b9060005260206000200160009054906101000a900473ffffffffffffffffffffffffffffffffffffffff169650600095508894505b6005548510156114a55761120e85610f40565b9350600160009054906101000a900473ffffffffffffffffffffffffffffffffffffffff1673ffffffffffffffffffffffffffffffffffffffff16634ee2cd7e33866040518363ffffffff167c0100000000000000000000000000000000000000000000000000000000028152600401808373ffffffffffffffffffffffffffffffffffffffff1673ffffffffffffffffffffffffffffffffffffffff16815260200182815260200192505050602060405180830381600087803b1580156112d557600080fd5b505af11580156112e9573d6000803e3d6000fd5b505050506040513d60208110156112ff57600080fd5b81019080805190602001909291905050509250600160009054906101000a900473ffffffffffffffffffffffffffffffffffffffff1673ffffffffffffffffffffffffffffffffffffffff166318160ddd6040518163ffffffff167c0100000000000000000000000000000000000000000000000000000000028152600401602060405180830381600087803b15801561139857600080fd5b505af11580156113ac573d6000803e3d6000fd5b505050506040513d60208110156113c257600080fd5b8101908080519060200190929190505050915081836008600088815260200190815260200160002060008a73ffffffffffffffffffffffffffffffffffffffff1673ffffffffffffffffffffffffffffffffffffffff168152602001908152602001600020540281151561143257fe5b0490508086019550806008600087815260200190815260200160002060008973ffffffffffffffffffffffffffffffffffffffff1673ffffffffffffffffffffffffffffffffffffffff1681526020019081526020016000206000828254039250508190555084806001019550506111fb565b8673ffffffffffffffffffffffffffffffffffffffff1663a9059cbb33886040518363ffffffff167c0100000000000000000000000000000000000000000000000000000000028152600401808373ffffffffffffffffffffffffffffffffffffffff1673ffffffffffffffffffffffffffffffffffffffff16815260200182815260200192505050602060405180830381600087803b15801561154857600080fd5b505af115801561155c573d6000803e3d6000fd5b505050506040513d602081101561157257600080fd5b81019080805190602001909291905050505087806001019850506111aa565b600554600960003373ffffffffffffffffffffffffffffffffffffffff1673ffffffffffffffffffffffffffffffffffffffff16815260200190815260200160002081905550505050505050505050565b60008090505b8173ffffffffffffffffffffffffffffffffffffffff16600b8281548110151561160e57fe5b9060005260206000200160009054906101000a900473ffffffffffffffffffffffffffffffffffffffff1673ffffffffffffffffffffffffffffffffffffffff161415156116635780806001019150506115e8565b5b6001600b805490500381101561171557600b6001820181548110151561168657fe5b9060005260206000200160009054906101000a900473ffffffffffffffffffffffffffffffffffffffff16600b828154811015156116c057fe5b9060005260206000200160006101000a81548173ffffffffffffffffffffffffffffffffffffffff021916908373ffffffffffffffffffffffffffffffffffffffff1602179055508080600101915050611664565b600b80548091906001900361172a9190611a68565b506000600a60008473ffffffffffffffffffffffffffffffffffffffff1673ffffffffffffffffffffffffffffffffffffffff16815260200190815260200160002060006101000a81548160ff0219169083151502179055505050565b60075481565b600060035460045443038115156117a057fe5b04905080905090565b60035481565b600080600080600060055494506117c461178d565b93508484141515611a6157600092505b600b80549050831015611a5957600b838154811015156117f057fe5b9060005260206000200160009054906101000a900473ffffffffffffffffffffffffffffffffffffffff1691508173ffffffffffffffffffffffffffffffffffffffff166370a08231600260009054906101000a900473ffffffffffffffffffffffffffffffffffffffff166040518263ffffffff167c0100000000000000000000000000000000000000000000000000000000028152600401808273ffffffffffffffffffffffffffffffffffffffff1673ffffffffffffffffffffffffffffffffffffffff168152602001915050602060405180830381600087803b1580156118da57600080fd5b505af11580156118ee573d6000803e3d6000fd5b505050506040513d602081101561190457600080fd5b81019080805190602001909291905050509050600260009054906101000a900473ffffffffffffffffffffffffffffffffffffffff1673ffffffffffffffffffffffffffffffffffffffff1663bdc0ee5683836040518363ffffffff167c0100000000000000000000000000000000000000000000000000000000028152600401808373ffffffffffffffffffffffffffffffffffffffff1673ffffffffffffffffffffffffffffffffffffffff16815260200182815260200192505050600060405180830381600087803b1580156119dc57600080fd5b505af11580156119f0573d6000803e3d6000fd5b50505050806008600060018703815260200190815260200160002060008473ffffffffffffffffffffffffffffffffffffffff1673ffffffffffffffffffffffffffffffffffffffff1681526020019081526020016000208190555082806001019350506117d4565b836005819055505b5050505050565b815481835581811115611a8f57818360005260206000209182019101611a8e9190611a94565b5b505050565b611ab691905b80821115611ab2576000816000905550600101611a9a565b5090565b905600a165627a7a72305820f4d8a4b058095533c1298c5e32b52e7c7d47904b61baff425616606fdf207bf00029",
  "source": "pragma solidity 0.4.24;\n\nimport './utils/SafeMath.sol';\nimport './utils/Owned.sol';\nimport './interfaces/ProofToken.sol';\nimport './interfaces/ERC20.sol';\nimport './RewardCollector.sol';\n\n\ncontract RewardPools is Owned {\n\n  using SafeMath for uint256;\n  ProofTokenInterface public proofToken;\n\n  address public rewardCollector;\n\n  uint256 public blocksPerEpoch;\n  uint256 public creationBlockNumber;\n  uint256 public currentEpoch;\n  uint256 public currentPoolIndex;\n  uint256 public currentPoolBalance;\n\n  mapping(uint256 => mapping(address => uint256)) public poolBalances;\n  mapping(address => uint256) public withdrawals;\n\n  mapping(address => bool) public quotes;\n  address[] public quoteTokenList;\n\n\n  function RewardPools(address _PRFTAddress, address _rewardCollector) public\n  {\n    creationBlockNumber = block.number;\n    blocksPerEpoch = 20;\n    proofToken = ProofTokenInterface(_PRFTAddress);\n    rewardCollector = _rewardCollector;\n  }\n\n  function () public payable\n  {\n    revert();\n  }\n\n  function totalUserReward(address _accountAddress, address _tokenAddress) public constant returns (uint256) {\n    uint256 lastEpoch = currentEpoch;\n    uint256 computedEpoch = computeCurrentEpoch();\n    uint256 lastWithdrawal = withdrawals[_accountAddress];\n    uint256 totalReward;\n    uint256 newPoolBalance;\n    uint256 blockNumberAtEpochStart;\n    uint256 balanceAtEpochStart;\n    uint256 totalSupply;\n    uint256 currentPoolReward;\n\n    if (computedEpoch != lastEpoch) {\n      newPoolBalance = ERC20(_tokenAddress).balanceOf(rewardCollector);\n    } else {\n      newPoolBalance = 0;\n    }\n\n    for (uint256 j = lastWithdrawal; j <= computedEpoch - 1; j++)\n    {\n      blockNumberAtEpochStart = getBlockNumberAtEpochStart(j);\n      balanceAtEpochStart = proofToken.balanceOfAt(_accountAddress, blockNumberAtEpochStart);\n      totalSupply = proofToken.totalSupply();\n      currentPoolReward = (poolBalances[j][_tokenAddress] * balanceAtEpochStart) / totalSupply;\n      totalReward = totalReward + currentPoolReward;\n    }\n\n    if (computedEpoch != lastEpoch) {\n      newPoolBalance = ERC20(_tokenAddress).balanceOf(rewardCollector);\n      blockNumberAtEpochStart = getBlockNumberAtEpochStart(computedEpoch);\n      totalSupply = proofToken.totalSupply();\n      balanceAtEpochStart = proofToken.balanceOfAt(_accountAddress, blockNumberAtEpochStart);\n      currentPoolReward = (newPoolBalance * balanceAtEpochStart) / totalSupply;\n      totalReward = totalReward + currentPoolReward;\n    }\n\n    return totalReward;\n  }\n\n  function balanceOfPool(uint256 _poolEpoch, address _tokenAddress) public returns (uint256) {\n    return poolBalances[_poolEpoch][_tokenAddress];\n  }\n\n  function removeQuoteToken(address _tokenAddress) {\n    uint i = 0;\n    while (quoteTokenList[i] != _tokenAddress) {\n        i++;\n    }\n\n    while (i<quoteTokenList.length-1) {\n      quoteTokenList[i] = quoteTokenList[i+1];\n      i++;\n    }\n\n    quoteTokenList.length--;\n    quotes[_tokenAddress] = false;\n  }\n\n  function registerQuoteToken(address _tokenAddress) onlyOwner public {\n    quotes[_tokenAddress] = true;\n    quoteTokenList.push(_tokenAddress);\n  }\n\n  function withdrawRewards() public\n  {\n    require(msg.sender != 0x0);\n    checkCurrentEpoch();\n\n    uint256 lastWithdrawal = withdrawals[msg.sender];\n    require(lastWithdrawal != currentEpoch);\n\n\n    for (uint256 i = 0; i < quoteTokenList.length; i++) {\n      address tokenAddress = quoteTokenList[i];\n      uint256 totalTokenRewards = 0;\n\n      for (uint256 j = lastWithdrawal; j < currentEpoch; j++)\n      {\n        uint256 blockNumberAtEpochStart = getBlockNumberAtEpochStart(j);\n        uint256 balanceAtEpochStart = proofToken.balanceOfAt(msg.sender, blockNumberAtEpochStart);\n        uint256 totalSupply = proofToken.totalSupply();\n\n        uint256 currentPoolTokenRewards = (poolBalances[j][tokenAddress] * balanceAtEpochStart) / totalSupply;\n        totalTokenRewards = totalTokenRewards + currentPoolTokenRewards;\n        poolBalances[j][tokenAddress] -= currentPoolTokenRewards;\n      }\n\n      ERC20(tokenAddress).transfer(msg.sender, totalTokenRewards);\n    }\n\n    withdrawals[msg.sender] = currentEpoch;\n  }\n\n  function checkCurrentEpoch() internal\n  {\n    uint256 lastEpoch = currentEpoch;\n    uint256 computedEpoch = computeCurrentEpoch();\n\n    if (computedEpoch != lastEpoch) {\n      for(uint256 i = 0; i < quoteTokenList.length; i++) {\n        address tokenAddress = quoteTokenList[i];\n        uint256 tokenBalance = ERC20(tokenAddress).balanceOf(rewardCollector);\n\n        RewardCollector(rewardCollector).transferTokensToPool(tokenAddress, tokenBalance);\n        poolBalances[computedEpoch - 1][tokenAddress] = tokenBalance;\n      }\n\n      currentEpoch = computedEpoch;\n    }\n  }\n\n  function computeCurrentEpoch() public view returns(uint256 computedCurrentEpoch)\n  {\n    computedCurrentEpoch = (block.number - creationBlockNumber) / blocksPerEpoch;\n    return computedCurrentEpoch;\n  }\n\n  function getBlockNumberAtEpochStart(uint256 _epoch) public view returns(uint256 blockNumber)\n  {\n    blockNumber = creationBlockNumber + blocksPerEpoch * _epoch;\n    return blockNumber;\n  }\n}",
  "sourcePath": "/Users/davidvanisacker/Programming/Ethereum/Proofsuite/amp-dex/contracts/RewardPools.sol",
  "compiler": {
    "name": "solc",
    "version": "0.4.24+commit.e67f0147.Emscripten.clang"
  },
  "schemaVersion": "2.0.1",
  "updatedAt": "2018-11-20T18:59:28.648Z"
}