{
  "contractName": "RewardPools",
  "abi": [
    {
      "constant": true,
      "inputs": [],
      "name": "currentPoolIndex",
      "outputs": [
        {
          "name": "",
          "type": "uint256"
        }
      ],
      "payable": false,
      "stateMutability": "view",
      "type": "function"
    },
    {
      "constant": true,
      "inputs": [],
      "name": "proofToken",
      "outputs": [
        {
          "name": "",
          "type": "address"
        }
      ],
      "payable": false,
      "stateMutability": "view",
      "type": "function"
    },
    {
      "constant": false,
      "inputs": [
        {
          "name": "newOwner",
          "type": "address"
        }
      ],
      "name": "setOwner",
      "outputs": [],
      "payable": false,
      "stateMutability": "nonpayable",
      "type": "function"
    },
    {
      "constant": true,
      "inputs": [],
      "name": "creationBlockNumber",
      "outputs": [
        {
          "name": "",
          "type": "uint256"
        }
      ],
      "payable": false,
      "stateMutability": "view",
      "type": "function"
    },
    {
      "constant": true,
      "inputs": [
        {
          "name": "",
          "type": "address"
        }
      ],
      "name": "quotes",
      "outputs": [
        {
          "name": "",
          "type": "address"
        }
      ],
      "payable": false,
      "stateMutability": "view",
      "type": "function"
    },
    {
      "constant": true,
      "inputs": [],
      "name": "currentEpoch",
      "outputs": [
        {
          "name": "",
          "type": "uint256"
        }
      ],
      "payable": false,
      "stateMutability": "view",
      "type": "function"
    },
    {
      "constant": true,
      "inputs": [
        {
          "name": "",
          "type": "address"
        }
      ],
      "name": "withdrawals",
      "outputs": [
        {
          "name": "",
          "type": "uint256"
        }
      ],
      "payable": false,
      "stateMutability": "view",
      "type": "function"
    },
    {
      "constant": true,
      "inputs": [],
      "name": "owner",
      "outputs": [
        {
          "name": "",
          "type": "address"
        }
      ],
      "payable": false,
      "stateMutability": "view",
      "type": "function"
    },
    {
      "constant": true,
      "inputs": [
        {
          "name": "",
          "type": "uint256"
        }
      ],
      "name": "nthPoolBalance",
      "outputs": [
        {
          "name": "",
          "type": "uint256"
        }
      ],
      "payable": false,
      "stateMutability": "view",
      "type": "function"
    },
    {
      "constant": true,
      "inputs": [],
      "name": "rewardCollector",
      "outputs": [
        {
          "name": "",
          "type": "address"
        }
      ],
      "payable": false,
      "stateMutability": "view",
      "type": "function"
    },
    {
      "constant": true,
      "inputs": [
        {
          "name": "",
          "type": "uint256"
        },
        {
          "name": "",
          "type": "address"
        }
      ],
      "name": "poolBalances",
      "outputs": [
        {
          "name": "",
          "type": "uint256"
        }
      ],
      "payable": false,
      "stateMutability": "view",
      "type": "function"
    },
    {
      "constant": true,
      "inputs": [
        {
          "name": "",
          "type": "uint256"
        }
      ],
      "name": "quoteList",
      "outputs": [
        {
          "name": "",
          "type": "address"
        }
      ],
      "payable": false,
      "stateMutability": "view",
      "type": "function"
    },
    {
      "constant": true,
      "inputs": [],
      "name": "currentPoolBalance",
      "outputs": [
        {
          "name": "",
          "type": "uint256"
        }
      ],
      "payable": false,
      "stateMutability": "view",
      "type": "function"
    },
    {
      "constant": true,
      "inputs": [],
      "name": "blocksPerEpoch",
      "outputs": [
        {
          "name": "",
          "type": "uint256"
        }
      ],
      "payable": false,
      "stateMutability": "view",
      "type": "function"
    },
    {
      "inputs": [
        {
          "name": "_PRFTAddress",
          "type": "address"
        },
        {
          "name": "_rewardCollector",
          "type": "address"
        }
      ],
      "payable": false,
      "stateMutability": "nonpayable",
      "type": "constructor"
    },
    {
      "payable": true,
      "stateMutability": "payable",
      "type": "fallback"
    },
    {
      "anonymous": false,
      "inputs": [
        {
          "indexed": true,
          "name": "previousOwner",
          "type": "address"
        },
        {
          "indexed": true,
          "name": "newOwner",
          "type": "address"
        }
      ],
      "name": "SetOwner",
      "type": "event"
    },
    {
      "constant": false,
      "inputs": [
        {
          "name": "_tokenAddress",
          "type": "address"
        }
      ],
      "name": "registerQuoteToken",
      "outputs": [],
      "payable": false,
      "stateMutability": "nonpayable",
      "type": "function"
    },
    {
      "constant": false,
      "inputs": [],
      "name": "withdrawRewards",
      "outputs": [],
      "payable": false,
      "stateMutability": "nonpayable",
      "type": "function"
    },
    {
      "constant": true,
      "inputs": [],
      "name": "computeCurrentEpoch",
      "outputs": [
        {
          "name": "computedCurrentEpoch",
          "type": "uint256"
        }
      ],
      "payable": false,
      "stateMutability": "view",
      "type": "function"
    },
    {
      "constant": true,
      "inputs": [
        {
          "name": "_epoch",
          "type": "uint256"
        }
      ],
      "name": "getBlockNumberAtEpochStart",
      "outputs": [
        {
          "name": "blockNumber",
          "type": "uint256"
        }
      ],
      "payable": false,
      "stateMutability": "view",
      "type": "function"
    }
  ],
  "bytecode": "0x608060405234801561001057600080fd5b506040516040806111cf8339810180604052810190808051906020019092919080519060200190929190505050336000806101000a81548173ffffffffffffffffffffffffffffffffffffffff021916908373ffffffffffffffffffffffffffffffffffffffff16021790555081600160006101000a81548173ffffffffffffffffffffffffffffffffffffffff021916908373ffffffffffffffffffffffffffffffffffffffff16021790555080600260006101000a81548173ffffffffffffffffffffffffffffffffffffffff021916908373ffffffffffffffffffffffffffffffffffffffff16021790555050506110bf806101106000396000f3006080604052600436106100fc576000357c0100000000000000000000000000000000000000000000000000000000900463ffffffff1680630b027fb6146101015780630e94a0ee1461012c57806313af4035146101835780631bf30929146101c65780635311312f146101f157806376671808146102745780637a9262a21461029f5780638da5cb5b146102f6578063977eaef61461034d5780639f59ec391461038e578063afffd5b7146103cf578063bdcf2b0614610426578063c00fdd5b14610487578063c7b8981c146104ca578063cdd988d4146104e1578063d0df38031461054e578063e25b17e614610579578063f0682054146105a4575b600080fd5b34801561010d57600080fd5b506101166105cf565b6040518082815260200191505060405180910390f35b34801561013857600080fd5b506101416105d5565b604051808273ffffffffffffffffffffffffffffffffffffffff1673ffffffffffffffffffffffffffffffffffffffff16815260200191505060405180910390f35b34801561018f57600080fd5b506101c4600480360381019080803573ffffffffffffffffffffffffffffffffffffffff1690602001909291905050506105fb565b005b3480156101d257600080fd5b506101db610714565b6040518082815260200191505060405180910390f35b3480156101fd57600080fd5b50610232600480360381019080803573ffffffffffffffffffffffffffffffffffffffff16906020019092919050505061071a565b604051808273ffffffffffffffffffffffffffffffffffffffff1673ffffffffffffffffffffffffffffffffffffffff16815260200191505060405180910390f35b34801561028057600080fd5b5061028961074d565b6040518082815260200191505060405180910390f35b3480156102ab57600080fd5b506102e0600480360381019080803573ffffffffffffffffffffffffffffffffffffffff169060200190929190505050610753565b6040518082815260200191505060405180910390f35b34801561030257600080fd5b5061030b61076b565b604051808273ffffffffffffffffffffffffffffffffffffffff1673ffffffffffffffffffffffffffffffffffffffff16815260200191505060405180910390f35b34801561035957600080fd5b5061037860048036038101908080359060200190929190505050610790565b6040518082815260200191505060405180910390f35b34801561039a57600080fd5b506103b9600480360381019080803590602001909291905050506107a8565b6040518082815260200191505060405180910390f35b3480156103db57600080fd5b506103e46107bd565b604051808273ffffffffffffffffffffffffffffffffffffffff1673ffffffffffffffffffffffffffffffffffffffff16815260200191505060405180910390f35b34801561043257600080fd5b5061047160048036038101908080359060200190929190803573ffffffffffffffffffffffffffffffffffffffff1690602001909291905050506107e3565b6040518082815260200191505060405180910390f35b34801561049357600080fd5b506104c8600480360381019080803573ffffffffffffffffffffffffffffffffffffffff169060200190929190505050610808565b005b3480156104d657600080fd5b506104df6108e4565b005b3480156104ed57600080fd5b5061050c60048036038101908080359060200190929190505050610d54565b604051808273ffffffffffffffffffffffffffffffffffffffff1673ffffffffffffffffffffffffffffffffffffffff16815260200191505060405180910390f35b34801561055a57600080fd5b50610563610d92565b6040518082815260200191505060405180910390f35b34801561058557600080fd5b5061058e610d98565b6040518082815260200191505060405180910390f35b3480156105b057600080fd5b506105b9610db4565b6040518082815260200191505060405180910390f35b60065481565b600160009054906101000a900473ffffffffffffffffffffffffffffffffffffffff1681565b6000809054906101000a900473ffffffffffffffffffffffffffffffffffffffff1673ffffffffffffffffffffffffffffffffffffffff163373ffffffffffffffffffffffffffffffffffffffff1614151561065657600080fd5b8073ffffffffffffffffffffffffffffffffffffffff166000809054906101000a900473ffffffffffffffffffffffffffffffffffffffff1673ffffffffffffffffffffffffffffffffffffffff167fcbf985117192c8f614a58aaf97226bb80a754772f5f6edf06f87c675f2e6c66360405160405180910390a3806000806101000a81548173ffffffffffffffffffffffffffffffffffffffff021916908373ffffffffffffffffffffffffffffffffffffffff16021790555050565b60045481565b600b6020528060005260406000206000915054906101000a900473ffffffffffffffffffffffffffffffffffffffff1681565b60055481565b600a6020528060005260406000206000915090505481565b6000809054906101000a900473ffffffffffffffffffffffffffffffffffffffff1681565b60096020528060005260406000206000915090505481565b60008160035402600454019050809050919050565b600260009054906101000a900473ffffffffffffffffffffffffffffffffffffffff1681565b6008602052816000526040600020602052806000526040600020600091509150505481565b6000809054906101000a900473ffffffffffffffffffffffffffffffffffffffff1673ffffffffffffffffffffffffffffffffffffffff163373ffffffffffffffffffffffffffffffffffffffff1614151561086357600080fd5b80600b60008373ffffffffffffffffffffffffffffffffffffffff1673ffffffffffffffffffffffffffffffffffffffff16815260200190815260200160002060006101000a81548173ffffffffffffffffffffffffffffffffffffffff021916908373ffffffffffffffffffffffffffffffffffffffff16021790555050565b60008060008060008060008060008060003373ffffffffffffffffffffffffffffffffffffffff161415151561091957600080fd5b610921610dba565b60009950600a60003373ffffffffffffffffffffffffffffffffffffffff1673ffffffffffffffffffffffffffffffffffffffff168152602001908152602001600020549850600554891415151561097857600080fd5b600097505b600c80549050881015610d0257600c8881548110151561099957fe5b9060005260206000200160009054906101000a900473ffffffffffffffffffffffffffffffffffffffff1696508895505b600554861015610c16576109dd866107a8565b9450600160009054906101000a900473ffffffffffffffffffffffffffffffffffffffff1673ffffffffffffffffffffffffffffffffffffffff16634ee2cd7e33876040518363ffffffff167c0100000000000000000000000000000000000000000000000000000000028152600401808373ffffffffffffffffffffffffffffffffffffffff1673ffffffffffffffffffffffffffffffffffffffff16815260200182815260200192505050602060405180830381600087803b158015610aa457600080fd5b505af1158015610ab8573d6000803e3d6000fd5b505050506040513d6020811015610ace57600080fd5b81019080805190602001909291905050509350600160009054906101000a900473ffffffffffffffffffffffffffffffffffffffff1673ffffffffffffffffffffffffffffffffffffffff166318160ddd6040518163ffffffff167c0100000000000000000000000000000000000000000000000000000000028152600401602060405180830381600087803b158015610b6757600080fd5b505af1158015610b7b573d6000803e3d6000fd5b505050506040513d6020811015610b9157600080fd5b8101908080519060200190929190505050925082846008600089815260200190815260200160002060008a73ffffffffffffffffffffffffffffffffffffffff1673ffffffffffffffffffffffffffffffffffffffff1681526020019081526020016000205402811515610c0157fe5b049150818101905085806001019650506109ca565b8673ffffffffffffffffffffffffffffffffffffffff1663a9059cbb33836040518363ffffffff167c0100000000000000000000000000000000000000000000000000000000028152600401808373ffffffffffffffffffffffffffffffffffffffff1673ffffffffffffffffffffffffffffffffffffffff16815260200182815260200192505050602060405180830381600087803b158015610cb957600080fd5b505af1158015610ccd573d6000803e3d6000fd5b505050506040513d6020811015610ce357600080fd5b810190808051906020019092919050505050878060010198505061097d565b600554600a60003373ffffffffffffffffffffffffffffffffffffffff1673ffffffffffffffffffffffffffffffffffffffff1681526020019081526020016000208190555050505050505050505050565b600c81815481101515610d6357fe5b906000526020600020016000915054906101000a900473ffffffffffffffffffffffffffffffffffffffff1681565b60075481565b60006003546004544303811515610dab57fe5b04905080905090565b60035481565b60008060008060006005549450610dcf610d98565b9350848414151561108c57600092505b600c8054905083101561108457600c83815481101515610dfb57fe5b9060005260206000200160009054906101000a900473ffffffffffffffffffffffffffffffffffffffff1691508173ffffffffffffffffffffffffffffffffffffffff166370a082316000809054906101000a900473ffffffffffffffffffffffffffffffffffffffff166040518263ffffffff167c0100000000000000000000000000000000000000000000000000000000028152600401808273ffffffffffffffffffffffffffffffffffffffff1673ffffffffffffffffffffffffffffffffffffffff168152602001915050602060405180830381600087803b158015610ee457600080fd5b505af1158015610ef8573d6000803e3d6000fd5b505050506040513d6020811015610f0e57600080fd5b81019080805190602001909291905050509050600260009054906101000a900473ffffffffffffffffffffffffffffffffffffffff1673ffffffffffffffffffffffffffffffffffffffff1663bdc0ee5683836040518363ffffffff167c0100000000000000000000000000000000000000000000000000000000028152600401808373ffffffffffffffffffffffffffffffffffffffff1673ffffffffffffffffffffffffffffffffffffffff16815260200182815260200192505050602060405180830381600087803b158015610fe657600080fd5b505af1158015610ffa573d6000803e3d6000fd5b505050506040513d602081101561101057600080fd5b810190808051906020019092919050505050806008600087815260200190815260200160002060008473ffffffffffffffffffffffffffffffffffffffff1673ffffffffffffffffffffffffffffffffffffffff168152602001908152602001600020819055508280600101935050610ddf565b836005819055505b50505050505600a165627a7a723058209a04b241f3a88f23ddcb86ef4b7cc74f6510575d6241cbc0359b92cb1923903c0029",
  "source": "pragma solidity 0.4.24;\n\nimport './utils/SafeMath.sol';\nimport './utils/Owned.sol';\nimport './interfaces/ProofToken.sol';\nimport './interfaces/ERC20.sol';\nimport './interfaces/RewardCollector.sol';\n\n\ncontract RewardPools is Owned {\n\n  using SafeMath for uint256;\n  ProofTokenInterface public proofToken;\n\n  address public rewardCollector;\n\n  uint256 public blocksPerEpoch;\n  uint256 public creationBlockNumber;\n  uint256 public currentEpoch;\n  uint256 public currentPoolIndex;\n  uint256 public currentPoolBalance;\n\n  mapping(uint256 => mapping(address => uint256)) public poolBalances;\n  mapping(uint256 => uint256) public nthPoolBalance;\n  mapping(address => uint256) public withdrawals;\n\n  mapping(address => ERC20) public quotes;\n  address[] public quoteList;\n\n\n  function RewardPools(address _PRFTAddress, address _rewardCollector) public\n  {\n    proofToken = ProofTokenInterface(_PRFTAddress);\n    rewardCollector = _rewardCollector;\n  }\n\n  function () public payable\n  {\n    revert();\n  }\n\n  function registerQuoteToken(address _tokenAddress) onlyOwner public {\n    quotes[_tokenAddress] = ERC20(_tokenAddress);\n  }\n\n  function withdrawRewards() public\n  {\n    require(msg.sender != 0x0);\n    checkCurrentEpoch();\n\n    uint256 withdrawalValue = 0;\n    uint256 lastWithdrawal = withdrawals[msg.sender];\n    require(lastWithdrawal != currentEpoch);\n\n\n    for (uint256 i = 0; i < quoteList.length; i++) {\n      address tokenAddress = quoteList[i];\n\n      for (uint256 j = lastWithdrawal; j < currentEpoch; j++)\n      {\n        uint256 blockNumberAtEpochStart = getBlockNumberAtEpochStart(j);\n        uint256 balanceAtEpochStart = proofToken.balanceOfAt(msg.sender, blockNumberAtEpochStart);\n        uint256 totalSupply = proofToken.totalSupply();\n\n        uint256 currentPoolTokenRewards = (poolBalances[j][tokenAddress] * balanceAtEpochStart) / totalSupply;\n        uint256 totalTokenRewards = totalTokenRewards + currentPoolTokenRewards;\n      }\n\n      ERC20(tokenAddress).transfer(msg.sender, totalTokenRewards);\n    }\n\n    withdrawals[msg.sender] = currentEpoch;\n  }\n\n  function checkCurrentEpoch() internal\n  {\n    uint256 lastEpoch = currentEpoch;\n    uint256 computedEpoch = computeCurrentEpoch();\n\n    if (computedEpoch != lastEpoch) {\n      for(uint256 i = 0; i < quoteList.length; i++) {\n        address tokenAddress = quoteList[i];\n        uint256 tokenBalance = ERC20(tokenAddress).balanceOf(owner);\n\n        RewardCollectorInterface(rewardCollector).transferTokensToPool(tokenAddress, tokenBalance);\n        poolBalances[lastEpoch][tokenAddress] = tokenBalance;\n      }\n\n      currentEpoch = computedEpoch;\n    }\n  }\n\n  function computeCurrentEpoch() public view returns(uint256 computedCurrentEpoch)\n  {\n    computedCurrentEpoch = (block.number - creationBlockNumber) / blocksPerEpoch;\n    return computedCurrentEpoch;\n  }\n\n  function getBlockNumberAtEpochStart(uint256 _epoch) public view returns(uint256 blockNumber)\n  {\n    blockNumber = creationBlockNumber + blocksPerEpoch * _epoch;\n    return blockNumber;\n  }\n}",
  "sourcePath": "/Users/davidvanisacker/Programming/Ethereum/Proofsuite/amp-dex/contracts/RewardPools.sol",
  "compiler": {
    "name": "solc",
    "version": "0.4.24+commit.e67f0147.Emscripten.clang"
  },
  "schemaVersion": "2.0.1",
  "updatedAt": "2018-11-16T13:11:37.573Z"
}