{
  "contractName": "RewardPools",
  "abi": [
    {
      "constant": true,
      "inputs": [],
      "name": "currentPoolIndex",
      "outputs": [
        {
          "name": "",
          "type": "uint256"
        }
      ],
      "payable": false,
      "stateMutability": "view",
      "type": "function"
    },
    {
      "constant": true,
      "inputs": [],
      "name": "proofToken",
      "outputs": [
        {
          "name": "",
          "type": "address"
        }
      ],
      "payable": false,
      "stateMutability": "view",
      "type": "function"
    },
    {
      "constant": false,
      "inputs": [
        {
          "name": "newOwner",
          "type": "address"
        }
      ],
      "name": "setOwner",
      "outputs": [],
      "payable": false,
      "stateMutability": "nonpayable",
      "type": "function"
    },
    {
      "constant": true,
      "inputs": [],
      "name": "creationBlockNumber",
      "outputs": [
        {
          "name": "",
          "type": "uint256"
        }
      ],
      "payable": false,
      "stateMutability": "view",
      "type": "function"
    },
    {
      "constant": true,
      "inputs": [
        {
          "name": "",
          "type": "uint256"
        }
      ],
      "name": "quoteTokenList",
      "outputs": [
        {
          "name": "",
          "type": "address"
        }
      ],
      "payable": false,
      "stateMutability": "view",
      "type": "function"
    },
    {
      "constant": true,
      "inputs": [
        {
          "name": "",
          "type": "address"
        }
      ],
      "name": "quotes",
      "outputs": [
        {
          "name": "",
          "type": "bool"
        }
      ],
      "payable": false,
      "stateMutability": "view",
      "type": "function"
    },
    {
      "constant": true,
      "inputs": [],
      "name": "currentEpoch",
      "outputs": [
        {
          "name": "",
          "type": "uint256"
        }
      ],
      "payable": false,
      "stateMutability": "view",
      "type": "function"
    },
    {
      "constant": true,
      "inputs": [
        {
          "name": "",
          "type": "address"
        }
      ],
      "name": "withdrawals",
      "outputs": [
        {
          "name": "",
          "type": "uint256"
        }
      ],
      "payable": false,
      "stateMutability": "view",
      "type": "function"
    },
    {
      "constant": true,
      "inputs": [],
      "name": "owner",
      "outputs": [
        {
          "name": "",
          "type": "address"
        }
      ],
      "payable": false,
      "stateMutability": "view",
      "type": "function"
    },
    {
      "constant": true,
      "inputs": [],
      "name": "rewardCollector",
      "outputs": [
        {
          "name": "",
          "type": "address"
        }
      ],
      "payable": false,
      "stateMutability": "view",
      "type": "function"
    },
    {
      "constant": true,
      "inputs": [
        {
          "name": "",
          "type": "uint256"
        },
        {
          "name": "",
          "type": "address"
        }
      ],
      "name": "poolBalances",
      "outputs": [
        {
          "name": "",
          "type": "uint256"
        }
      ],
      "payable": false,
      "stateMutability": "view",
      "type": "function"
    },
    {
      "constant": true,
      "inputs": [],
      "name": "currentPoolBalance",
      "outputs": [
        {
          "name": "",
          "type": "uint256"
        }
      ],
      "payable": false,
      "stateMutability": "view",
      "type": "function"
    },
    {
      "constant": true,
      "inputs": [],
      "name": "blocksPerEpoch",
      "outputs": [
        {
          "name": "",
          "type": "uint256"
        }
      ],
      "payable": false,
      "stateMutability": "view",
      "type": "function"
    },
    {
      "inputs": [
        {
          "name": "_PRFTAddress",
          "type": "address"
        },
        {
          "name": "_rewardCollector",
          "type": "address"
        }
      ],
      "payable": false,
      "stateMutability": "nonpayable",
      "type": "constructor"
    },
    {
      "payable": true,
      "stateMutability": "payable",
      "type": "fallback"
    },
    {
      "anonymous": false,
      "inputs": [
        {
          "indexed": true,
          "name": "previousOwner",
          "type": "address"
        },
        {
          "indexed": true,
          "name": "newOwner",
          "type": "address"
        }
      ],
      "name": "SetOwner",
      "type": "event"
    },
    {
      "constant": false,
      "inputs": [
        {
          "name": "_poolEpoch",
          "type": "uint256"
        },
        {
          "name": "_tokenAddress",
          "type": "address"
        }
      ],
      "name": "balanceOfPool",
      "outputs": [
        {
          "name": "",
          "type": "uint256"
        }
      ],
      "payable": false,
      "stateMutability": "nonpayable",
      "type": "function"
    },
    {
      "constant": false,
      "inputs": [
        {
          "name": "_tokenAddress",
          "type": "address"
        }
      ],
      "name": "removeQuoteToken",
      "outputs": [],
      "payable": false,
      "stateMutability": "nonpayable",
      "type": "function"
    },
    {
      "constant": false,
      "inputs": [
        {
          "name": "_tokenAddress",
          "type": "address"
        }
      ],
      "name": "registerQuoteToken",
      "outputs": [],
      "payable": false,
      "stateMutability": "nonpayable",
      "type": "function"
    },
    {
      "constant": false,
      "inputs": [],
      "name": "withdrawRewards",
      "outputs": [],
      "payable": false,
      "stateMutability": "nonpayable",
      "type": "function"
    },
    {
      "constant": true,
      "inputs": [],
      "name": "computeCurrentEpoch",
      "outputs": [
        {
          "name": "computedCurrentEpoch",
          "type": "uint256"
        }
      ],
      "payable": false,
      "stateMutability": "view",
      "type": "function"
    },
    {
      "constant": true,
      "inputs": [
        {
          "name": "_epoch",
          "type": "uint256"
        }
      ],
      "name": "getBlockNumberAtEpochStart",
      "outputs": [
        {
          "name": "blockNumber",
          "type": "uint256"
        }
      ],
      "payable": false,
      "stateMutability": "view",
      "type": "function"
    }
  ],
  "bytecode": "0x608060405234801561001057600080fd5b5060405160408061147b8339810180604052810190808051906020019092919080519060200190929190505050336000806101000a81548173ffffffffffffffffffffffffffffffffffffffff021916908373ffffffffffffffffffffffffffffffffffffffff16021790555081600160006101000a81548173ffffffffffffffffffffffffffffffffffffffff021916908373ffffffffffffffffffffffffffffffffffffffff16021790555080600260006101000a81548173ffffffffffffffffffffffffffffffffffffffff021916908373ffffffffffffffffffffffffffffffffffffffff160217905550505061136b806101106000396000f300608060405260043610610107576000357c0100000000000000000000000000000000000000000000000000000000900463ffffffff1680630b027fb61461010c5780630e94a0ee1461013757806313af40351461018e5780631bf30929146101d157806327a710dd146101fc5780635311312f1461026957806376671808146102c45780637a9262a2146102ef5780638da5cb5b146103465780639f59ec391461039d578063a3e72264146103de578063afffd5b71461043f578063bdcf2b0614610496578063c00fdd5b146104f7578063c7b8981c1461053a578063c9f6b52714610551578063d0df380314610594578063e25b17e6146105bf578063f0682054146105ea575b600080fd5b34801561011857600080fd5b50610121610615565b6040518082815260200191505060405180910390f35b34801561014357600080fd5b5061014c61061b565b604051808273ffffffffffffffffffffffffffffffffffffffff1673ffffffffffffffffffffffffffffffffffffffff16815260200191505060405180910390f35b34801561019a57600080fd5b506101cf600480360381019080803573ffffffffffffffffffffffffffffffffffffffff169060200190929190505050610641565b005b3480156101dd57600080fd5b506101e661075a565b6040518082815260200191505060405180910390f35b34801561020857600080fd5b5061022760048036038101908080359060200190929190505050610760565b604051808273ffffffffffffffffffffffffffffffffffffffff1673ffffffffffffffffffffffffffffffffffffffff16815260200191505060405180910390f35b34801561027557600080fd5b506102aa600480360381019080803573ffffffffffffffffffffffffffffffffffffffff16906020019092919050505061079e565b604051808215151515815260200191505060405180910390f35b3480156102d057600080fd5b506102d96107be565b6040518082815260200191505060405180910390f35b3480156102fb57600080fd5b50610330600480360381019080803573ffffffffffffffffffffffffffffffffffffffff1690602001909291905050506107c4565b6040518082815260200191505060405180910390f35b34801561035257600080fd5b5061035b6107dc565b604051808273ffffffffffffffffffffffffffffffffffffffff1673ffffffffffffffffffffffffffffffffffffffff16815260200191505060405180910390f35b3480156103a957600080fd5b506103c860048036038101908080359060200190929190505050610801565b6040518082815260200191505060405180910390f35b3480156103ea57600080fd5b5061042960048036038101908080359060200190929190803573ffffffffffffffffffffffffffffffffffffffff169060200190929190505050610816565b6040518082815260200191505060405180910390f35b34801561044b57600080fd5b50610454610871565b604051808273ffffffffffffffffffffffffffffffffffffffff1673ffffffffffffffffffffffffffffffffffffffff16815260200191505060405180910390f35b3480156104a257600080fd5b506104e160048036038101908080359060200190929190803573ffffffffffffffffffffffffffffffffffffffff169060200190929190505050610897565b6040518082815260200191505060405180910390f35b34801561050357600080fd5b50610538600480360381019080803573ffffffffffffffffffffffffffffffffffffffff1690602001909291905050506108bc565b005b34801561054657600080fd5b5061054f6109d8565b005b34801561055d57600080fd5b50610592600480360381019080803573ffffffffffffffffffffffffffffffffffffffff169060200190929190505050610e48565b005b3480156105a057600080fd5b506105a9610fed565b6040518082815260200191505060405180910390f35b3480156105cb57600080fd5b506105d4610ff3565b6040518082815260200191505060405180910390f35b3480156105f657600080fd5b506105ff61100f565b6040518082815260200191505060405180910390f35b60065481565b600160009054906101000a900473ffffffffffffffffffffffffffffffffffffffff1681565b6000809054906101000a900473ffffffffffffffffffffffffffffffffffffffff1673ffffffffffffffffffffffffffffffffffffffff163373ffffffffffffffffffffffffffffffffffffffff1614151561069c57600080fd5b8073ffffffffffffffffffffffffffffffffffffffff166000809054906101000a900473ffffffffffffffffffffffffffffffffffffffff1673ffffffffffffffffffffffffffffffffffffffff167fcbf985117192c8f614a58aaf97226bb80a754772f5f6edf06f87c675f2e6c66360405160405180910390a3806000806101000a81548173ffffffffffffffffffffffffffffffffffffffff021916908373ffffffffffffffffffffffffffffffffffffffff16021790555050565b60045481565b600b8181548110151561076f57fe5b906000526020600020016000915054906101000a900473ffffffffffffffffffffffffffffffffffffffff1681565b600a6020528060005260406000206000915054906101000a900460ff1681565b60055481565b60096020528060005260406000206000915090505481565b6000809054906101000a900473ffffffffffffffffffffffffffffffffffffffff1681565b60008160035402600454019050809050919050565b60006008600084815260200190815260200160002060008373ffffffffffffffffffffffffffffffffffffffff1673ffffffffffffffffffffffffffffffffffffffff16815260200190815260200160002054905092915050565b600260009054906101000a900473ffffffffffffffffffffffffffffffffffffffff1681565b6008602052816000526040600020602052806000526040600020600091509150505481565b6000809054906101000a900473ffffffffffffffffffffffffffffffffffffffff1673ffffffffffffffffffffffffffffffffffffffff163373ffffffffffffffffffffffffffffffffffffffff1614151561091757600080fd5b6001600a60008373ffffffffffffffffffffffffffffffffffffffff1673ffffffffffffffffffffffffffffffffffffffff16815260200190815260200160002060006101000a81548160ff021916908315150217905550600b8190806001815401808255809150509060018203906000526020600020016000909192909190916101000a81548173ffffffffffffffffffffffffffffffffffffffff021916908373ffffffffffffffffffffffffffffffffffffffff1602179055505050565b60008060008060008060008060008060003373ffffffffffffffffffffffffffffffffffffffff1614151515610a0d57600080fd5b610a15611015565b60009950600960003373ffffffffffffffffffffffffffffffffffffffff1673ffffffffffffffffffffffffffffffffffffffff1681526020019081526020016000205498506005548914151515610a6c57600080fd5b600097505b600b80549050881015610df657600b88815481101515610a8d57fe5b9060005260206000200160009054906101000a900473ffffffffffffffffffffffffffffffffffffffff1696508895505b600554861015610d0a57610ad186610801565b9450600160009054906101000a900473ffffffffffffffffffffffffffffffffffffffff1673ffffffffffffffffffffffffffffffffffffffff16634ee2cd7e33876040518363ffffffff167c0100000000000000000000000000000000000000000000000000000000028152600401808373ffffffffffffffffffffffffffffffffffffffff1673ffffffffffffffffffffffffffffffffffffffff16815260200182815260200192505050602060405180830381600087803b158015610b9857600080fd5b505af1158015610bac573d6000803e3d6000fd5b505050506040513d6020811015610bc257600080fd5b81019080805190602001909291905050509350600160009054906101000a900473ffffffffffffffffffffffffffffffffffffffff1673ffffffffffffffffffffffffffffffffffffffff166318160ddd6040518163ffffffff167c0100000000000000000000000000000000000000000000000000000000028152600401602060405180830381600087803b158015610c5b57600080fd5b505af1158015610c6f573d6000803e3d6000fd5b505050506040513d6020811015610c8557600080fd5b8101908080519060200190929190505050925082846008600089815260200190815260200160002060008a73ffffffffffffffffffffffffffffffffffffffff1673ffffffffffffffffffffffffffffffffffffffff1681526020019081526020016000205402811515610cf557fe5b04915081810190508580600101965050610abe565b8673ffffffffffffffffffffffffffffffffffffffff1663a9059cbb33836040518363ffffffff167c0100000000000000000000000000000000000000000000000000000000028152600401808373ffffffffffffffffffffffffffffffffffffffff1673ffffffffffffffffffffffffffffffffffffffff16815260200182815260200192505050602060405180830381600087803b158015610dad57600080fd5b505af1158015610dc1573d6000803e3d6000fd5b505050506040513d6020811015610dd757600080fd5b8101908080519060200190929190505050508780600101985050610a71565b600554600960003373ffffffffffffffffffffffffffffffffffffffff1673ffffffffffffffffffffffffffffffffffffffff1681526020019081526020016000208190555050505050505050505050565b60008090505b8173ffffffffffffffffffffffffffffffffffffffff16600b82815481101515610e7457fe5b9060005260206000200160009054906101000a900473ffffffffffffffffffffffffffffffffffffffff1673ffffffffffffffffffffffffffffffffffffffff16141515610ec9578080600101915050610e4e565b5b6001600b8054905003811015610f7b57600b60018201815481101515610eec57fe5b9060005260206000200160009054906101000a900473ffffffffffffffffffffffffffffffffffffffff16600b82815481101515610f2657fe5b9060005260206000200160006101000a81548173ffffffffffffffffffffffffffffffffffffffff021916908373ffffffffffffffffffffffffffffffffffffffff1602179055508080600101915050610eca565b600b805480919060019003610f9091906112ee565b506000600a60008473ffffffffffffffffffffffffffffffffffffffff1673ffffffffffffffffffffffffffffffffffffffff16815260200190815260200160002060006101000a81548160ff0219169083151502179055505050565b60075481565b6000600354600454430381151561100657fe5b04905080905090565b60035481565b6000806000806000600554945061102a610ff3565b935084841415156112e757600092505b600b805490508310156112df57600b8381548110151561105657fe5b9060005260206000200160009054906101000a900473ffffffffffffffffffffffffffffffffffffffff1691508173ffffffffffffffffffffffffffffffffffffffff166370a082316000809054906101000a900473ffffffffffffffffffffffffffffffffffffffff166040518263ffffffff167c0100000000000000000000000000000000000000000000000000000000028152600401808273ffffffffffffffffffffffffffffffffffffffff1673ffffffffffffffffffffffffffffffffffffffff168152602001915050602060405180830381600087803b15801561113f57600080fd5b505af1158015611153573d6000803e3d6000fd5b505050506040513d602081101561116957600080fd5b81019080805190602001909291905050509050600260009054906101000a900473ffffffffffffffffffffffffffffffffffffffff1673ffffffffffffffffffffffffffffffffffffffff1663bdc0ee5683836040518363ffffffff167c0100000000000000000000000000000000000000000000000000000000028152600401808373ffffffffffffffffffffffffffffffffffffffff1673ffffffffffffffffffffffffffffffffffffffff16815260200182815260200192505050602060405180830381600087803b15801561124157600080fd5b505af1158015611255573d6000803e3d6000fd5b505050506040513d602081101561126b57600080fd5b810190808051906020019092919050505050806008600087815260200190815260200160002060008473ffffffffffffffffffffffffffffffffffffffff1673ffffffffffffffffffffffffffffffffffffffff16815260200190815260200160002081905550828060010193505061103a565b836005819055505b5050505050565b81548183558181111561131557818360005260206000209182019101611314919061131a565b5b505050565b61133c91905b80821115611338576000816000905550600101611320565b5090565b905600a165627a7a72305820455673801f76448d18794bfcb0566c0e424be91b7cdaaf073f83791ad0fbc30d0029",
  "source": "pragma solidity 0.4.24;\n\nimport './utils/SafeMath.sol';\nimport './utils/Owned.sol';\nimport './interfaces/ProofToken.sol';\nimport './interfaces/ERC20.sol';\nimport './interfaces/RewardCollector.sol';\n\n\ncontract RewardPools is Owned {\n\n  using SafeMath for uint256;\n  ProofTokenInterface public proofToken;\n\n  address public rewardCollector;\n\n  uint256 public blocksPerEpoch;\n  uint256 public creationBlockNumber;\n  uint256 public currentEpoch;\n  uint256 public currentPoolIndex;\n  uint256 public currentPoolBalance;\n\n  mapping(uint256 => mapping(address => uint256)) public poolBalances;\n  mapping(address => uint256) public withdrawals;\n\n  mapping(address => bool) public quotes;\n  address[] public quoteTokenList;\n\n\n  function RewardPools(address _PRFTAddress, address _rewardCollector) public\n  {\n    proofToken = ProofTokenInterface(_PRFTAddress);\n    rewardCollector = _rewardCollector;\n  }\n\n  function () public payable\n  {\n    revert();\n  }\n\n  function balanceOfPool(uint256 _poolEpoch, address _tokenAddress) public returns (uint256) {\n    return poolBalances[_poolEpoch][_tokenAddress];\n  }\n\n\n  function removeQuoteToken(address _tokenAddress) {\n    uint i = 0;\n    while (quoteTokenList[i] != _tokenAddress) {\n        i++;\n    }\n\n    while (i<quoteTokenList.length-1) {\n      quoteTokenList[i] = quoteTokenList[i+1];\n      i++;\n    }\n\n    quoteTokenList.length--;\n    quotes[_tokenAddress] = false;\n  }\n\n  function registerQuoteToken(address _tokenAddress) onlyOwner public {\n    quotes[_tokenAddress] = true;\n    quoteTokenList.push(_tokenAddress);\n  }\n\n  function withdrawRewards() public\n  {\n    require(msg.sender != 0x0);\n    checkCurrentEpoch();\n\n    uint256 withdrawalValue = 0;\n    uint256 lastWithdrawal = withdrawals[msg.sender];\n    require(lastWithdrawal != currentEpoch);\n\n\n    for (uint256 i = 0; i < quoteTokenList.length; i++) {\n      address tokenAddress = quoteTokenList[i];\n\n      for (uint256 j = lastWithdrawal; j < currentEpoch; j++)\n      {\n        uint256 blockNumberAtEpochStart = getBlockNumberAtEpochStart(j);\n        uint256 balanceAtEpochStart = proofToken.balanceOfAt(msg.sender, blockNumberAtEpochStart);\n        uint256 totalSupply = proofToken.totalSupply();\n\n        uint256 currentPoolTokenRewards = (poolBalances[j][tokenAddress] * balanceAtEpochStart) / totalSupply;\n        uint256 totalTokenRewards = totalTokenRewards + currentPoolTokenRewards;\n      }\n\n      ERC20(tokenAddress).transfer(msg.sender, totalTokenRewards);\n    }\n\n    withdrawals[msg.sender] = currentEpoch;\n  }\n\n  function checkCurrentEpoch() internal\n  {\n    uint256 lastEpoch = currentEpoch;\n    uint256 computedEpoch = computeCurrentEpoch();\n\n    if (computedEpoch != lastEpoch) {\n      for(uint256 i = 0; i < quoteTokenList.length; i++) {\n        address tokenAddress = quoteTokenList[i];\n        uint256 tokenBalance = ERC20(tokenAddress).balanceOf(owner);\n\n        RewardCollectorInterface(rewardCollector).transferTokensToPool(tokenAddress, tokenBalance);\n        poolBalances[lastEpoch][tokenAddress] = tokenBalance;\n      }\n\n      currentEpoch = computedEpoch;\n    }\n  }\n\n  function computeCurrentEpoch() public view returns(uint256 computedCurrentEpoch)\n  {\n    computedCurrentEpoch = (block.number - creationBlockNumber) / blocksPerEpoch;\n    return computedCurrentEpoch;\n  }\n\n  function getBlockNumberAtEpochStart(uint256 _epoch) public view returns(uint256 blockNumber)\n  {\n    blockNumber = creationBlockNumber + blocksPerEpoch * _epoch;\n    return blockNumber;\n  }\n}",
  "sourcePath": "/Users/davidvanisacker/Programming/Ethereum/Proofsuite/amp-dex/contracts/RewardPools.sol",
  "compiler": {
    "name": "solc",
    "version": "0.4.24+commit.e67f0147.Emscripten.clang"
  },
  "schemaVersion": "2.0.1",
  "updatedAt": "2018-11-16T17:07:44.190Z"
}