{
  "contractName": "SetupAccount",
  "abi": [
    {
      "constant": true,
      "inputs": [],
      "name": "wethAddress",
      "outputs": [
        {
          "name": "",
          "type": "address"
        }
      ],
      "payable": false,
      "stateMutability": "view",
      "type": "function"
    },
    {
      "constant": true,
      "inputs": [],
      "name": "exchangeAddress",
      "outputs": [
        {
          "name": "",
          "type": "address"
        }
      ],
      "payable": false,
      "stateMutability": "view",
      "type": "function"
    },
    {
      "inputs": [
        {
          "name": "_exchangeAddress",
          "type": "address"
        },
        {
          "name": "_wethAddress",
          "type": "address"
        }
      ],
      "payable": false,
      "stateMutability": "nonpayable",
      "type": "constructor"
    },
    {
      "constant": false,
      "inputs": [
        {
          "name": "_tokenAddress",
          "type": "address"
        },
        {
          "name": "_value",
          "type": "uint256"
        }
      ],
      "name": "delegateApprove",
      "outputs": [],
      "payable": true,
      "stateMutability": "payable",
      "type": "function"
    },
    {
      "constant": false,
      "inputs": [],
      "name": "delegateDeposit",
      "outputs": [],
      "payable": true,
      "stateMutability": "payable",
      "type": "function"
    },
    {
      "constant": false,
      "inputs": [
        {
          "name": "_tokenAddresses",
          "type": "address[]"
        },
        {
          "name": "_value",
          "type": "uint256[]"
        }
      ],
      "name": "setup",
      "outputs": [],
      "payable": true,
      "stateMutability": "payable",
      "type": "function"
    },
    {
      "constant": false,
      "inputs": [
        {
          "name": "_tokenAddresses",
          "type": "address[]"
        },
        {
          "name": "_spenders",
          "type": "address[]"
        },
        {
          "name": "_value",
          "type": "uint256[]"
        }
      ],
      "name": "approveTokens",
      "outputs": [],
      "payable": false,
      "stateMutability": "nonpayable",
      "type": "function"
    }
  ],
  "bytecode": "0x608060405234801561001057600080fd5b506040516040806107b48339810180604052810190808051906020019092919080519060200190929190505050816000806101000a81548173ffffffffffffffffffffffffffffffffffffffff021916908373ffffffffffffffffffffffffffffffffffffffff16021790555080600160006101000a81548173ffffffffffffffffffffffffffffffffffffffff021916908373ffffffffffffffffffffffffffffffffffffffff16021790555050506106e5806100cf6000396000f300608060405260043610610078576000357c0100000000000000000000000000000000000000000000000000000000900463ffffffff16806328814f031461007d5780634f0e0ef31461011957806353ad6a9614610170578063887d37971461017a5780639c775e1f146102665780639cd01605146102a6575b600080fd5b61011760048036038101908080359060200190820180359060200190808060200260200160405190810160405280939291908181526020018383602002808284378201915050505050509192919290803590602001908201803590602001908080602002602001604051908101604052809392919081815260200183836020028082843782019150505050505091929192905050506102fd565b005b34801561012557600080fd5b5061012e610369565b604051808273ffffffffffffffffffffffffffffffffffffffff1673ffffffffffffffffffffffffffffffffffffffff16815260200191505060405180910390f35b61017861038f565b005b34801561018657600080fd5b5061026460048036038101908080359060200190820180359060200190808060200260200160405190810160405280939291908181526020018383602002808284378201915050505050509192919290803590602001908201803590602001908080602002602001604051908101604052809392919081815260200183836020028082843782019150505050505091929192908035906020019082018035906020019080806020026020016040519081016040528093929190818152602001838360200280828437820191505050505050919291929050505061045f565b005b6102a4600480360381019080803573ffffffffffffffffffffffffffffffffffffffff169060200190929190803590602001909291905050506105a5565b005b3480156102b257600080fd5b506102bb610694565b604051808273ffffffffffffffffffffffffffffffffffffffff1673ffffffffffffffffffffffffffffffffffffffff16815260200191505060405180910390f35b60008090505b825181101561035157610344838281518110151561031d57fe5b90602001906020020151838381518110151561033557fe5b906020019060200201516105a5565b8080600101915050610303565b6000341415156103645761036361038f565b5b505050565b600160009054906101000a900473ffffffffffffffffffffffffffffffffffffffff1681565b600160009054906101000a900473ffffffffffffffffffffffffffffffffffffffff1673ffffffffffffffffffffffffffffffffffffffff1660405180807f6465706f73697428290000000000000000000000000000000000000000000000815250600901905060405180910390207c010000000000000000000000000000000000000000000000000000000090046040518163ffffffff167c0100000000000000000000000000000000000000000000000000000000028152600401600060405180830381865af49250505050565b60008090505b835181101561059f57838181518110151561047c57fe5b9060200190602002015173ffffffffffffffffffffffffffffffffffffffff1663095ea7b384838151811015156104af57fe5b9060200190602002015184848151811015156104c757fe5b906020019060200201516040518363ffffffff167c0100000000000000000000000000000000000000000000000000000000028152600401808373ffffffffffffffffffffffffffffffffffffffff1673ffffffffffffffffffffffffffffffffffffffff16815260200182815260200192505050602060405180830381600087803b15801561055657600080fd5b505af115801561056a573d6000803e3d6000fd5b505050506040513d602081101561058057600080fd5b8101908080519060200190929190505050508080600101915050610465565b50505050565b8173ffffffffffffffffffffffffffffffffffffffff1660405180807f617070726f766528616464726573732c2075696e743235362900000000000000815250601901905060405180910390207c0100000000000000000000000000000000000000000000000000000000900483836040518363ffffffff167c0100000000000000000000000000000000000000000000000000000000028152600401808373ffffffffffffffffffffffffffffffffffffffff1673ffffffffffffffffffffffffffffffffffffffff16815260200182815260200192505050600060405180830381865af492505050505050565b6000809054906101000a900473ffffffffffffffffffffffffffffffffffffffff16815600a165627a7a72305820bc7785372d571a86878840961d007d78d2f957afc8be077697723145a9520b110029",
  "source": "pragma solidity 0.4.24;\n\nimport \"../interfaces/ERC20.sol\";\nimport \"./WETH9.sol\";\n\ncontract SetupAccount {\n\n    address public exchangeAddress;\n    address public wethAddress;\n\n    constructor (\n        address _exchangeAddress,\n        address _wethAddress\n    ) public {\n        exchangeAddress = _exchangeAddress;\n        wethAddress = _wethAddress;\n    }\n\n    function delegateApprove(\n        address _tokenAddress,\n        uint256 _value\n    ) public payable {\n        _tokenAddress.delegatecall(bytes4(keccak256(\"approve(address, uint256)\")), _tokenAddress, _value);\n    }\n\n    function delegateDeposit(\n    ) public payable {\n        wethAddress.delegatecall(bytes4(keccak256(\"deposit()\")));\n    }\n\n    //The setup account function sets up the account of a trader by carrying out the following actions:\n    //1) approve the tokens that the trader wishes to trades\n    //2) deposit ETH into WETH if the trader wants to trade WETH.\n    function setup(\n        address[] _tokenAddresses, \n        uint256[] _value\n    ) public payable {\n        for (uint i = 0; i < _tokenAddresses.length; i++) {\n            delegateApprove(_tokenAddresses[i], _value[i]);\n        }\n\n        if (msg.value != 0) {\n            delegateDeposit();\n        }\n    }\n\n    function approveTokens(\n        address[] _tokenAddresses,\n        address[] _spenders,\n        uint256[] _value\n    ) public {\n        for (uint i = 0; i < _tokenAddresses.length; i++) {\n            ERC20(_tokenAddresses[i]).approve(_spenders[i], _value[i]);\n        }\n    }\n}",
  "sourcePath": "/Users/davidvanisacker/Programming/Ethereum/Proofsuite/amp-dex/contracts/utils/SetupAccount.sol",
  "compiler": {
    "name": "solc",
    "version": "0.4.24+commit.e67f0147.Emscripten.clang"
  },
  "schemaVersion": "2.0.1",
  "updatedAt": "2018-12-06T04:43:11.166Z"
}