{
  "contractName": "SetupAccount",
  "abi": [
    {
      "constant": true,
      "inputs": [],
      "name": "wethAddress",
      "outputs": [
        {
          "name": "",
          "type": "address"
        }
      ],
      "payable": false,
      "stateMutability": "view",
      "type": "function",
      "signature": "0x4f0e0ef3"
    },
    {
      "constant": true,
      "inputs": [],
      "name": "exchangeAddress",
      "outputs": [
        {
          "name": "",
          "type": "address"
        }
      ],
      "payable": false,
      "stateMutability": "view",
      "type": "function",
      "signature": "0x9cd01605"
    },
    {
      "inputs": [
        {
          "name": "_exchangeAddress",
          "type": "address"
        },
        {
          "name": "_wethAddress",
          "type": "address"
        }
      ],
      "payable": false,
      "stateMutability": "nonpayable",
      "type": "constructor",
      "signature": "constructor"
    },
    {
      "constant": false,
      "inputs": [
        {
          "name": "_tokenAddresses",
          "type": "address[]"
        },
        {
          "name": "_values",
          "type": "uint256[]"
        }
      ],
      "name": "setup",
      "outputs": [],
      "payable": true,
      "stateMutability": "payable",
      "type": "function",
      "signature": "0x28814f03"
    },
    {
      "constant": false,
      "inputs": [
        {
          "name": "_tokenAddresses",
          "type": "address[]"
        },
        {
          "name": "_values",
          "type": "uint256[]"
        }
      ],
      "name": "approveTokens",
      "outputs": [],
      "payable": false,
      "stateMutability": "nonpayable",
      "type": "function",
      "signature": "0x9c833fa7"
    }
  ],
  "bytecode": "0x608060405234801561001057600080fd5b506040516040806108438339810180604052810190808051906020019092919080519060200190929190505050816000806101000a81548173ffffffffffffffffffffffffffffffffffffffff021916908373ffffffffffffffffffffffffffffffffffffffff16021790555080600160006101000a81548173ffffffffffffffffffffffffffffffffffffffff021916908373ffffffffffffffffffffffffffffffffffffffff1602179055505050610774806100cf6000396000f300608060405260043610610062576000357c0100000000000000000000000000000000000000000000000000000000900463ffffffff16806328814f03146100675780634f0e0ef3146101035780639c833fa71461015a5780639cd0160514610203575b600080fd5b610101600480360381019080803590602001908201803590602001908080602002602001604051908101604052809392919081815260200183836020028082843782019150505050505091929192908035906020019082018035906020019080806020026020016040519081016040528093929190818152602001838360200280828437820191505050505050919291929050505061025a565b005b34801561010f57600080fd5b50610118610546565b604051808273ffffffffffffffffffffffffffffffffffffffff1673ffffffffffffffffffffffffffffffffffffffff16815260200191505060405180910390f35b34801561016657600080fd5b50610201600480360381019080803590602001908201803590602001908080602002602001604051908101604052809392919081815260200183836020028082843782019150505050505091929192908035906020019082018035906020019080806020026020016040519081016040528093929190818152602001838360200280828437820191505050505050919291929050505061056c565b005b34801561020f57600080fd5b50610218610723565b604051808273ffffffffffffffffffffffffffffffffffffffff1673ffffffffffffffffffffffffffffffffffffffff16815260200191505060405180910390f35b60008090505b825181101561040c57828181518110151561027757fe5b9060200190602002015173ffffffffffffffffffffffffffffffffffffffff166000809054906101000a900473ffffffffffffffffffffffffffffffffffffffff1683838151811015156102c757fe5b90602001906020020151604051602401808373ffffffffffffffffffffffffffffffffffffffff1673ffffffffffffffffffffffffffffffffffffffff168152602001828152602001925050506040516020818303038152906040527f095ea7b3000000000000000000000000000000000000000000000000000000007bffffffffffffffffffffffffffffffffffffffffffffffffffffffff19166020820180517bffffffffffffffffffffffffffffffffffffffffffffffffffffffff838183161783525050505060405180828051906020019080838360005b838110156103be5780820151818401526020810190506103a3565b50505050905090810190601f1680156103eb5780820380516001836020036101000a031916815260200191505b50915050600060405180830381855af4915050508080600101915050610260565b60003414151561054157600160009054906101000a900473ffffffffffffffffffffffffffffffffffffffff1673ffffffffffffffffffffffffffffffffffffffff166040516024016040516020818303038152906040527fd0e30db0000000000000000000000000000000000000000000000000000000007bffffffffffffffffffffffffffffffffffffffffffffffffffffffff19166020820180517bffffffffffffffffffffffffffffffffffffffffffffffffffffffff838183161783525050505060405180828051906020019080838360005b838110156104ff5780820151818401526020810190506104e4565b50505050905090810190601f16801561052c5780820380516001836020036101000a031916815260200191505b50915050600060405180830381855af4915050505b505050565b600160009054906101000a900473ffffffffffffffffffffffffffffffffffffffff1681565b60008090505b825181101561071e57828181518110151561058957fe5b9060200190602002015173ffffffffffffffffffffffffffffffffffffffff166000809054906101000a900473ffffffffffffffffffffffffffffffffffffffff1683838151811015156105d957fe5b90602001906020020151604051602401808373ffffffffffffffffffffffffffffffffffffffff1673ffffffffffffffffffffffffffffffffffffffff168152602001828152602001925050506040516020818303038152906040527f095ea7b3000000000000000000000000000000000000000000000000000000007bffffffffffffffffffffffffffffffffffffffffffffffffffffffff19166020820180517bffffffffffffffffffffffffffffffffffffffffffffffffffffffff838183161783525050505060405180828051906020019080838360005b838110156106d05780820151818401526020810190506106b5565b50505050905090810190601f1680156106fd5780820380516001836020036101000a031916815260200191505b50915050600060405180830381855af4915050508080600101915050610572565b505050565b6000809054906101000a900473ffffffffffffffffffffffffffffffffffffffff16815600a165627a7a72305820a305161b139c269cc6c50f27a9ed44d817fc2bffd7260fc65f691b82fc29be580029",
  "source": "pragma solidity 0.4.24;\n\nimport \"../interfaces/ERC20.sol\";\nimport \"./WETH9.sol\";\n\ncontract SetupAccount {\n\n    address public exchangeAddress;\n    address public wethAddress;\n\n    constructor (\n        address _exchangeAddress,\n        address _wethAddress\n    ) public {\n        exchangeAddress = _exchangeAddress;\n        wethAddress = _wethAddress;\n    }\n\n    //The setup account function sets up the account of a trader by carrying out the following actions:\n    //1) approve the tokens that the trader wishes to trades\n    //2) deposit ETH into WETH if the trader wants to trade WETH.\n    function setup(\n        address[] _tokenAddresses, \n        uint256[] _values\n    ) public payable {\n        for (uint i = 0; i < _tokenAddresses.length; i++) {\n            _tokenAddresses[i].delegatecall(abi.encodeWithSignature(\"approve(address,uint256)\", exchangeAddress, _values[i]));\n        }\n\n        if (msg.value != 0) {\n            wethAddress.delegatecall(abi.encodeWithSignature(\"deposit()\"));\n        }\n    }\n\n    function approveTokens(\n        address[] _tokenAddresses,\n        uint256[] _values\n    ) public {\n        for (uint i = 0; i < _tokenAddresses.length; i++) {\n            _tokenAddresses[i].delegatecall(abi.encodeWithSignature(\"approve(address,uint256)\", exchangeAddress, _values[i]));\n        }\n    }\n}",
  "sourcePath": "/Users/davidvanisacker/Programming/Ethereum/Proofsuite/amp-dex/contracts/utils/SetupAccount.sol",
  "compiler": {
    "name": "solc",
    "version": "0.4.24+commit.e67f0147.Emscripten.clang"
  },
  "schemaVersion": "3.0.6",
  "updatedAt": "2019-04-12T01:55:23.029Z",
  "devdoc": {
    "methods": {}
  },
  "userdoc": {
    "methods": {}
  }
}